:020000040800F2
:10000000300A0020A101000857330008A32C000883
:100010005533000869080008113E00080000000080
:100020000000000000000000000000000137000890
:10003000A7080008000000008D330008F53700080D
:10004000BB010008BB010008BB010008BB010008A0
:10005000BB010008BB010008BB010008BB01000890
:10006000BB010008BF080008C50800086D080008AB
:10007000BB010008BB010008BB010008BB01000870
:10008000BB010008BB010008BB010008BB01000860
:10009000BB010008BB010008BB010008CB08000839
:1000A000BB010008BB010008BB010008BB01000840
:1000B000BB0100080000000000000000BB010008B8
:1000C000BB010008BB010008BB010008BB01000820
:1000D000BB010008ED3D0008F93D0008053E0008A1
:1000E000A9080008BB010008000000000000000093
:1000F0000000000000000000000000000000000000
:1001000000000000BB01000800000000BB01000867
:100110000000000000000000BB010008BB01000857
:10012000BB010008BB010008BB010008BB010008BF
:10013000BB010008000000000000000000000000FB
:10014000BB010008BB010008BB0100080000000063
:10015000BB010008BB010008492F0008BB010008D3
:10016000BB010008BB010008BB0100080000000043
:10017000BB010008BB0100080000000000000000F7
:10018000BB010008BB010008BB010008DFF80CD070
:1001900000F0C6FA00480047CD490008300A0020A8
:1001A0000648804706480047FEE7FEE7FEE7FEE711
:1001B000FEE7FEE7FEE7FEE7FEE7FEE7E1380008C0
:1001C0008D0100082DE9F05F0546002092469B4610
:1001D00088460646814640241BE02846414647465D
:1001E000224600F0EDF953465A46C01A914110D309
:1001F00011461846224600F0D4F92D1A67EB010883
:100200004F4622460120002100F0CBF917EB0009F0
:100210004E41201EA4F10104DFDC484631462A4647
:10022000434600F000B830BCBDE8C09FD2B201E048
:1002300000F8012B491EFBD270470022F6E710B5EB
:1002400013460A4604461946FFF7F0FF204610BD44
:100250002DE9FE4F804681EA0300C00F0C46009056
:1002600021F0004123F00045B8EB0200A94105D27E
:100270004046214690461C460B46024623F000406D
:10028000104347D0270DC7F30A00C3F30A51029069
:10029000401A019040286BDAC3F3130040F4801B2E
:1002A0000098924620B10023D2EB030A63EB0B0BBC
:1002B00001985946C0F14002504600F072F90646D6
:1002C0000D4650465946019A00F08AF910EB080095
:1002D0006141002487EA115284EAE7731A4340D04F
:1002E000009A62B3019A012A4FEA075215DC001BFB
:1002F00061EB02014FF0004202EA0752CDE90042F1
:10030000001C41F5801132462B4600F08AF903B0FB
:1003100000F045B840462146F9E7001B61EB0201B9
:10032000001C41F5801300185B412018A2F500174E
:1003300047EB030140EAD570B6196D4111E06D0835
:100340004FEA360645EAC0754FEA0752001B61EBDB
:100350000201001C41F5801149084FEA30000019E4
:10036000514132462B4603B000F01CB800F04AB9A8
:100370000098012240000023D0EB020263EBE073FF
:10038000009821464FEAE074B8EB000061EB0401ED
:10039000E9E783F000435BE781F0004158E730BCB8
:1003A000BDE8C08F30BCBDE8C04FFFF7DFBF2DE90F
:1003B000FE4F81EA030404F0004421F00041009460
:1003C0004FF0000B23F0004350EA01045ED052EAE4
:1003D00003045BD0C3F30A54C1F30A552C44A4F2BE
:1003E000F3340194A0FB0254C1F3130141F48011D2
:1003F000C3F3130343F4801301FB024400FB034ED9
:10040000840A970A44EA815447EA8357A4FB0768A1
:1004100002958D0A05FB07854FEA932C04FB0C54CB
:100420002705029D4FEA065847EA1637B5EB08053F
:100430006EEB070C870E920E47EA811742EA831291
:10044000A7FB0201B6EB0B0164EB00042B0D43EAA2
:100450000C335E1844EB1C50DA465146E7FB0201B0
:10046000C5F313044FEA0B3343EA14534FEA043243
:10047000019C43EA0603A4F10C040294009CCDE91C
:1004800000B400F0CEF803B000F003B8002001463D
:10049000F9E730BCBDE8C08F2DE9F04D81EA0304D7
:1004A00004F0004B21F0004514464FF0000A23F001
:1004B000004150EA050220D054EA01021DD0C5F3E4
:1004C0000A570246C5F31303C1F31300C1F30A56DA
:1004D00040F4801543F48013A7EB0608101BD646A2
:1004E00008F2FD3873EB050002D308F1010801E0C2
:1004F00092185B41B8F1000F03DA00200146BDE815
:10050000F08D00204FF48011064684460EE0171B44
:1005100073EB050705D3121B63EB050306434CEA97
:10052000010C49084FEA300092185B4150EA01077C
:10053000EDD152EA030012D082EA040083EA0501F9
:10054000084305D0101BAB4106D20122002306E070
:1005500000224FF0004302E06FF0010253101AEB4B
:1005600006004CEB085110EB0A0041EB0B01BDE813
:10057000F04D00F047B830B50B4601460020202270
:10058000012409E021FA02F59D4205D303FA02F5A0
:10059000491B04FA02F52844151EA2F10102F1DC00
:1005A00030BD202A04DB203A00FA02F10020704717
:1005B0009140C2F1200320FA03F3194390407047A1
:1005C000202A04DB203A21FA02F00021704721FAA8
:1005D00002F3D040C2F1200291400843194670470F
:1005E000202A06DBCB17203A41FA02F043EAE073F7
:1005F00006E041FA02F3D040C2F1200291400843E4
:100600001946704710B5141E73F1000408DA401C37
:1006100041F1000192185B411A4301D120F0010021
:1006200010BD2DE9F04D92469B4611B1B1FA81F211
:1006300002E0B0FA80F220329046FFF7B2FF0446A3
:100640000F4640EA0A0041EA0B0153465A46084366
:1006500013D0114653EA010019D0C8F140025046A8
:10066000FFF7AEFF05460E46504659464246FFF795
:1006700098FF084305D0012004E020463946BDE834
:10068000F08D0020054346EAE0762C4337430A9874
:100690006305E40AA0EB08000022FD0A44EA47547F
:1006A0000A3002D500200146E9E701051019694129
:1006B000DDE9084500196941BDE8F04DA2E7C1F345
:1006C0000A52C1F3130140F2FF3341F480119A4200
:1006D00002DA00200146704740F233439A42A2F208
:1006E000334202DC5242FFF76BBFFFF75ABF0000F4
:1006F00030B5041E71F1000404DB4FF000444042A9
:1007000064EB0101141E73F1000405DB1C464FF07D
:100710000043524263EB0403994208BF904230BD4C
:10072000064C074D06E0E06840F0010394E807003E
:1007300098471034AC42F6D3FFF72CFD104E00085A
:10074000304E000810B50146806A826D12F0500FDD
:1007500005D0826DD20623D500F0FBFA10BD816D65
:1007600041F40071816501680A68120715D5CA68ED
:1007700012F4406F0ED1C968890400290ADB816D2B
:1007800021F480718165816DC90403D4816D41F0CC
:100790000101816500F0B8FA10BDC9688907ECE76E
:1007A000006D426BBDE810400846104710B5806AE6
:1007B000816D41F040018165C16D41F00401C16569
:1007C00000F0C7FA10BD10B5806A00F0C1FA10BD84
:1007D000F8B50446002000902068816801F003010C
:1007E000012902D10168C90735D181681B4A11422C
:1007F00022D18168D5432940491C81601848194994
:100800000068B0FBF1F000EB8000400000E0401E0B
:1008100000900028FBD100F069FE064616E08168D2
:1008200011F0010F03D181682940491C816000F05B
:100830005DFE801B022809D9A06D40F01000A06564
:10084000E06D40F00100E0650120F8BD206801681E
:10085000C943C907E3D10020F8BD00003F00008074
:100860003000002080841E00FEE70000014800F0F8
:1008700026BC00006404002030B590F8444004F029
:100880001C050124AC40056C6C60046863608368DF
:10089000102B036803D099600068C26030BD9A6075
:1008A0000068C16030BD704710B54FF4006000F0C3
:1008B0003FFDBDE810404FF4005000F039BD082066
:1008C00000F036BD102000F033BD202000F030BD18
:1008D00001225103014800F003BE00000008004857
:1008E00000224FF40051014800F0FABD0008004812
:1008F000012210214FF0904000F0F2BD00221021A3
:100900004FF0904000F0ECBD2DE9F843002704467D
:10091000009790F85400DFF8C8930D46B8460128B8
:1009200011D0012684F85460206802F0DDFA60B12D
:10093000A06D40F02000A0655FF0010784F85480AE
:100940003846BDE8F8830220FBE76868052812D81E
:10095000022807D0032807D0042807D0052807D08D
:10096000062007E00C2005E0122003E0182001E03B
:100970004FF480706860A9884FF4407C01F44073A4
:100980009CFAACFCBCFA8CFC206823FA0CF300EB5C
:1009900083002A6801F01F014FF01F0C0CFA01FCC4
:1009A000036BC2F3846223EA0C038A40134303639C
:1009B0002068816811F00C0F1CD1AA68296802F028
:1009C00097FA20686969C268C2F3C1025200914077
:1009D0002A69042A0FD000EB82002B68DFF804C3D9
:1009E000026E03F0F84302EA0C020B431A4342F092
:1009F0000041016672E0002102F070FA40032068B5
:100A00004FF0000173D002F069FA90FAA0F0B0FA4A
:100A100080F1286842036FD090FAA0F0B0FA80F01D
:100A2000814204D100221146206802F084FA01219B
:100A3000206802F053FA400320684FF001015ED0B5
:100A400002F04CFA90FAA0F0B0FA80F12868420364
:100A50005AD090FAA0F0B0FA80F0814204D100227E
:100A60000121206802F067FA0221206802F036FABC
:100A7000400320684FF0020149D002F02FFA90FAAB
:100A8000A0F0B0FA80F12868420345D090FAA0F0B7
:100A9000B0FA80F0814204D100220221206802F0E5
:100AA0004AFA0321206802F019FA400320684FF047
:100AB000030134D002F012FA90FAA0F0B0FA80F1FB
:100AC0002868420330D090FAA0F0B0FA80F081425A
:100AD00004D100220321206802F02DFA20688168E9
:100AE00001F00301012925D121E000E004E002F03A
:100AF000F5F9C0F384618CE7C0F3846090E702F0FD
:100B0000EDF9C0F38461A1E7C0F38460A5E702F0CA
:100B1000E5F9C0F38461B6E7C0F38460BAE702F098
:100B2000DDF9C0F38461CBE7C0F38460CFE70168EF
:100B3000C9077DD12A7B296850F8B03FC1F3120C58
:100B400023EA0C0302F0200C4FF0FF3202FA0CF201
:100B50000A40C2F312010B430360E96849456AD1B8
:100B60002868410317D090FAA0F1B1FA81F1491C2D
:100B700009294FEA40312DD800290FD090FAA0F171
:100B8000B1FA81F101F1010106FA01F609D100BFC4
:100B9000C0F3846109E0C0F38461E8E7C0F38461D5
:100BA000F0E790FAA0F1B1FA81F101F1010146EA12
:100BB000816102D1C0F3846003E090FAA0F0B0FA42
:100BC00080F000EB40004FF4401202EB005041EA8D
:100BD00000012AE000290CD090FAA0F1B1FA81F1CD
:100BE00001F1010106FA01F606D100BFC0F38461EC
:100BF00006E0C0F38461F3E790FAA0F1B1FA81F165
:100C000001F1010146EA816102D1C0F3846003E091
:100C100090FAA0F0B0FA80F0334A00EB400002EB0B
:100C2000005041EA000141F00071AA68206800E02C
:100C300001E002F05DF92D4E29682D4B2D4D2E4817
:100C4000B14204D1826802F0E07212020FD59942DB
:100C500004D1826802F0E072D20108D5A9427FF483
:100C60006DAE826802F0E07252023FF567AE234A31
:100C7000B1421AD121689142F1D18168826801F0B4
:100C8000E07141F4000122F0E0720A4382601C48E6
:100C90001C490068B0FBF1F0C0EB0010C00000E0A0
:100CA000401E00900028FBD148E6994208D12168F7
:100CB0009142F9D1816801F0E07141F0807109E061
:100CC000A942F1D121689142EED1816801F0E07131
:100CD00041F48001826822F0E0720A4382602DE6CE
:100CE00000007F4000F0FF03000050FE000052C7EC
:100CF000000084CB01000080000304500000045079
:100D00003000002080841E0030B50D49884215D186
:100D10000C4C0D4A0C4B0020A18812889FED0B0A49
:100D2000103300E010B98A4200D9114603EB800568
:100D3000401C85ED000A0728F4DBA18030BD0000CF
:100D4000F800002010000020240400200000000013
:100D500070477047F8B54FF0000504002E46009527
:100D600002D0A06D10B107E00120F8BD204600F0D0
:100D7000BFF8E66584F8546020688168C1F340716B
:100D800019B18168534A1140816020688168C1F3BC
:100D9000007191B98168504A114041F080518160E1
:100DA0004E484F490068B0FBF1F000EB8000400076
:100DB00000E0401E00900028FBD120688168C1F34C
:100DC000007141B9A16D41F01001A165E16D41F0E3
:100DD0000101E1650125A16DC90602D402F084F884
:100DE00030B1A06D40F01000A06501252846F8BD87
:100DF000A06D20F4807040F00200A065206881683A
:100E000001F00301012902D10068C00706D135486D
:100E10006168826822F47C120A438260E168A06BF8
:100E2000E2690843A16841EA42310843616A40EA45
:100E30000140012904D1218D2B4A02EB4141084395
:100E4000E16A29B101F47071226B014342EA0100A9
:100E50002168CA68254B1A400243CA60206881682D
:100E600011F00C0F12D1A169626B890341EA4202B1
:100E7000C16844F2020399431143C160E06B012849
:100E80000CD02068016921F001010161206901286D
:100E90002068016B21F00F0111D013E0D4E910019B
:100EA0000843D4E912121143084321680A6940F249
:100EB000FC739A43104340F001000861E6E7226AA0
:100EC000521E11430163A06D20F0020040F00100AA
:100ED000A0658BE7C0FFFF5FC0FFFF7F30000020F1
:100EE00080841E00000304500000FEFF07C0F0FFD6
:100EF00070B506460068204986B0884239D11F483F
:100F0000C16C41F40051C164C06C0B2400F400506A
:100F100005903C2000258DE831006946184800F016
:100F200013FA01208DE8310069464FF0904000F03F
:100F30000BFA03208DE831006946124800F004FAEC
:100F4000124C1148C4E900058020A560C4E9035093
:100F5000400060618000A0612020C4E907052046B0
:100F600000F00AF918B1842109A002F052FF34659B
:100F7000A66206B070BD00000000045000100240E0
:100F800000080048000400480800024064040020F3
:100F90002E2E2F5372632F73746D33326C34787826
:100FA0005F68616C5F6D73702E6300002DE9F04126
:100FB000044616460F46006801F096FF18B1022558
:100FC0002846BDE8F08194F8540001280CD0012097
:100FD00084F854002046FFF7FBFB05004FF00000AB
:100FE00004D084F85400EBE70220EAE7A16D40F654
:100FF0000162914341F48071A165A16D21F48011DA
:10100000A165A16DC90404D5E16D21F00601E1657A
:1010100000E0E065226D1249D162226D1149116331
:10102000226D1149516322681C21116084F854001B
:101030002068416841F0100141602068C16841F0BA
:101040000101C160216833463A464031206D00F00D
:10105000F3F820688168054A1140091D8160AFE7F7
:1010600045070008C7070008AD070008C0FFFF7F5D
:1010700010B590F825100024022903D00421C16383
:1010800001241AE001680A6822F00E020A60016871
:101090000A6822F001020A6090F84410036C01F023
:1010A0001C02012101FA02F25A6080F82510002189
:1010B00080F82410816B01B18847204610BDF0B440
:1010C000016C0C6801680D6890F8442002F01C0661
:1010D000042202FA06F3234211D06B070FD50B68E6
:1010E0009B0603D40B6823F004030B6090F84410B4
:1010F00001F01C018A40016C4A60016B1DE0022373
:1011000003FA06F727424FF0000C4FF0010218D007
:10111000AF0716D50C68A40605D40C6824F00A04A1
:101120000C6080F8252090F8441001F01C018B40E1
:10113000016C4B6080F824C0C16A00291AD0F0BC51
:1011400008470823B340234214D02B0712D50B685D
:1011500023F00E030B6090F84410036C01F01C01A7
:1011600002FA01F15960C26380F8252080F824C09A
:10117000416BE2E7F0BC704770B568B12B4C036877
:1011800014212B4AA34209D22A4C1C44B4FBF1F18E
:101190008900C0E910210BE0012070BD234C64429E
:1011A0001C44B4FBF1F18900416420490839016411
:1011B000022180F825101C6847F6F0718C43D0E9B5
:1011C00002152943D0E9045635432943856929434B
:1011D000C5692943056A2943214319608168B1F52E
:1011E000804F19D0036C0F21934202D152F8A83FCF
:1011F00002E00E4AA032136890F8444004F01C0448
:10120000A1408B43136090F84430416803F01C0305
:1012100099401368194311600021C163012280F8CD
:10122000252080F82410084670BD00000804024004
:1012300000000240F8FFFDBF70B5044690F824009E
:10124000002501280CD0012084F8240094F82560A2
:101250000020012E06D084F824000225284670BD07
:10126000022070BD022684F82560E06320680668CD
:1012700026F0010606602046FFF7FEFA206B0028E4
:101280002068016802D041F00E0106E021F004015F
:1012900001602068016841F00A010160206801686E
:1012A00041F001010160D9E770B5044600F01EF974
:1012B0000546601C00D0641C00F018F9401BA042D9
:1012C000FAD370BD10B51749174C0122174B0828E7
:1012D0000CD010280FD0202814D0B0F5006F16D0F5
:1012E000B0F5005F18D00020186010BD0878401CD1
:1012F0000870022014E04878401C487003200FE07A
:101300001A6010BD8878401C88702270F8E7C87891
:10131000401CC870042003E00879401C08710620B6
:101320002070EDE724000020080000200C000020C1
:10133000044910B50A68024202D00860FFF7C2FFF4
:1013400010BD0000140401402DE9F84FDFF864B12E
:1013500000234FF0010C4FF0030A4FF00F090BF17F
:10136000040EA0E00CFA03F6324072D04C68022C56
:1013700001D0122C0ED1DC0800EB8408D8F82040F4
:101380005D07EF0E09FA07F5AC430D69BD40254333
:10139000C8F8205007685D0091F804800AFA05F447
:1013A00008F00308A74308FA05F848EA0708C0F858
:1013B00000804F68012F05D0022F03D0112F01D0DC
:1013C000122F11D18768D1F80C80A74308FA05F8CD
:1013D00048EA0708C0F808804768B7430E79C6F3A3
:1013E00000169E403E434660C668A6438C68AC40EB
:1013F0003443C4604C68E40054D52F4C256E45F04E
:1014000001052566246E23F0030504F00104009411
:101410002A4C2E19B4689D072F0F09FA07F5AC4323
:10142000B0F1904F04D0264DA84203D1012512E01F
:10143000002510E0234DA84201D102250BE0224DEA
:10144000A84201D1032506E0204DA84202D104257F
:1014500001E027E00725BD402543B560DBF80040EB
:101460005D464E689443F60300D514432C60DEF8C5
:10147000004075464E689443B60300D514432C6073
:101480000C4D08352C684E689443F60200D5144381
:101490002C60084D0C352C684E689443B60200D57C
:1014A00014432C605B1C0A6832FA03F47FF45AAFD1
:1014B00000F00EB80004014000100240000001409E
:1014C0000004004800080048000C004800100048D4
:1014D00018BCBDE8E08F0069084000D001207047CB
:1014E0000AB181617047816270470000014800685D
:1014F000704700002C00002090F84120202A24D1C1
:1015000090F84020012A20D0012280F84020242297
:1015100080F841200268136823F001031360026819
:10152000136823F480531360026813680B4313603D
:1015300001680A6842F001020A60202180F8411027
:10154000002180F84010084670470220704790F84C
:101550004120202A22D190F84020012A1ED00122C9
:1015600080F84020242280F841200268136823F08C
:10157000010313600268136823F4706343EA0121D6
:10158000116001680A6842F001020A60202180F8B7
:101590004110002180F84010084670470220704733
:1015A00070B5040004D094F84100002528B109E08A
:1015B0004FF400706064012070BD84F840502046F4
:1015C00000F0E0F8242084F841002068016821F050
:1015D000010101606068216820F070600861206886
:1015E000816821F400418160E0680128A06807D08B
:1015F00040F4044021688860E068022803D006E0D7
:1016000040F40040F6E721684FF40060486020682D
:101610004168114A114341602068C16821F40041CA
:10162000C160D4E904010843A16940EA01202168AE
:10163000C860D4E907010843216808602068016890
:1016400041F0010101606564202084F841002563B8
:1016500084F84250002070BD008000022DE9F84F50
:10166000044690F84100DDF828A01F4690468B46BE
:1016700020287DD194F84000012879D0012084F8F9
:101680004000FFF733FF0646012200901923D103E3
:10169000204601F08FFBE8BB222084F84100102097
:1016A00084F8420000256564C4F82480678565637A
:1016B000618D3048FF274FF080784FF00079FF2987
:1016C00003D927853A46009038E0618D2185009046
:1016D00039E05946204601F057FB12E001F096FB35
:1016E000C0B92068416A606A421C62620170208D44
:1016F000401E80B22085618D491E6185618D01B1DA
:1017000068B1608D3246002851462046E6D101F08E
:10171000BFFB00E000E0D0B1012000F02FB853463D
:10172000002280212046009601F044FB0028F3D1DE
:10173000608DFF2804D927853A4600954346C8E7BF
:10174000608D2085009594F828204B46C1E72168DC
:101750002020C86121684A68074B1A404A6084F813
:10176000410084F8425084F840500020D5E7FFE75C
:101770000220D2E70024008000E800FE18BCBDE88B
:10178000E08F000000B500680E4987B0884216D18E
:10179000C0200090122001900120029003200390AD
:1017A0000420049069460848FFF7CEFD0748816D84
:1017B00041F400118165806D00F40010059007B0C0
:1017C00000BD00000054004000040048001002402A
:1017D00002480168491C0160704700002C0000208D
:1017E00010B5032000F088F8002000F005F800F0A4
:1017F00017F8002010BD000010B5044607484FF44C
:101800007A710068B0FBF1F000F0B5FF00222146CC
:10181000501E00F051F8002010BD000030000020E4
:101820001E4808B5016E41F001010166016E01F02C
:1018300001010091816D41F080518165806D00F062
:1018400080500090032000F057F8002211466FF0FE
:101850000B0000F031F8002211466FF00A0000F092
:101860002BF8002211466FF0090000F025F8002245
:101870001146501F00F020F800221146101F00F002
:101880001BF800221146901E00F016F80022BDE859
:1018900008401146501E00F00FB800000010024032
:1018A00000F01F02012191404009800000F1E0207A
:1018B000C0F8001170470000F0B40E4B1B680C46D6
:1018C000C3F30223C3F10705042D00D90425191D14
:1018D000072901D2002300E0DB1E012606FA05F1EC
:1018E000491E214099409E40761E16403143F0BC6F
:1018F00001F032BD0CED00E0064900F00702086877
:101900004FF6FF03184040EA0220034A10430860E4
:10191000704700000CED00E00000FA051549B0F535
:10192000007F0868C0F3412009D0022805D008686C
:1019300020F4C06040F480600860002070470128F7
:10194000FBD0086820F4C06040F4007008600A48CA
:101950000A4A0068B0FBF2F03222504300E0401E19
:1019600010B14A695205FAD448694005E5D503200B
:1019700070470000007000403000002040420F001F
:101980000248006800F4C06070470000007000402A
:101990000248016841F480710160704700700040A6
:1019A0002DE9F84F044600270088A84D3E46000563
:1019B00015D5606C60B1B0F5000F04D0B0F5400FE4
:1019C0002BD001270AE0E86840F48030E86024E08A
:1019D0000021201D01F0DCFC07001ED03E462068DF
:1019E00080033AD5A86D4FF00008C00009D4A86D57
:1019F00040F08050A865A86D4FF0010800F08050BD
:101A00000090DFF84CA2DAF8001041F48071CAF8B7
:101A10000010FFF76BFD814610E0D5F88800616C7F
:101A200020F440000843C5F88800D8E7FFF75EFDC2
:101A3000A0EB0900022801D9032705E0DAF800002D
:101A4000C005F3D5002F7DD04FEA0706B8F1000F8F
:101A500003D0A86D20F08050A8652078C00707D07B
:101A6000D5F88800216A20F003000843C5F88800F3
:101A70002078800707D5D5F88800616A20F00C002F
:101A80000843C5F888002078400707D5D5F88800B6
:101A9000A16A20F030000843C5F88800207880064D
:101AA00007D5D5F88800E16A20F440600843C5F8FE
:101AB00088002088800507D5D5F88800E16B20F4E0
:101AC00040200843C5F888002088400507D5D5F890
:101AD0008800216C20F440100843C5F88800207865
:101AE000400607D5D5F88800216B20F44050084304
:101AF000C5F888002078000607D5D5F88800616B06
:101B000020F440400843C5F888002088C00507D568
:101B1000D5F88800A16B20F440300843C5F8880050
:101B200020684FF0006700034FF0806850D5D5F86B
:101B30008800A16C20F040600843C5F88800A06CC4
:101B4000B84200E005E03BD1E86840F48010E8606E
:101B50003EE0D5F8900010F4407014D0A16D8142A1
:101B600011D0D5F89000D5F8901020F4407041F4D1
:101B70008031C5F89010D5F8901021F48031C5F867
:101B80009010C5F89000C00711D0FFF7AFFC0746D2
:101B900041F2883907E000BFFFF7A8FCC11B4945A7
:101BA00001D9032652E7D5F890008007F4D5D5F87F
:101BB0009000A16D20F440700843C5F8900045E7FF
:101BC000404505D10121201D01F0E2FB00B1064690
:101BD0002068400317D5D5F88800E16C20F04060FC
:101BE0000843C5F88800E06CB84204D1E86840F4C6
:101BF0008010E86007E0404505D10121201D01F07B
:101C0000C7FB00B106462088400411D5D5F88800EE
:101C1000216D20F040500843C5F88800206DB0F1D8
:101C2000805F05D10221201D01F0B2FB00B1064604
:101C30002088000406D555F8880F616D20F080409B
:101C400008432860304600F005B80000001002404C
:101C50000070004018BCBDE8E08F00002DE9F0479F
:101C60000F46050058D03E4E306800F00700B842DD
:101C700009D2306820F0070038433060306800F047
:101C80000700B84248D12878364CC0072CD0686885
:101C9000032811D0022812D0216898B149050029E3
:101CA0003ADAA16821F003010143A160FFF71EFCAD
:101CB000804641F2883910E021688901EFE7216808
:101CC0008903ECE78907EAE7FFF710FCA0EB0801BE
:101CD000494502D90320BDE8F087A068696800F093
:101CE0000C00B0EB810FEFD12878800705D5A068F4
:101CF000A96820F0F0000843A060306800F00700F9
:101D0000B8420BD9306820F00700384330603068A3
:101D100000F00700B84201D00120DCE72878400736
:101D200005D5A068E96820F4E0600843A060287841
:101D3000000706D5A068296920F4605040EAC10078
:101D4000A06000F03BF8A168074AC1F30311515CA1
:101D5000C840064908600020FFF74EFD0020BAE7A2
:101D60000020024000100240C84D00083000002052
:101D70000148006870470000300000200448054911
:101D800000688968044AC1F30221515CC840704769
:101D90003000002000100240084E000804480549A9
:101DA00000688968044AC1F3C221515CC840704789
:101DB0003000002000100240084E000830B52D49C8
:101DC000002318468A682C4C12F00C0F4FEA640569
:101DD00014D08A68C2F38102032A04D1CA6802F0CF
:101DE0000302012A0AD08A68C2F38102012A19D0AB
:101DF0008A68C2F38102022A16D016E00A68120726
:101E000004D4D1F89420C2F3032202E00A68C2F39A
:101E100003121A4B53F822308A6812F00C0F04D1C7
:101E2000184602E0204600E028468A68C2F3810294
:101E3000032A1DD1C868CA6800F00300C2F3021269
:101E4000521C022804D0032805D0B3FBF2F004E0B2
:101E5000B4FBF2F001E0B5FBF2F0CA68C968C2F366
:101E600006225043C1F34161491C4900B0FBF1F027
:101E700030BD0000001002400024F400D84D0008DE
:101E80002DE9F84304007DD02078FE4DC0065DD5D5
:101E9000A86810F00C0F0AD0A0690028286873D039
:101EA00040F001002860FFF721FB064655E0286856
:101EB000800702D5A0690028E5D0216A28680007BC
:101EC00003D5286800F0F00004E0D5F89400F02273
:101ED00002EA1010814216D9084601F0EFFA0028F4
:101EE00050D1286840F0080028602868216A20F056
:101EF000F000084328606868E16920F47F4040EA08
:101F00000120686015E0286840F008002860286813
:101F1000216A20F0F000084328606868E16920F435
:101F20007F4040EA01206860206A01F0C7FA00287B
:101F3000D6D1FFF743FFA968D34AC1F30311515C1F
:101F4000C840D24908600020FFF756FC2CE000BFD3
:101F5000FFF7CCFA801B02287ED828688007F7D5C7
:101F6000286840F0080028602868216A20F0F00006
:101F7000084328606868E16920F47F4040EA012056
:101F8000686011E0B2E0FFE720F001002860FFF791
:101F9000ADFA064605E000BFFFF7A8FA801B02284D
:101FA000DAD828688007F7D42078C00748D0A86816
:101FB000C0F3810002281DD0A868C0F38100032867
:101FC00003D1E868C043800714D06068B0F5803F53
:101FD00017D0B0F5A02F286817D020F480302860E3
:101FE000286820F4802028606068E0B1FFF77EFA5E
:101FF000064614E02868800322D56068002875D062
:102000001EE0286840F48030EDE740F4802028602E
:10201000F7E700BFFFF76AFA801B64289CD828689E
:102020008003F7D50CE0FFF761FA064605E000BF34
:10203000FFF75CFA801B64288ED828688003F7D4E9
:102040002078800742D5A868C0F38100012816D007
:10205000A868C0F3810000E0CEE0032804D1E8685E
:1020600000F0030002280AD0E068002828681DD08C
:1020700040F480702860FFF739FA06460BE02868C4
:1020800040050BD5E0680028B9D007E0FFF72EFA2D
:10209000801B022884D828684005F7D56868217C11
:1020A00020F0F85040EA016068600FE020F4807092
:1020B0002860FFF71BFA064605E000BFFFF716FA97
:1020C000801B0228AAD828684005F7D4207800078A
:1020D00029D560690028D5F8940013D040F001009C
:1020E000C5F89400FFF702FA064606E01DE100BFBE
:1020F000FFF7FCF9801B02287ED8D5F894008007F2
:10210000F6D510E020F00100C5F89400FFF7EEF9D5
:10211000064604E0FFF7EAF9801B02286CD8D5F8E0
:1021200094008007F6D42078400761D5A86D00267A
:10213000C00008D4A86D40F08050A865A86D0126A5
:1021400000F08050009052480168C90511D4016820
:10215000804641F480710160FFF7C8F9074604E04A
:10216000FFF7C4F9C01B022846D8D8F80000C00504
:10217000F6D5A068012815D00528D5F8900016D00E
:1021800020F00100C5F89000D5F8900020F0040080
:10219000C5F89000A06841F28838B8B1FFF7A6F9F9
:1021A00007460EE0D5F8900040F00100F0E740F05F
:1021B0000400C5F89000F5E7FFF798F9C11B414509
:1021C0001AD8D5F890008007F6D50CE0FFF78EF905
:1021D000074604E0FFF78AF9C11B41450CD8D5F842
:1021E00090008007F6D41EB1A86D20F08050A8653D
:1021F0002078800629D500E089E0606A0028D5F8BB
:10220000980011D040F00100C5F89800FFF76EF972
:10221000064604E0FFF76AF9801B02287DD8D5F84E
:1022200098008007F6D510E020F00100C5F898006E
:10223000FFF75CF9064604E0FFF758F9801B022817
:102240006BD8D5F898008007F6D4A06AC8B1A96801
:10225000C1F38101032968D00228286820F080702A
:10226000286019D02868000103D4E86820F0030032
:10227000E860E86807490840E860FFF737F9044676
:102280004EE050E000100240C84D00083000002031
:1022900000700040FFFFEEFEFFF728F9064604E05D
:1022A000FFF724F9801B022837D828688001F7D46B
:1022B000206B54F82C1F000110380843218A1C4A57
:1022C000490802EB4151A26841EA02210843217DFD
:1022D0004FF07E42490802EB41610843217B40EA0E
:1022E000C160E860286840F080702860E86840F0CD
:1022F0008070E860FFF7FAF8044604E0FFF7F6F8AC
:10230000001B022809D828688001F7D50BE004E0FB
:10231000FFF7ECF8001B022802D90320BDE8F88380
:1023200028688001F4D40020F8E70120F6E70000D7
:102330000000E0FF0068503050F8210070470000B6
:1023400010B500680B4641680D480140080CD87074
:10235000C1F304245C7001F03F049C70C1F342316E
:10236000197052B901F0E8F8D870587801F0E4F823
:102370005870987801F0E0F89870002010BD0000C7
:102380003FFFFF0010B50B460168896A596001687C
:102390000969C1F30E019960006801680E480140A7
:1023A000C1F305401870C1F306245C7001F07F048E
:1023B0009C70402404EA1141D97052B901F0BCF874
:1023C0001870587801F0B8F85870987801F0B4F89F
:1023D0009870002010BD00007F7F7F0070B5040062
:1023E00003D094F8210010B107E0012070BD002057
:1023F00084F82000204600F04DF8022084F82100E7
:102400002168CA204862216853204862204601F0B2
:102410009DF8FF25042618BB206881681C4A1140DE
:102420008160216888686268A369104322691A4341
:10243000104388602168E06808612068016922898A
:1024400041EA024101612068C16821F08001C16058
:1024500020688068800608D4204600F02BF820B160
:102460002068456284F82160BFE72068C16C21F0D4
:102470000301C1646169E06908432168CA6C1043C3
:10248000C86420684562012084F82100002070BDE6
:10249000BFFF8FFF00680549884205D1044850F806
:1024A000901F41F400410160704700000028004087
:1024B0000010024070B504460068C16821F0A00118
:1024C000C160FFF713F805464FF47A7607E000BFC6
:1024D000FFF70CF8401BB04201D9032070BD206803
:1024E000C0688006F4D5002070BD2DE9F0410400DD
:1024F00005D00025A56294F85D0018B107E0012021
:10250000BDE8F08184F85C50204600F045F80223D5
:1025100084F85D302068016821F040010160E068C6
:102520004FF4E066B04201D9002101E04FF4805140
:10253000B0F5706F02D0B04200D0A562276B0122C7
:1025400027B9B04201D9236300E02263D4E9010333
:102550001843D4E9043633431843238B03F4007340
:102560001843E3691843236A1843A36A184323688E
:102570001860636B606AA66918430427E36807EA7A
:10258000164633431843084321684860256684F89B
:102590005D200020B4E7000000B500680E4987B058
:1025A000884217D10D48016E41F480510166006EDA
:1025B000694600F480500590E020009002200190D0
:1025C0000020029003200390052004904FF09040DB
:1025D000FEF7BAFE07B000BD003001400010024017
:1025E0002DE9F84F044690F85C00002698461746FF
:1025F0000D4601280DD04FF0010A84F85CA0FEF7CB
:1026000075FF834694F85D00B146012804D0022688
:102610009BE0022000F09FB8002D73D0002F71D0F6
:10262000032084F85D00C4F86090A563A787E7875E
:10263000C4F84090A4F84490A4F84690C4F8509090
:10264000C4F84C90A068B0F5004F04D12068016830
:1026500041F48041016020680168490603D40168A3
:1026600041F040010160E068B0F5E06F606823D997
:1026700010B1E08F01281BD1216835F8020BC8602A
:1026800006E020688168890706D535F8021BC1601D
:10269000E08F401EE0870BE0B8F1000F3FD0B8F1AB
:1026A000FF3F05D0FEF722FFA0EB0B01414536D2DC
:1026B000E08F0028E5D137E010B1E08F012830D15C
:1026C000E08F012804D9216835F8020BC86010E0BA
:1026D000216815F8010B087311E0E08721E02068FC
:1026E000816889070FD5E18F012905D935F8021BCB
:1026F000C160E08F801EF0E715F8011B0173E08FC9
:10270000401EEAE720E0B8F1000F08D0B8F1FF3F23
:1027100007D0FEF7EBFEA0EB0B01414501D30326EA
:1027200013E0E08F0028DAD15A464146204600F0F7
:102730002AFF08B120202066A06818B92068C16867
:1027400080680090206E00B1012684F85DA084F8B6
:102750005C9030465EE718BCBDE8E08F4FF0E021AA
:102760000428086903D020F004000861704740F095
:102770000400FAE7704710B5401EB0F1807F01D326
:10278000012010BD4FF0E02460610F21601700F0C0
:10279000E3FD0020A06107202061002010BD10B5DE
:1027A000FFF7E8FF10BD704710B50F490F4C884286
:1027B00001D10FA112E01249884206D164221149C9
:1027C0000F4800F09BF910A108E0134988420AD194
:1027D00064221249104800F091F911A12046BDE889
:1027E000104002F0B7B910BD9C0200200038014033
:1027F0000D0A204572726F7220554152543200000A
:1028000014030020CA0500200D0A204572726F7261
:102810002055415254330000AC01002064050020D3
:102820000D0A204572726F7220686C707561727447
:10283000310000002DE9F04102680446D0691168BA
:10284000936810F00F0F4FF000055BD003F0010606
:1028500001F49077374369D0C70707D0CF0505D576
:1028600001271762626F42F001026267820708D592
:10287000DA0706D0276802223A62626F42F0040249
:102880006267420708D5DA0706D0236804221A6275
:10289000626F42F00202626702070AD501F020026D
:1028A000324306D0236808221A62626F42F008029F
:1028B0006267626F002A32D0800605D5880603D58C
:1028C000216E09B120468847606F000703D4206855
:1028D0008068400625D5204601F0C0F82068816850
:1028E000490619D5816821F040018160E06E98B1F8
:1028F00020498163E06EFEF7BBFB00280FD0E06E3D
:10290000816B06E0860611D58E060FD5216E1EE07E
:102910002046BDE8F04108472046FFF745FFBDE8E7
:10292000F0812046FFF740FF6567F8E7C60209D54A
:102930005B0207D54FF4801010622046BDE8F041DD
:10294000FFF731BF030605D50B0603D5616E0029DD
:10295000DED1E4E74006E2D54806E0D5116820461E
:1029600021F040011160202184F87110656600F0AB
:1029700097F9D4E7493A000810B5040003D094F859
:10298000710010B107E0012010BD002084F8700034
:10299000204600F027F8242084F8710020680168A0
:1029A00021F001010160204601F0C4F80128EBD0BC
:1029B000606A10B1204600F0B5FF2068416821F43C
:1029C000904141602068816821F02A01816020687F
:1029D000016841F0010101602046BDE8104001F0AE
:1029E00005B80000F0B505683D4800233D490322C5
:1029F000022487B0854218D1C86D40F00100C86537
:102A0000C86D029300F001000590CDE90024082074
:102A1000CDE9032069463448FEF796FC00221146B2
:102A20004620FEF749FF46201DE0304F07264FF0B5
:102A30009040BD421BD10D6E45F480450D66096E78
:102A4000CDE9023201F4804105914FF4C061CDE936
:102A5000001404966946FEF777FC002211462520F3
:102A6000FEF72AFF2520FEF71BFF07B0F0BD204F21
:102A7000BD4217D18D6D45F400358D65896DCDE969
:102A8000023201F4003105910C21CDE900140496C5
:102A90006946FEF759FC002211462620FEF70CFF7E
:102AA0002620E0E713488542DFD1886D40F480207E
:102AB0008865886DCDE9023200F4802005904FF4DE
:102AC0004060CDE90004694604960B48FEF73CFCE3
:102AD000002211462720FEF7EFFE2720C3E7000063
:102AE000008000400010024000080048003801400B
:102AF00000440040004800400004004830B590F811
:102B00007230202B4AD1B1B1AAB190F87030012BAC
:102B100044D0012380F870304165A0F85820A0F817
:102B20005A20002202661D038168FF23A94207D1B3
:102B3000016911B10CE0012030BD40F2FF110DE040
:102B40007F2419B1B1F1805F05D009E0016901BBB3
:102B5000A0F85C3004E00169D9B13F21A0F85C1015
:102B60004267222180F8721001688B6843F00103EC
:102B70008B608168A94201D1016969B10849016688
:102B800080F870200068016841F4907101600020B5
:102B900030BDA0F85C40E3E70249F0E7022030BD19
:102BA000D93A00087D3A00080B49884203D1322205
:102BB0000A4909480CE00A49884203D164220949BC
:102BC000074805E00849884204D1642207490648BD
:102BD000FFF794BF704700009C020020AC04002067
:102BE000AC0100206405002014030020CA05002069
:102BF0002DE9F843044690F871001F4616460D462D
:102C000020284BD1C5B1BEB194F87000012845D041
:102C1000012084F870004FF00008C4F8748021206F
:102C200084F87100FEF762FCA4F850608146A4F8B5
:102C300052604FF4805615E00120BDE8F8838021F2
:102C4000204601F0A1F8D8B9A068B04201D12069AE
:102C5000C0B115F8010B21680885B4F85200401E78
:102C6000A4F85200B4F852004B464FF0000200970F
:102C70000028E4D14FF04001204601F085F830B142
:102C80000320DAE735F8020BC0F30800E3E7202061
:102C900084F8710084F870800020CEE70220CCE731
:102CA0007047FEE701688A69D243920701D4002287
:102CB0008A6200688169C943C90703D0816941F00C
:102CC00001018161704700002DE9F0410446006870
:102CD00090460E468069C043C00633D400252027A5
:102CE00020688069C043800615D5701CF8D0FEF7B7
:102CF000FDFBA0EB0800B04201D8002EF0D154F843
:102D0000440F40F0200044F804096770A570257056
:102D10000120BDE8F08121681020C8612068C761EA
:102D20002046FFF7BFFF54F8440B4168064A1140A4
:102D30004160206840F0040044F820096777A577D7
:102D40002577E5E70020E4E700E800FE1CB50C4627
:102D50000021019102210B460091014601AA084879
:102D6000FEF77CFC0749087045B99DF804009DF802
:102D700005100007800D40EA9100206028461CBD28
:102D80006001002010000020F0B50568059C68680F
:102D90004FF48066064FC1F3090106EA545641EA32
:102DA00002413E431943B043214308436860F0BDEC
:102DB000FF63FF032DE9F0411D4617460E4604460A
:102DC000DDF8188008E0681C06D0FEF78FFBA0EB4A
:102DD0000800A8420BD855B12068806936EA000087
:102DE00012D00020B842EED00020BDE8F08154F8A7
:102DF000440F40F0200044F80409202060700020B7
:102E0000A07020700120F0E70120EBE72DE9F041F0
:102E1000002690460F460446202525E042463946C6
:102E20002046FFF751FF78BB20688069C0438006C9
:102E300013D420688169C943490701D4218DC1B9E0
:102E4000C56154F8440B4168104A1140416044F890
:102E500020696577A677267716E0FEF747FBA0EB9B
:102E60000800B84208D83FB120688069C0434007D5
:102E7000D4D40020BDE8F08154F8440F40F0200085
:102E800044F80409657026700120F3E700E800FEAD
:102E900070B516460D4604460DE0324629462046DA
:102EA000FFF712FF08B1012070BDFEF71FFB801B6A
:102EB000A84207D835B120688069C0438006ECD4A9
:102EC000002070BD54F8440F40F0200044F804097D
:102ED000202060700020A0702070E4E700EB8100EB
:102EE000006E00F0F84070478068C0F380007047C3
:102EF00070B54FF0007401F0007394FAA4F4B4FAC2
:102F000084F4E3404FF0F87494FAA4F501F0F871FA
:102F1000B5FA85F500EB830021FA05F50726AE40EA
:102F200094FAA4F44369B4FA84F4E140B3438A40C8
:102F30001343436170BD00EB8100016E21F000413D
:102F400011430166704700000148FFF773BC0000A1
:102F5000AC01002010B5364886B034490024E0E8C2
:102F60000214012110C00822E0E80241E0E8022436
:102F7000072216C060E80A14C0E90C418463C463E8
:102F80002B48FDF7E7FE00B1FEE72A480090062037
:102F9000019002907F2003900420CDE9040469464B
:102FA0002348FDF7B1FC00B1FEE7234800900C2058
:102FB000019069461E48FDF7A7FC00B1FEE71F48D7
:102FC00000901220019069461948FDF79DFC00B160
:102FD000FEE71B4800901820019069461448FDF751
:102FE00093FC00B1FEE7174800904FF48070019009
:102FF00069460F48FDF788FC00B1FEE712480090D3
:103000004FF48370019069460948FDF77DFC00B1DB
:10301000FEE70E4800908015019069460448FDF7D0
:1030200073FC002800D0FEE706B010BD000004507D
:10303000F80000200800900C1000C0102000F014D0
:10304000002090360040C03A0080F03E000021434E
:103050002DE9F0475C4886B0C16C41F00401C164C1
:10306000C16C01F004010591C16C41F08001C164A3
:10307000C16C01F080010591C16C41F00101C16496
:10308000C16C01F001010591C16C41F00201C16404
:10309000C16C01F002010591C16C41F00801C164ED
:1030A000C06C4A4E00F008004FF45F5405900022B7
:1030B00021463046FEF714FA4FF09049002241F2C3
:1030C00002014846FEF70CFA012210214846FEF79D
:1030D00007FADFF8FC804FF40347002239464046E8
:1030E000FEF7FEF9DFF8ECA0012204215046FEF7BE
:1030F000F7F90125CDE900450024029469463046E0
:103100000394FEF721F941F202100090CDE9015439
:10311000694648460394FEF717F91020CDE90005EB
:10312000CDE9025469464846FEF70EF92803CDE979
:103130000004694640460294FEF706F9264E42F224
:103140003800CDE90006694602944046FEF7FCF8D7
:103150000097CDE90154694640460394FEF7F4F820
:10316000E802CDE90006694602944846FEF7ECF80D
:103170000420CDE90005CDE9025469465046FEF72A
:10318000E3F8002211460920FEF796FB0920FEF71E
:1031900087FB002211460A20FEF78EFB0A20FEF76D
:1031A0007FFB002211461720FEF786FB1720FEF753
:1031B00077FB002211462820FEF77EFB2820FEF731
:1031C0006FFB06B0BDE8F087001002400008004821
:1031D00000040048000C004800001110114810B510
:1031E0000F4901601049416000210122C0E902122B
:1031F000016141618161C1610162FEF7D1F900B1F4
:10320000FEE700210748FEF777F900B1FEE700214D
:103210000448FEF79CF9002800D0FEE710BD00002E
:103220000054004060010020826650000B4810B539
:10323000094901604FF416514160002181600C2260
:10324000C160C0E90412816101624162FFF794FB31
:10325000002800D0FEE710BD00800040AC01002037
:10326000114910B50F4A0A604FF48272C1E901207A
:103270004FF4E060C86000204FF400720861C1E9BB
:103280000502C861086207224862C1E90A020863B0
:10329000082048630846FFF728F9002800D0FEE719
:1032A00010BD000000300140B00300200C4810B5F4
:1032B0000A4901604FF4E1314160002181600C2234
:1032C000C160C0E904128161C16101624162FFF71E
:1032D00053FB002800D0FEE710BD0000003801407D
:1032E000240200200C4810B50A4901604FF46141E6
:1032F0004160002181600C22C160C0E9041281613B
:10330000C16101624162FFF737FB002800D0FEE790
:1033100010BD0000004400409C0200200C4810B585
:103320000A4901604FF4E1314160002181600C22C3
:10333000C160C0E904128161C16101624162FFF7AD
:103340001BFB002800D0FEE710BD00000048004035
:1033500014030020FEE770470907090E002806DA6B
:1033600000F00F0000F1E02080F8141D704700F11C
:10337000E02080F80014704701464FF47A73012270
:103380000148FFF72DB90000B0030020704700008E
:103390002DE9F041444C05468846E0680026810747
:1033A00028680DD0E16801F00301814216D1A8B16F
:1033B000E0686968C0F30210401C88420ED120E02A
:1033C000012804D0022805D0032807D108E021688D
:1033D000890701E021684905002907DB01265FE034
:1033E0002168890302D421684903F5E7E1686A6826
:1033F0006FF00F0321F0730103EB0212114301433D
:10340000E160206820F080602060FEF76FF80746DA
:1034100005E000BFFEF76AF8C01B022837D8206815
:103420000001F7D4B8F1000F18D0B8F1010F1DD08A
:10343000287D4FF07E41400801EB4060A96840EADA
:1034400001202169194A114008432061206840F099
:1034500080602060FEF74AF807461AE0A868297BDA
:10346000000240EAC1602169114AECE7288A11494B
:10347000400801EB4050A96840EA012021690E4A4A
:10348000E1E700BFFEF732F8C01B022801D903268E
:1034900006E020680001F5D52069A969084320618C
:1034A0003046BDE8F081000000100240FF80FFF9C7
:1034B000FF80FF070000E0FFFF809FFFF8B51C4D75
:1034C00006460024A86DC00002D5FEF759FA0DE0AB
:1034D000A86D40F08050A865A86D00F08050009065
:1034E000FEF74EFAA96D21F08051A965B0F5007F75
:1034F00004D0802E07D94FF003040AE0802E08D9AB
:10350000A02E01D804E001D1022402E0702E00D1E7
:1035100001240848016821F0070121430160006887
:1035200000F00700A04201D00120F8BD0020F8BD46
:103530000010024000200240010901EB810100F06F
:103540000F0000EB4100C0B27047000070B50446A8
:103550000068C168490614D44FF0FF31C160FDF71F
:10356000C5FF05464FF47A7607E000BFFDF7BEFFC2
:10357000401BB04201D9032070BD2068C0684006DE
:10358000F4D5002070BDF8B515460E460B460092E6
:10359000044600224FF4C05100F019F888B93346B0
:1035A000002280212046009500F060F848B933469B
:1035B00000224FF4C0612046009500F008F8002872
:1035C00004D0206E40F0200020660320F8BD2DE9D5
:1035D000F8431D4617460E4604464FF4C068DDF812
:1035E00020903CE0464505D127B9007B8DF80000CE
:1035F0009DF80000681C32D02DB1FDF777FFA0EBDD
:103600000900A8422BD32068416821F0E001416005
:103610006068B0F5827F0BD1A068B0F5004F02D092
:10362000B0F5806F04D12068016821F0400101608D
:10363000A06AB0F5005F09D12068016821F400514B
:1036400001602068016841F400510160012084F8A4
:103650005D00002084F85C000320BDE8F88320684A
:1036600081683140B942BDD10020F6E72DE9F04133
:103670001D4617460E460446DDF8188034E0681CE7
:1036800032D02DB1FDF732FFA0EB0800A8422BD3BA
:103690002068416821F0E00141606068B0F5827FF8
:1036A0000BD1A068B0F5004F02D0B0F5806F04D107
:1036B0002068016821F040010160A06AB0F5005F58
:1036C00009D12068016821F4005101602068016877
:1036D00041F400510160012084F85D00002084F86D
:1036E0005C000320BDE8F0812068806836EA0000B5
:1036F00004D00020B842C2D10020F3E70120F9E74E
:103700007047000070B51A4C6068012824D100266B
:1037100066602178174D01291FD002291FD0032987
:103720001FD004291FD006291FD013A21621284616
:1037300000F070FBFDF7E2F801F016F801F028F850
:1037400001F0FCF92A460321012001F0B5F801F04F
:103750000BF9FDF7CDF8267070BD0CA2E6E710A2BC
:10376000E4E713A2E2E717A2E0E71BA2DEE700000E
:10377000080000208500002020554E4B4E4F574E2C
:1037800020494E54455252555054000020202020CC
:1037900050524553534544204D454E55200000009E
:1037A000202020205052455353454420555020009E
:1037B000202020205052455353454420444F574E1B
:1037C0002000000020202020505245535345442023
:1037D0004241434B20000000205052455353454482
:1037E000204D414E55414C20545241494C20525598
:1037F0004E20000010B5FDF7EBFFBDE81040FEF7CE
:10380000CEBF00002DE9F041AEB0FEF7C1F832485E
:1038100050F8901F21F018010160052017904FF417
:1038200080300125CDE9180502240326CDE9214683
:103830000727CDE925740C202794CDE9235017A83C
:10384000FEF71EFB00B1FEE70F20CDE928064FF082
:1038500000088020CDE92A08012128A8CDF8B080F1
:10386000FEF7FCF900B1FEE71C48CDF82880009077
:103870004FF080501490CDF8308000151690CDF8A0
:1038800020800820CDE90250CDF82C80019640051B
:10389000CDF82480CDE90640CDE904746846FEF7F2
:1038A0007FF800B1FEE74FF40070FEF737F800B183
:1038B000FEE7FEF75DFA4FF47A71B0FBF1F0FEF728
:1038C0005AFF0420FEF74AFF00221146501EFDF762
:1038D000F3FF2EB0BDE8F081001002406740020007
:1038E0000D48016841F4700101600C48016841F025
:1038F00001010160002181600268094B1A400260E9
:103900008214C260026822F480220260816102494E
:10391000C00380390860704788ED00E00010024065
:10392000FFFFF6EA90F82410C90706D001684A683C
:10393000836A22F400321A434A6090F824108907FF
:1039400006D501684A68C36A22F480321A434A6085
:1039500090F82410490706D501684A68036B22F4E1
:1039600080221A434A6090F82410090706D501689E
:103970004A68436B22F400421A434A6090F82410CC
:10398000C90606D501688A68836B22F480521A43FF
:103990008A6090F82410890606D501688A68C36B8E
:1039A00022F400521A438A6090F82410490611D577
:1039B00001684A68036C22F480121A434A60016C61
:1039C000B1F5801F06D101684A68436C22F4C00239
:1039D0001A434A6090F82410090606D501684A681F
:1039E000806C22F4002202434A607047F8B500263A
:1039F00004464667FDF77AFD0546206800686FF0CB
:103A00007E47000708D52B4600224FF400112046C0
:103A1000009700F0B9F960B92068006840070AD53E
:103A20002B4600224FF480012046009700F0ACF9AD
:103A300008B10320F8BD202084F8710084F87200DA
:103A400084F870600020F8BD10B5806A0021A0F8ED
:103A50005A10A0F85210FEF7A7FE10BD01680A68C0
:103A600022F490720A6001688A6822F001028A607A
:103A7000202180F8721000210166704710B5B0F85F
:103A80005C2090F872300168222B04D0088B40F043
:103A90000800088310BD898C436D11401980416D69
:103AA000891C4165B0F85A10491E0904090CA0F898
:103AB0005A10EFD101680A6822F490720A60016816
:103AC0008A6822F001028A60202180F872100021A9
:103AD0000166FFF769F810BD10B5B0F85C2090F8EA
:103AE00072300168222B04D0088B40F00800088354
:103AF00010BD898C1140426D531C43651170B0F8A4
:103B00005A10491E0904090CA0F85A10F0D1016896
:103B10000A6822F490720A6001688A6822F0010241
:103B20008A60202180F8721000210166FFF73CF8BE
:103B300010BD00002DE9F04104460168806823694A
:103B4000E669184363691025002733431843844A04
:103B50000B68844E334003430B6020684168E36880
:103B600021F44051194341602168A069914201D07C
:103B7000236A18438B6823F4306303438B607A4BCA
:103B800021687A4899420DD1D0F8880010F00300DE
:103B900006D0012839D0022835D0032838D136E0A4
:103BA000012535E0724B99420BD1D0F8880010F016
:103BB0000C0026D0042828D0082824D00C2827D18F
:103BC00025E06C4B99420BD1D0F8880010F0300002
:103BD00017D0102819D0202815D0302818D116E079
:103BE000914215D1D0F8880010F4406009D0B0F5AA
:103BF000806F0AD0B0F5006F05D0B0F5406F07D1E7
:103C000005E0002504E0022502E0042500E0082587
:103C1000594B00264FF4004091423DD135B1022D61
:103C200007D0042D07D0082D10D107E0FEF7A6F825
:103C300003E0184602E0FEF7C1F8A8B3626802EBA1
:103C40004201814202D8B0EB023F01D9012774E062
:103C5000DFF828815DB1022D0CD0042D13D0082D82
:103C6000F4D150082905401846F1000105E0FEF79F
:103C700085F80AE050084249F5E70023FCF7A2FA6C
:103C8000A0F5407155E0FEF799F86268010E030255
:103C9000500818187141F0E7E1694FF6EF7881425A
:103CA0002ED1092DD2D200E047E0DFE805F0060969
:103CB0001F05220505052500C8E7FEF75FF801E0AE
:103CC000FEF76CF84100606801EB5001B1FBF0F0C9
:103CD00080B2A0F110014145B8D84FF6F071014013
:103CE000C0F3420001432068C16026E025496068B6
:103CF000EAE7FEF763F8E5E74FF480316068E3E751
:103D0000092DA3D2DFE805F006091E0522050505E9
:103D100025009BE7FEF732F801E0FEF73FF8014689
:103D2000606801EB500100BFB1FBF0F080B2A0F180
:103D3000100141458AD82168C86026663846666603
:103D4000BDE8F081606803EB5001EDE7FEF736F85F
:103D5000E5E7616800EB5100B0FBF1F0E6E7000039
:103D600000800040F369FFEF00380140001002407E
:103D700000440040004800400024F400FFFC0F0015
:103D8000000024F40048E8012DE9F0419846174668
:103D90000E460446069D1DE0681C1BD02DB1FDF7A4
:103DA000A5FBA0EB0800A84214D92068016821F403
:103DB000D07101602068816821F0010181602020BC
:103DC00084F8710084F87200002084F870000320E9
:103DD000BDE8F0812068C06936EA000004D0002008
:103DE000B842D9D00020F3E70120F9E70148FEF7F7
:103DF00021BD0000240200200148FEF71BBD000089
:103E00009C0200200148FEF715BD000014030020AD
:103E1000FEE7FEE70FB41CB50246002007AC002900
:103E20000BD0491ECDE90021054B6A462146069874
:103E300000F0F4F8009A002111701CBC5DF814FB2E
:103E4000514700087CB5044600201D46164600294F
:103E50000BD0491ECDE90041044B6A462946304645
:103E600000F0DCF8009A002111707CBD5147000879
:103E700002E008C8121F08C1002AFAD17047704733
:103E8000002001E001C1121F002AFBD17047000091
:103E90002DE9FF5F82B00021DDE90430020DDDF87D
:103EA00040B0034318D044F61050A2F2FF32424310
:103EB0001514119801281FD0A5EB0B00401C5FEAD8
:103EC000000A4FF000064E4FDFF83891B0465046DA
:103ED00015D5CAF1000413E0119801244AA3012862
:103EE00001D16FEA0B010298119AC0E90031C0E9D3
:103EF000024206B000F08EB8CBF10000DFE70446C6
:103F00000021404A491842EB0450CDE9001012E06C
:103F1000E00707D032463B4640464946FCF747FAA1
:103F20008046894632463B4610461946FCF73FFA22
:103F300006460F466410002CEAD1DDE90401DDE9F4
:103F40000023BAF1000F06DAFCF731FA42464B467D
:103F5000FCF72DFA05E0FCF79FFA42464B46FCF7CA
:103F60009BFA04460E460022284BFCF7C1FB03D8FF
:103F70004FF0FF30014607E00022254B2046314636
:103F8000FCF766F9FCF79BFB102409E0002C0ADB28
:103F90000A220023FCF716F9039B30321A55641EDF
:103FA00050EA0102F2D1641C039AC4F111031444D3
:103FB000119A012A03D0012208430DD10AE00843D7
:103FC00004D000204FF0110B119072E7A3EB0B050A
:103FD0006D1E0DE05B4504DD4FF0000205F10105AB
:103FE00004E003DA4FF00002A5F10105002AECD04D
:103FF00002981199C0E90231C0E9004579E7000053
:10400000000014400000F03F300000000000F043CA
:104010000000E03F30BCBDE8C09F00002DE9FF4F2D
:1040200095B09B468946064600250FE2252877D1A4
:1040300000242746F84A0121059400E0044316F8BD
:10404000013F203B01FA03F01042F7D130782A28D3
:1040500011D06FF02F033078A0F13002092A16D862
:10406000059A44F0020402EB820203EB4202104480
:10407000761C0590EFE759F8042B0592002A03DA25
:10408000504244F40054059044F00204761C307809
:104090002E2816D116F8010F44F004042A280DD05A
:1040A0006FF02F023078A0F13003092B09D807EB0D
:1040B000870302EB4303C718761CF3E759F8047B28
:1040C000761C30786C280FD006DC4C2817D0682876
:1040D0000DD06A2814D104E0742810D07A280FD1AA
:1040E0000DE044F400140AE044F4801401E044F4C8
:1040F00040147278824202D104F58014761C761C3A
:10410000307866280BD013DC582877D009DC0028DB
:1041100075D04528F6D04628F4D047281AD19DE11D
:1041200018E0632835D0642879D0652812D195E14C
:10413000702873D008DC6728F1D069286FD06E280A
:104140000DD06F2806D1B5E073282CD0752875D016
:10415000782874D05A46179990476D1C75E1C4F3BE
:104160000250022809D003280DD0D9F800100428E5
:104170000DD00D6009F1040967E1D9F80010EA17C4
:10418000C1E90052F6E7D9F800100D80F2E70D7092
:10419000F0E719F8041B8DF8001000208DF80100DD
:1041A000EA46012003E059F804AB4FF0FF30610705
:1041B0004FF0000102D40DE008F101018846B94238
:1041C0000FDA8045F8DB1AF808100029F4D108E06E
:1041D00008F1010188468142FADB1AF8081000292B
:1041E000F6D105985B46A0EB080721463846179A9A
:1041F00000F097FA284400EB080507E04DE029E1BC
:104200000DE01AF8010B5A4617999047B8F10108CA
:10421000F7D25B4621463846179A13E142E00A225C
:104220000092C4F302524FF0000A022A08D059F853
:1042300004CB032A4FEAEC710AD00DE029E02AE012
:1042400009F1070121F00702F2E802C1914609E0F5
:104250000FFA8CFC4FEAEC71042A03D14FFA8CFC64
:104260004FEAEC71002907DA0A460021DCF1000C64
:1042700061EB02012D2202E0220504D52B228DF8EC
:104280000420012203E0E20701D02022F7E7904654
:1042900059E00A2102E010220DE010214FF0000A3F
:1042A00000910BE010224FF0000A44F004040827AC
:1042B000009203E008224FF0000A0092C4F3025279
:1042C000022A05D059F804CB0021032A08D009E0BE
:1042D00009F1070121F00702F2E802C1914605E069
:1042E0001FFA8CFC042A01D10CF0FF0C4FF00008DF
:1042F000220728D5702806D0009B83F0100353EACC
:104300000A0305D00EE040228DF80420012208E0C7
:104310005CEA010206D030228DF804208DF80500F9
:1043200002229046009B83F0080353EA0A030AD155
:104330005CEA010201D1620705D530228DF8042024
:104340004FF001087F1E582804D034A003900EA817
:1043500002900DE036A0F9E753466046009AFBF75D
:1043600031FF84460398825C0298401E02900270DE
:104370005CEA0100F0D1029806A9081A00F1200AAF
:10438000600702D524F4803400E00127574502DDA0
:10439000A7EB0A0000E0002000EB0A01009005985E
:1043A0004144401A0590E00306D45B462146179A23
:1043B000059800F0B6F90544002706E001A85A4622
:1043C000C05D179990476D1C7F1C4745F6DBE003E5
:1043D0000CD55B462146179A059800F0A2F90544D2
:1043E00004E030205A46179990476D1C0099481EEA
:1043F00000900029F5DC08E0029802995A460078FE
:10440000491C0291179990476D1CBAF10001AAF15D
:10441000010AF1DC65E10000092801003031323386
:1044200034353637383961626364656600000000F0
:1044300030313233343536373839414243444546DA
:104440000000000000F05BF90544761C307800287D
:104450007FF4ECAD19B0284600F04EB9620700D4E5
:10446000062709F1070222F0070CFCE80223E146C7
:1044700003F000485FEA080C02D00FF2702C0DE048
:104480005FEA045C02D50FF2682C07E05FEAC47CA7
:1044900002D00FF2602C01E0AFF2700C4FF0FF3849
:1044A00023F00043CDF850C065280CD006DC452829
:1044B00009D046281DD047283DD13DE0662818D0B8
:1044C00067287ED138E00021112F01DB112000E0A8
:1044D000781CCDE9000106A90EA8FFF7D9FCDDE99B
:1044E0000F010E9A03910021009207F1010A049135
:1044F0004DE04FF000400097CDE9011006A90EA84D
:10450000FFF7C6FCDDE90F0203920E9B1199002212
:10451000DDF80CA00093049211B9791C00EB010A9C
:10452000B7EB0A0004D4C0F1FF3007F1010A049090
:10453000AAEB0700019044E0012F00DA01270021D7
:10454000112F01DD112000E03846CDE9000106A958
:104550000EA8FFF79DFCDDE90F010E9A03910021E3
:1045600004910092BA4621070CD40399514500DA10
:104570008A46BAF1010F05DD009AAAF10101515CEA
:10458000302908D0B84202DA10F1040F06DA01210E
:10459000CDE9011015E0AAF10101E9E7002805DCE9
:1045A000049901440491AAEB000102E0411C514529
:1045B00000DD8A460499401A401C01904FF00040EB
:1045C0000290200704D40198504501DBCDF8048007
:1045D00000208DF84F0002980DF14F07B0F1004F09
:1045E00025D02B200E9002984FF0020800280CDAFC
:1045F000404202902D200E9007E00A210298FBF71E
:10460000BAFF3031029007F8011DB8F10001A8F19E
:104610000108F2DC02980028EFD1791E0E9808708C
:10462000307800F0200040F0450007F8020D12A895
:10463000C01B00F107081498007800B1012000EBBE
:104640000A01019801EBE07105984144401A401EAF
:104650000590E00306D45B462146179A059800F0C2
:1046600060F805441498007818B15A461799904795
:104670006D1CE00324D55B462146179A059800F08F
:1046800050F805441CE00498002807DBDDE903012D
:10469000884203DD0098405C179901E017993020AB
:1046A0005A469047049805F10105401C0490019872
:1046B000401E019004D12E205A46179990476D1C38
:1046C000BAF10001AAF1010ADDDC05E017F8010BDF
:1046D0005A46179990476D1CB8F10001A8F10108DE
:1046E000F4DC5B462146179A0598ABE62D000000E6
:1046F0002B0000002000000030BCBDE8C08F2DE979
:10470000F041044600251E461746880404D405E0FF
:1047100039462020B0476D1C641EF9D52846BDE8F7
:10472000F0812DE9F041044600251E469046C8035D
:1047300001D5302700E02027880404D505E0414654
:104740003846B0476D1C641EF9D52846BDE8F08197
:104750004A68002A06D00A68531C0B60107048682B
:10476000401E486070470000084810B54FF4806153
:104770000068FBF762FD00213F237F22084600F01E
:10478000D1F8BDE8104000F0EFB8000000000020B4
:1047900070B50024204600F041F8002000F035F804
:1047A0000025002000F012F86D1CEDB2802DF8D32A
:1047B000641CE4B2102CEDD370BD10B50446FCF7B8
:1047C0008FF82046BDE8104000F02EB810B5044622
:1047D000FCF77EF82046BDE8104000F025B8000048
:1047E00004487F2140680170002181703F2242709F
:1047F000C17070470000002000F00F00FFF7DDBF20
:10480000102141EA1010FFF7D8BF10B50446FFF79A
:10481000F7FF2046BDE81040FFF7EEBF00F00F00A5
:1048200040F0B000FFF7C9BF01B501216846FEF7AF
:10483000A3FD08BD2DE9F0411D4C0F4616466179D8
:104840000546082932D2A079B04202D8E079B042B8
:1048500000D22E264022481CB2FBF0F2BA4225D9E3
:1048600022792A44802A21D217FB0011491CCBB29D
:10487000D2B210FB07F0C1B2284600F053F80D4940
:10488000002009680FE000BF94F806C02368A6EB7B
:104890000C0C1CFB023205EBC713825C6D1C401C28
:1048A000CA54EDB2C0B222798242EDD8BDE8F0819F
:1048B00034000020000000202DE9F041114D044695
:1048C000174668790E4608281AD24FF040083A7801
:1048D000002A15D0314620467F1CFFF7ABFF287910
:1048E000641C0119CCB2611C0844802802D9002440
:1048F000761CF6B26879401CB8FBF0F0B042E6D8FE
:10490000BDE8F0813400002030B5054C039D2060E7
:1049100021716271A371E5710020207230BD000029
:104920003400002030B57F2800D97F207F2A00D9AD
:104930007F223F2900D93F213F2B00D93F23094C3B
:1049400064682578854200D92070A078904200D212
:10495000A2706078884200D96170E078984200D2F5
:10496000E37030BD000000202DE9F041154E002419
:10497000E10030680831427891421BD9C078B0EB31
:10498000C40F1BD32046FFF749FF30680078FFF7BC
:104990003CFF30680C4F057808E000BF386805EB35
:1049A000C411405CFFF712FF6D1CEDB230688078D7
:1049B000A842F3D2641CE4B2102CD9D3BDE8F04174
:1049C000FFF70EBF040000200000002008B5FCF730
:1049D00007FFFEF717FFFEF73BFB5248816C41F0E3
:1049E00001018164806C002200F0010000901146FA
:1049F0000B20FCF761FF0B20FCF752FFFEF756FC83
:104A0000FEF78CFCFEF76EFC0020FEF729FC474801
:104A100045497F2201600021C0E90112FF22C0E95F
:104A2000032141618161C161FDF7D8FC00B1FEE75E
:104A3000FEF7D4FBFEF78EFAFEF7F8FB3B490722A0
:104A40009831A1F54B70FCF7B1FA394E0122802163
:104A50003046FCF745FD37499E20FEF777F9354C87
:104A6000324A0C3C41F28835607088321023AA210A
:104A7000A2F52D700095FCF7F1FD2C4A20708832CC
:104A800010239F21A2F52D700095FCF7E7FD207003
:104A90004FF48077002239464FF09040FCF720FD1C
:104AA000012239463046FCF71BFD4FF40078002206
:104AB00041463046FCF714FD2846FCF7F5FB012281
:104AC00041463046FCF70CFD4FF47A752846FCF75A
:104AD000EBFB002239463046FCF702FD012241463D
:104AE0003046FCF7FDFC0C211048FDF723FC3E018D
:104AF000114FA0600D490022C4310C48FDF742FC63
:104B00000C490022091D0948FDF71AFC2846FCF74C
:104B1000CBFB31463846FCF7DEFCA070FEF7F2FD19
:104B2000E8E7000000100240002800408C0300204D
:104B3000000800481C0000200004004808B584203C
:104B400000902023072205210148FFF7DDFE08BD64
:104B5000CC4B00080FB4642110B59AB004461EABCC
:104B600068461D9AFFF76EF9642806D90D21632067
:104B70008DF861100A218DF862100E4941F28833D8
:104B80008C4203D182B269460B480CE00B498C423F
:104B900003D182B269460A4805E00A498C4204D131
:104BA00082B269460848FEF723F81AB0284610BCBE
:104BB0005DF814FB0038014024020020004400404E
:104BC0009C02002000480040140300200000000068
:104BD0000000005F00000007000700147F147F142E
:104BE000242A7F2A12231308646236495522500072
:104BF00005030000001C2241000041221C00082A7D
:104C00001C2A0808083E0808005030000008080860
:104C10000808006060000020100804023E51494569
:104C20003E00427F400042615149462141454B319F
:104C30001814127F1027454545393C4A494930012F
:104C4000710905033649494936064949291E003686
:104C500036000000563600000008142241141414D7
:104C60001414412214080002015109063249794105
:104C70003E7E1111117E7F494949363E4141412214
:104C80007F4141221C7F494949417F090901013E79
:104C9000414151327F0808087F00417F4100204098
:104CA000413F017F081422417F404040407F020481
:104CB000027F7F0408107F3E4141413E7F09090980
:104CC000063E4151215E7F0919294646494949312D
:104CD00001017F01013F4040403F1F2040201F7FD6
:104CE0002018207F631408146303047804036151BF
:104CF00049454300007F4141020408102041417FA3
:104D0000000004020102044040404040000102044F
:104D10000020545454787F48444438384444442054
:104D2000384444487F3854545418087E0901020816
:104D30001454543C7F0804047800447D4000204013
:104D4000443D00007F10284400417F40007C04184F
:104D500004787C0804047838444444387C141414DF
:104D600008081414187C7C0804040848545454207F
:104D7000043F4440203C4040207C1C2040201C3C00
:104D80004030403C44281028440C5050503C44646F
:104D9000544C44000836410000007F0000004136BA
:104DA000080008082A1C08081C2A0808181C1E1CD1
:104DB000180C1C3C1C0C007F3E1C08787C1E7C7A66
:104DC000044E5F447C000000000000000000000072
:104DD0000102030406070809A0860100400D030034
:104DE000801A060000350C0040420F0080841E002F
:104DF00000093D0000127A000024F40000366E0124
:104E00000048E801006CDC0200000000010203041D
:104E1000304E00080000002034000000703E000802
:104E2000644E000834000020FC090000803E0008A9
:104E30000000000000000000000000000000000072
:104E40000000000000000000000000000000000062
:104E50000000000000000000000000000000000052
:044E600000093D0008
:040000050800018D61
:00000001FF
