:020000040800F2
:10000000300E0020A101000873450008EB3D0008F8
:1000100071450008790A00089152000800000000AC
:10002000000000000000000000000000A54B0008D8
:100030007F1200080000000091470008754C00087E
:10004000BB010008BB010008BB010008BB010008A0
:10005000BB010008BB010008BB010008BB01000890
:10006000BB01000881120008871200084512000831
:10007000BB010008BB010008BB010008BB01000870
:10008000BB010008BB010008BB010008BB01000860
:10009000BB010008BB010008BB0100088D1200086D
:1000A000BB010008BB010008BB010008BB01000840
:1000B000BB0100080000000000000000BB010008B8
:1000C000BB010008BB010008BB010008BB01000820
:1000D000BB0100086D5200087952000885520008E3
:1000E000BB0100083D4900080000000000000000BE
:1000F0000000000000000000000000000000000000
:1001000000000000BB01000800000000BB01000867
:100110000000000000000000BB010008BB01000857
:10012000BB010008BB010008BB010008BB010008BF
:10013000BB010008000000000000000000000000FB
:10014000BB010008BB010008BB0100080000000063
:10015000BB010008BB010008413F0008BB010008CB
:10016000BB010008BB010008BB0100080000000043
:10017000BB010008BB0100080000000000000000F7
:10018000BB010008BB010008BB010008DFF80CD070
:1001900000F060FB00480047E15E0008300E0020E0
:1001A0000648804706480047FEE7FEE7FEE7FEE711
:1001B000FEE7FEE7FEE7FEE7FEE7FEE7614D00082B
:1001C0008D0100082DE9F05F0546002092469B4610
:1001D00088460646814640241BE02846414647465D
:1001E000224600F050FA53465A46C01A914110D3A5
:1001F00011461846224600F037FA2D1A67EB01081F
:100200004F4622460120002100F02EFA17EB00098C
:100210004E41201EA4F10104DFDC484631462A4647
:10022000434600F000B830BCBDE8C09FD2B201E048
:1002300000F8012B491EFBD270470022F6E710B5EB
:1002400013460A4604461946FFF7F0FF204610BD44
:1002500030B505462A460B4612F8010B13F8014B40
:1002600008B1A042F8D01CB1002802D06D1CF1E703
:10027000284630BD421C10F8011B0029FBD1801A12
:10028000704710B5002200E0521C835C8C5CA342D6
:1002900001D1002BF8D1D8B2E1B2401A10BD2DE93E
:1002A000FE4F804681EA0300C00F0C46009021F00B
:1002B000004123F00045B8EB0200A94105D24046B9
:1002C000214690461C460B46024623F00040104350
:1002D00047D0270DC7F30A00C3F30A510290401A12
:1002E000019040286BDAC3F3130040F4801B0098A0
:1002F000924620B10023D2EB030A63EB0B0B01986B
:100300005946C0F14002504600F0AEF906460D468F
:1003100050465946019A00F0C6F910EB08006141B9
:10032000002487EA115284EAE7731A4340D0009A06
:1003300062B3019A012A4FEA075215DC001B61EBF8
:1003400002014FF0004202EA0752CDE90042001CD0
:1003500041F5801132462B4600F0FDF903B000F064
:1003600045B840462146F9E7001B61EB0201001C3D
:1003700041F5801300185B412018A2F5001747EBE8
:10038000030140EAD570B6196D4111E06D084FEADE
:10039000360645EAC0754FEA0752001B61EB0201C1
:1003A000001C41F5801149084FEA30000019514105
:1003B00032462B4603B000F01CB800F0BDB90098DF
:1003C000012240000023D0EB020263EBE0730098AF
:1003D00021464FEAE074B8EB000061EB0401E9E765
:1003E00083F000435BE781F0004158E730BCBDE893
:1003F000C08F30BCBDE8C04FFFF7DFBF2DE9FE4F17
:1004000081EA030404F0004421F0004100944FF01D
:10041000000B23F0004350EA01045ED052EA0304CB
:100420005BD0C3F30A54C1F30A552C44A4F2F3344D
:100430000194A0FB0254C1F3130141F48011C3F3F2
:10044000130343F4801301FB024400FB034E840AB0
:10045000970A44EA815447EA8357A4FB0768029548
:100460008D0A05FB07854FEA932C04FB0C542705E6
:10047000029D4FEA065847EA1637B5EB08056EEBC2
:10048000070C870E920E47EA811742EA8312A7FBF8
:100490000201B6EB0B0164EB00042B0D43EA0C33B5
:1004A0005E1844EB1C50DA465146E7FB0201C5F3E7
:1004B00013044FEA0B3343EA14534FEA0432019C0E
:1004C00043EA0603A4F10C040294009CCDE900B4B5
:1004D00000F041F903B000F003B800200146F9E74D
:1004E00030BCBDE8C08F2DE9F04D81EA030404F073
:1004F000004B21F0004514464FF0000A23F0004164
:1005000050EA050220D054EA01021DD0C5F30A5773
:100510000246C5F31303C1F31300C1F30A5640F4B6
:10052000801543F48013A7EB0608101BD64608F28B
:10053000FD3873EB050002D308F1010801E09218C1
:100540005B41B8F1000F03DA00200146BDE8F08DF1
:1005500000204FF48011064684460EE0171B73EB13
:10056000050705D3121B63EB050306434CEA010C98
:1005700049084FEA300092185B4150EA0107EDD17B
:1005800052EA030012D082EA040083EA050108431C
:1005900005D0101BAB4106D20122002306E0002249
:1005A0004FF0004302E06FF0010253101AEB060017
:1005B0004CEB085110EB0A0041EB0B01BDE8F04D8C
:1005C00000F0BAB80EB540F2334102910021CDE9F6
:1005D00000110A460B4600F0BEF803B000BD00F063
:1005E000004230F000400AD0C10D01F56071C0F347
:1005F000160042EA0151C20840071143704700202B
:100600000146704701F0004330B421F0004150EA48
:10061000010206D00A0DA2F56072C1F31301002A8F
:1006200002DC30BC00207047440F44EAC104C10022
:10063000E01830BC00EBC25000F047B830B50B46B4
:10064000014600202022012409E021FA02F59D4202
:1006500005D303FA02F5491B04FA02F52844151ED6
:10066000A2F10102F1DC30BD202A04DB203A00FABD
:1006700002F1002070479140C2F1200320FA03F3F9
:10068000194390407047202A04DB203A21FA02F0F7
:100690000021704721FA02F3D040C2F120029140BC
:1006A000084319467047202A06DBCB17203A41FA47
:1006B00002F043EAE07306E041FA02F3D040C2F1EF
:1006C000200291400843194670470029A8BF70478F
:1006D000401C490008BF20F00100704710B4B0FA78
:1006E00080FC00FA0CF050EA010404BF10BC704713
:1006F00049B1CCF1200421FA04F411FA0CF118BF2D
:10070000012121430843A3EB0C01CB1D4FEA0061FB
:100710004FEA102042BF002010BC704700EBC350CE
:1007200010440029A4BF10BC7047401C490008BFFA
:1007300020F0010010BC704710B5141E73F10004C6
:1007400008DA401C41F1000192185B411A4301D1C3
:1007500020F0010010BD2DE9F04D92469B4611B1ED
:10076000B1FA81F202E0B0FA80F220329046FFF74F
:100770007BFF04460F4640EA0A0041EA0B0153465C
:100780005A46084313D0114653EA010019D0C8F164
:1007900040025046FFF777FF05460E465046594641
:1007A0004246FFF761FF084305D0012004E02046E0
:1007B0003946BDE8F08D0020054346EAE0762C433B
:1007C00037430A986305E40AA0EB08000022FD0AFB
:1007D00044EA47540A3002D500200146E9E7010502
:1007E00010196941DDE9084500196941BDE8F04D7E
:1007F000A2E7C1F30A52C1F3130140F2FF3341F4FF
:1008000080119A4202DA00200146704740F23343D9
:100810009A42A2F2334202DC5242FFF734BFFFF7A2
:1008200023BF000030B5041E71F1000404DB4FF05B
:100830000044404264EB0101141E73F1000405DB27
:100840001C464FF00043524263EB0403994208BF39
:10085000904230BD064C074D06E0E06840F00103D1
:1008600094E8070098471034AC42F6D3FFF792FCA7
:10087000346700085467000810B50A2001F0D4FA64
:1008800005F0BCFB10EE101A074A0848914206DD3D
:1008900007490A7842F004020A7006A100E00CA1A0
:1008A000BDE8104005F030BC000030410038014088
:1008B0001A000020313256204144432E2E2E2E2E77
:1008C0002E2E2E2E2E2E2E2E4F4B0D0A0000000007
:1008D000313256204144432E2E2E2E2E2E2E2E2ED9
:1008E0002E2E2E2E4641494C0D0A000010B5014611
:1008F000806A826D12F0500F05D0826DD20623D52A
:1009000000F09FFF10BD816D41F4007181650168A9
:100910000A68120715D5CA6812F4406F0ED1C9686B
:10092000890400290ADB816D21F480718165816D64
:10093000C90403D4816D41F00101816500F072FFAB
:1009400010BDC9688907ECE7006D426BBDE8104037
:100950000846104710B5806A816D41F040018165FD
:10096000C16D41F00401C16500F06BFF10BD10B511
:10097000806A00F065FF10BD70B5044600688168AC
:1009800001F00301012926D10168C90723D081683C
:1009900001F00D01012910D18168104A1140891C14
:1009A000816021680320086001F0EAFB05460EE043
:1009B00001F0E6FB401B022809D9A06D40F01000B1
:1009C000A065E06D40F00100E065012070BD206889
:1009D0008068C007ECD1002070BD0000C0FFFF7F21
:1009E000F8B50446002000902068816801F00301FA
:1009F000012902D10168C90735D181681B4A11421A
:100A000022D18168D5432940491C81601848194981
:100A10000068B0FBF1F000EB8000400000E0401EF9
:100A200000900028FBD101F0ABFB064616E0816880
:100A300011F0010F03D181682940491C816001F048
:100A40009FFB801B022809D9A06D40F01000A06513
:100A5000E06D40F00100E0650120F8BD206801680C
:100A6000C943C907E3D10020F8BD00003F00008062
:100A70004400002080841E00FEE7000070B50122C3
:100A8000254D94032DED028B2146284601F072FB83
:100A900040F6B83001F0C8F9012001F0C5F91F484F
:100AA00040F6B831DFED1E0A0088484340F6FF717A
:100AB000B0FBF1F000EE100AB8EE400A80EE208A9A
:100AC00018EE100AFFF78BFD41EC100B214E53EC92
:100AD000102B14A1304605F017FB18EE102A1E4803
:100AE0001044B0F5C00F09D81CA1304605F00CFB2E
:100AF000224A107840F00100107003E020A1304637
:100B000005F002FBBDEC028B21462846BDE8704093
:100B1000002201F02FBB000000040048300000203C
:100B2000000084430D0A44495350454E5345204D1F
:100B30004F544F522043555252454E542E2E2E2E76
:100B40002E2E2E2E2E2E2E252E326620416D7073C7
:100B500000000000003801400000C0BF0D0A4449F9
:100B60005350454E5345204D4F544F522E2E2E2E4E
:100B70002E2E2E2E2E2E2E4F4B0D0A001B00002047
:100B80000D0A44495350454E5345204D4F544F5242
:100B90002E2E2E2E2E2E2E2E2E2E2E4641494C0D32
:100BA0000A0000002DE9F05F584D4FF480792DEDDB
:100BB000048B01224946284601F0DCFA4FF4007804
:100BC00000224146284601F0D5FA40F6B83A504690
:100BD00001F02AF9012001F027F94D4C51466088B7
:100BE0004843FFF7EFFC9FED4B1B53EC112BFFF736
:100BF0007AFCFFF707FD00EE100A9FED489AC0EE61
:100C0000090A10EE900AFFF7EAFC9FED458B53ECC2
:100C1000182BFFF768FCFFF7F5FC0746FFF7DFFC32
:100C200041EC100BDFF83CB153EC102B3EA15846C1
:100C300005F06AFA4C4EB8194FF40807B84209D8C3
:100C40004AA1584605F060FA5448017841F0020183
:100C5000017003E052A1584605F056FA00224946B9
:100C6000284601F087FA00224146284601F082FA20
:100C7000504601F0D9F800224946284601F07AFA98
:100C800001224146284601F075FA504601F0CCF8A1
:100C9000012001F0C9F8608840F6B831484340F6B9
:100CA000FF71B0FBF1F000EE100AF8EE400A80EEA2
:100CB000890A10EE100AFFF792FC53EC182BFFF78D
:100CC00012FCFFF79FFC0446FFF789FC41EC100B78
:100CD00040A153EC102B584605F016FAA019B84263
:100CE00001D84BA100E056A1584605F00DFA0022AC
:100CF0004946284601F03EFABDEC048B41462846A1
:100D000000F0B8B8002201F035BA00000008004831
:100D1000300000200000000000FEAF400000C8428C
:100D20009A9999999999B93F0D0A444F5345522080
:100D30004D4F544F5220464F525741524420444940
:100D400052454354494F4E2043555252454E542E1E
:100D50002E2E2E2E2E2E2E2E2E2E252E3266206D4F
:100D600041000000003801400000C0BE0D0A444FA1
:100D7000534552204D4F544F5220464F52574152E7
:100D80004420444952454354494F4E2E2E2E2E2E78
:100D90002E2E2E2E2E2E4F4B0D0A00001B00002053
:100DA0000D0A444F534552204D4F544F5220464F49
:100DB000525741524420444952454354494F4E2EC4
:100DC0002E2E2E2E2E2E2E2E2E2E4641494C0D0A24
:100DD000000000000D0A444F534552204D4F544F20
:100DE000522052455645525345204449524543549A
:100DF000494F4E2043555252454E542E2E2E2E2EE4
:100E00002E2E2E2E2E2E252E3266206D4100000015
:100E10000D0A444F534552204D4F544F52205245D6
:100E2000564552534520444952454354494F4E2E4E
:100E30002E2E2E2E2E2E2E2E2E2E4F4B0D0A000035
:100E40000D0A444F534552204D4F544F52205245A6
:100E5000564552534520444952454354494F4E2E1E
:100E60002E2E2E2E2E2E2E2E2E2E4641494C0D0A83
:100E70000000000030BCBDE8C05FFFF743BF0000CA
:100E800010B540F6B8302DED028B00F0CDFF0120FB
:100E900000F0CAFF1E4840F6B831DFED1E0A808818
:100EA000484340F6FF71B0FBF1F000EE100AB8EED7
:100EB000400A80EE208A18EE100AFFF790FB41EC02
:100EC000100B214C53EC102B13A1204605F01CF9FC
:100ED00018EE101A1D480844B0F5C00F09D81CA11F
:100EE000204605F011F92548017841F00401017010
:100EF00003E023A1204605F007F9BDEC028B002298
:100F0000BDE810404FF400614FF0904001F032B95D
:100F100030000020000084430D0A44495350454EE0
:100F20005345204D4F544F522043555252454E5435
:100F30002E2E2E2E2E2E2E2E2E2E2E252E326620AC
:100F4000416D707300000000003801400000C0BF18
:100F50000D0A52454C415920424F415244204449C8
:100F60005350454E5345204D4F544F522E2E2E2E4A
:100F70002E2E2E2E2E2E2E4F4B0D0A001B00002043
:100F80000D0A52454C415920424F41524420444998
:100F90005350454E5345204D4F544F522E2E2E2E1A
:100FA0002E2E2E2E2E2E2E4641494C0D0A000000CC
:100FB0002DE9F05F584D4FF4807A2DED048B01221E
:100FC0005146284601F0D6F84FF4007B00225946DE
:100FD000284601F0CFF840F6B83000F025FF012098
:100FE00000F022FF4D4E40F6B83140F6FF77F08812
:100FF000B3EE048A4843B0FBF7F000EE100AF8EEB7
:10100000400A80EE880A10EE100AFFF7E8FA9FED1A
:10101000449B53EC192BFFF766FAFFF7F3FA0446EB
:10102000FFF7DDFA41EC100B3F4953EC102B3F4822
:1010300005F06AF8DFF8F8804FF0857904EB0800D6
:10104000484509D83BA1394805F05EF84848017881
:1010500041F00801017003E046A1344805F054F85E
:1010600000225146284601F085F8002259462846BC
:1010700001F080F840F6B834204600F0D5FE00229A
:101080005146284601F076F801225946284601F0DB
:1010900071F8204600F0C8FE464800F0FFFC012031
:1010A00000F0C2FEB08821464843B0FBF7F000EEE6
:1010B000100AF8EE400A80EE880A10EE100AFFF7D8
:1010C0008EFA53EC192BFFF70EFAFFF79BFA044642
:1010D000FFF785FA41EC100B144E53EC102B3649F8
:1010E000304605F011F804EB0800484501D833A15B
:1010F00000E041A1304605F007F80022514628469D
:1011000001F038F8BDEC048B5946284600F094B83D
:10111000002201F02FB80000000800483000002035
:101120009A9999999999B93FA466000800380140A5
:10113000000090BD0D0A52454C415920424F41528A
:101140004420444F534552204D4F544F5220464F58
:10115000525741524420444952454354494F4E2E20
:101160002E2E2E2E2E2E2E2E2E2E4F4B0D0A000002
:101170001B0000200D0A52454C415920424F41525C
:101180004420444F534552204D4F544F5220464F18
:10119000525741524420444952454354494F4E2EE0
:1011A0002E2E2E2E2E2E2E2E2E2E4641494C0D0A40
:1011B0000000000098050020EC6600080D0A52456A
:1011C0004C415920424F41524420444F53455220F4
:1011D0004D4F544F52205245564552534520444995
:1011E00052454354494F4E2E2E2E2E2E2E2E2E2E4D
:1011F0002E2E4F4B0D0A00000D0A52454C4159202E
:10120000424F41524420444F534552204D4F544F7A
:101210005220524556455253452044495245435465
:10122000494F4E2E2E2E2E2E2E2E2E2E2E2E464157
:10123000494C0D0A0000000030BCBDE8C05FFFF75C
:1012400067BF0000014800F0FABC00001809002048
:1012500030B590F8444004F01C050124AC40056C06
:101260006C60046863608368102B036803D0996026
:101270000068C26030BD9A600068C16030BD7047D0
:10128000082000F09FBE102000F09CBE10B520206A
:1012900000F098FEBDE81040402000F093BE000032
:1012A00070B51A4D00220421284600F063FF9F20EC
:1012B00004F0FCFEA52004F0F9FE0446A52004F08D
:1012C000F5FE0646A52004F0F1FE210441EA0624BD
:1012D0000443154E22460EA1304604F015FF0122AC
:1012E0000421284600F046FF1048844207D11048E8
:1012F0002246017841F0010101700EA101E0224671
:1013000012A13046BDE8704004F0FEBE000C00485B
:10131000466C6173682049442E2E2E2E2E2E2E2EC2
:101320002E25780D0A0000000038014001851F00BD
:101330001A00002020464C4153482E2E2E2E2E2ED1
:101340002E2E2E2E4F4B0D0A00000000464C41530E
:10135000482E2E2E2E2E2E2E2E2E2E4641494C0D50
:101360000A00000001225103014800F003BF000001
:101370000008004800224FF40051014800F0FABE76
:1013800000080048012210214FF0904000F0F2BE0A
:10139000002210214FF0904000F0ECBE70B50446E2
:1013A00090F8540000250E4601280BD0012084F847
:1013B00054002046FFF7E0FAA26D002120B142F070
:1013C00010022AE0022070BD22F4885242F002028C
:1013D000A2652268936823F08043334393602268B8
:1013E000936843F0004393604FF4912322680CE02C
:1013F0006D1C9D4209D3A06D20F0020040F010004A
:10140000A06584F85410012070BD9668002EEFDBB3
:10141000A26D22F0020242F00102A26584F854108B
:1014200070BD00002DE9F84300270446009790F8AE
:101430005400DFF8C8930D46B846012811D00126A4
:1014400084F85460206802F04BFD60B1A06D40F05C
:101450002000A0655FF0010784F854803846BDE89D
:10146000F8830220FBE76868052812D8022807D015
:10147000032807D0042807D0052807D0062007E056
:101480000C2005E0122003E0182001E04FF48070EA
:101490006860A9884FF4407C01F440739CFAACFC6E
:1014A000BCFA8CFC206823FA0CF300EB83002A685A
:1014B00001F01F014FF01F0C0CFA01FC036BC2F38B
:1014C000846223EA0C038A40134303632068816823
:1014D00011F00C0F1CD1AA68296802F005FD2068E4
:1014E0006969C268C2F3C102520091402A69042AA4
:1014F0000FD000EB82002B68DFF804C3026E03F00C
:10150000F84302EA0C020B431A4342F00041016621
:1015100072E0002102F0DEFC400320684FF0000181
:1015200073D002F0D7FC90FAA0F0B0FA80F12868EE
:1015300042036FD090FAA0F0B0FA80F0814204D15B
:1015400000221146206802F0F2FC0121206802F01E
:10155000C1FC400320684FF001015ED002F0BAFCEC
:1015600090FAA0F0B0FA80F1286842035AD090FABD
:10157000A0F0B0FA80F0814204D10022012120685D
:1015800002F0D5FC0221206802F0A4FC4003206890
:101590004FF0020149D002F09DFC90FAA0F0B0FAA1
:1015A00080F12868420345D090FAA0F0B0FA80F0AC
:1015B000814204D100220221206802F0B8FC0321FC
:1015C000206802F087FC400320684FF0030134D00C
:1015D00002F080FC90FAA0F0B0FA80F12868420393
:1015E00030D090FAA0F0B0FA80F0814204D100220D
:1015F0000321206802F09BFC2068816801F0030150
:10160000012925D121E000E004E002F063FCC0F3F1
:1016100084618CE7C0F3846090E702F05BFCC0F368
:101620008461A1E7C0F38460A5E702F053FCC0F336
:101630008461B6E7C0F38460BAE702F04BFCC0F304
:101640008461CBE7C0F38460CFE70168C9077DD12F
:101650002A7B296850F8B03FC1F3120C23EA0C032F
:1016600002F0200C4FF0FF3202FA0CF20A40C2F3F3
:1016700012010B430360E96849456AD128684103B8
:1016800017D090FAA0F1B1FA81F1491C09294FEA6B
:1016900040312DD800290FD090FAA0F1B1FA81F194
:1016A00001F1010106FA01F609D100BFC0F384611E
:1016B00009E0C0F38461E8E7C0F38461F0E790FAE1
:1016C000A0F1B1FA81F101F1010146EA816102D193
:1016D000C0F3846003E090FAA0F0B0FA80F000EB71
:1016E00040004FF4401202EB005041EA00012AE0B2
:1016F00000290CD090FAA0F1B1FA81F101F10101B9
:1017000006FA01F606D100BFC0F3846106E0C0F31B
:101710008461F3E790FAA0F1B1FA81F101F10101DE
:1017200046EA816102D1C0F3846003E090FAA0F040
:10173000B0FA80F0334A00EB400002EB005041EA7F
:10174000000141F00071AA68206800E001E002F0A9
:10175000CBFB2D4E29682D4B2D4D2E48B14204D187
:10176000826802F0E07212020FD5994204D18268B9
:1017700002F0E072D20108D5A9427FF46DAE826812
:1017800002F0E07252023FF567AE234AB1421AD12D
:1017900021689142F1D18168826801F0E07141F4E1
:1017A000000122F0E0720A4382601C481C49006874
:1017B000B0FBF1F0C0EB0010C00000E0401E009054
:1017C0000028FBD148E6994208D121689142F9D11D
:1017D000816801F0E07141F0807109E0A942F1D126
:1017E00021689142EED1816801F0E07141F48001FD
:1017F000826822F0E0720A4382602DE600007F409A
:1018000000F0FF03000050FE000052C7000084CB30
:101810000100008000030450000004504400002038
:1018200080841E00054A0020A2F1080132F8103021
:1018300021F81030401C0428F8DB704738000020E5
:1018400070477047F8B54FF0000504002E4600952C
:1018500002D0A06D10B107E00120F8BD204600F0D5
:10186000BFF8E66584F8546020688168C1F3407170
:1018700019B18168534A1140816020688168C1F3C1
:10188000007191B98168504A114041F080518160E6
:101890004E484F490068B0FBF1F000EB800040007B
:1018A00000E0401E00900028FBD120688168C1F351
:1018B000007141B9A16D41F01001A165E16D41F0E8
:1018C0000101E1650125A16DC90602D402F008FB02
:1018D00030B1A06D40F01000A06501252846F8BD8C
:1018E000A06D20F4807040F00200A065206881683F
:1018F00001F00301012902D10068C00706D1354873
:101900006168826822F47C120A438260E168A06BFD
:10191000E2690843A16841EA42310843616A40EA4A
:101920000140012904D1218D2B4A02EB414108439A
:10193000E16A29B101F47071226B014342EA0100AE
:101940002168CA68254B1A400243CA602068816832
:1019500011F00C0F12D1A169626B890341EA4202B6
:10196000C16844F2020399431143C160E06B01284E
:101970000CD02068016921F0010101612069012872
:101980002068016B21F00F0111D013E0D4E91001A0
:101990000843D4E912121143084321680A6940F24E
:1019A000FC739A43104340F001000861E6E7226AA5
:1019B000521E11430163A06D20F0020040F00100AF
:1019C000A0658BE7C0FFFF5FC0FFFF7F44000020E2
:1019D00080841E00000304500000FEFF07C0F0FFDB
:1019E00070B506460068204986B0884239D11F4844
:1019F000C16C41F40051C164C06C0B2400F4005070
:101A000005900C2000258DE831006946184800F04B
:101A1000E5FA01208DE8310069464FF0904000F072
:101A2000DDFA02208DE831006946124800F0D6FA4E
:101A3000124C1148C4E900058020A560C4E9035098
:101A4000400060618000A0612020C4E907052046B5
:101A500000F052F918B18C2109A003F01AFC34658A
:101A6000A66206B070BD00000000045000100240E5
:101A7000000800480004004808000240180900203F
:101A80002E2E2F5372632F73746D33326C3478782B
:101A90005F68616C5F6D73702E63000010B5044663
:101AA000006802F01DFA10B10221084610BD94F83A
:101AB000540001280CD0012084F854002046FEF781
:101AC0008FFF01004FF0000004D084F85400ECE7D1
:101AD000022010BDA26D40F601639A4342F4807269
:101AE000A265A26D22F48012A265A26DD20404D573
:101AF000E26D22F00602E26500E0E06523681C2248
:101B00001A6084F854002068C268920105D5A26D5D
:101B100022F4005242F48052A2658268024B1A40BD
:101B2000121D8260C1E70000C0FFFF7F2DE9F04178
:101B3000044616460F46006802F0D2F918B1022595
:101B40002846BDE8F08194F8540001280CD001200B
:101B500084F854002046FEF743FF05004FF00000D4
:101B600004D084F85400EBE70220EAE7A16D40F6C8
:101B70000162914341F48071A165A16D21F480114E
:101B8000A165A16DC90404D5E16D21F00601E165EF
:101B900000E0E065226D1249D162226D11491163A6
:101BA000226D1149516322681C21116084F8540090
:101BB0002068416841F0100141602068C16841F02F
:101BC0000101C160216833463A464031206D00F082
:101BD000F3F820688168054A1140091D8160AFE76C
:101BE000ED0800086F09000855090008C0FFFF7FD5
:101BF00010B590F825100024022903D00421C163F8
:101C000001241AE001680A6822F00E020A600168E5
:101C10000A6822F001020A6090F84410036C01F097
:101C20001C02012101FA02F25A6080F825100021FD
:101C300080F82410816B01B18847204610BDF0B4B4
:101C4000016C0C6801680D6890F8442002F01C06D5
:101C5000042202FA06F3234211D06B070FD50B685A
:101C60009B0603D40B6823F004030B6090F8441028
:101C700001F01C018A40016C4A60016B1DE00223E7
:101C800003FA06F727424FF0000C4FF0010218D07C
:101C9000AF0716D50C68A40605D40C6824F00A0416
:101CA0000C6080F8252090F8441001F01C018B4056
:101CB000016C4B6080F824C0C16A00291AD0F0BCC6
:101CC00008470823B340234214D02B0712D50B68D2
:101CD00023F00E030B6090F84410036C01F01C011C
:101CE00002FA01F15960C26380F8252080F824C00F
:101CF000416BE2E7F0BC704770B568B12B4C0368EC
:101D000014212B4AA34209D22A4C1C44B4FBF1F102
:101D10008900C0E910210BE0012070BD234C644212
:101D20001C44B4FBF1F18900416420490839016485
:101D3000022180F825101C6847F6F0718C43D0E929
:101D400002152943D0E904563543294385692943BF
:101D5000C5692943056A2943214319608168B1F5A2
:101D6000804F19D0036C0F21934202D152F8A83F43
:101D700002E00E4AA032136890F8444004F01C04BC
:101D8000A1408B43136090F84430416803F01C037A
:101D900099401368194311600021C163012280F842
:101DA000252080F82410084670BD00000804024079
:101DB00000000240F8FFFDBF70B5044690F8240013
:101DC000002501280CD0012084F8240094F8256017
:101DD0000020012E06D084F824000225284670BD7C
:101DE000022070BD022684F82560E0632068066842
:101DF00026F0010606602046FFF72AFA206B00282D
:101E00002068016802D041F00E0106E021F00401D3
:101E100001602068016841F00A01016020680168E2
:101E200041F001010160D9E770B5044600F0A8F95E
:101E30000546601C00D0641C00F0A2F9401BA042C3
:101E4000FAD370BD2DE9F04F002301270F24DFF8EE
:101E5000F8A073E007FA03F616EA01026DD00568F0
:101E60004FEA43084FF0030C0CFA08FC45EA0C0556
:101E70000560DD0800EB8508C346D8F820905D07B3
:101E80004FEAD56804FA08F529EA0509CBF820904D
:101E9000856825EA0C0585604568B5434560C568D9
:101EA00025EA0C05C56023F0030606EB0A05D5F804
:101EB00008C09E07360F04FA06F909EA0C08B0F1CB
:101EC000904F06D0DFF884C0604505D14FF0010C7B
:101ED00019E04FF0000C16E0DFF874C0604502D145
:101EE0004FF0020C0FE0DFF86CC0604502D14FF0FC
:101EF000030C08E0DFF860C0604502D14FF0040C2D
:101F000001E04FF0070C0CFA06FCC44515D1D5F8DA
:101F100008C02CEA090CC5F808C0104E3568954376
:101F20003560361D356895433560351D2E689643FE
:101F30002E602D1D2E6896432E605B1C31FA03F235
:101F400088D100F00DB800000000014000040048F6
:101F500000080048000C0048001000480004014040
:101F600030BCBDE8C08F000010B513490122134CEE
:101F7000134B082808D010280BD0202810D0402858
:101F800013D00020186010BD0878401C0870227023
:101F900004E04878401C487004200AE01A6010BD34
:101FA0008878401C8870022003E0C878401CC87004
:101FB00003202070F2E70000240000200C00002025
:101FC00010000020044910B50A68024202D00860DF
:101FD000FFF7CAFF10BD0000140401402DE9F84FBF
:101FE000DFF864B100234FF0010C4FF0030A4FF00B
:101FF0000F090BF1040EA0E00CFA03F6324072D088
:102000004C68022C01D0122C0ED1DC0800EB8408A5
:10201000D8F820405D07EF0E09FA07F5AC430D69CB
:10202000BD402543C8F8205007685D0091F8048042
:102030000AFA05F408F00308A74308FA05F848EA85
:102040000708C0F800804F68012F05D0022F03D089
:10205000112F01D0122F11D18768D1F80C80A7431E
:1020600008FA05F848EA0708C0F808804768B74347
:102070000E79C6F300169E403E434660C668A643EE
:102080008C68AC403443C4604C68E40054D52F4C99
:10209000256E45F001052566246E23F0030504F046
:1020A000010400942A4C2E19B4689D072F0F09FAD9
:1020B00007F5AC43B0F1904F04D0264DA84203D1B0
:1020C000012512E0002510E0234DA84201D1022590
:1020D0000BE0224DA84201D1032506E0204DA84285
:1020E00002D1042501E027E00725BD402543B56066
:1020F000DBF800405D464E689443F60300D5144378
:102100002C60DEF8004075464E689443B60300D557
:1021100014432C600C4D08352C684E689443F6022D
:1021200000D514432C60084D0C352C684E68944340
:10213000B60200D514432C605B1C0A6832FA03F423
:102140007FF45AAF00F00EB80004014000100240C6
:10215000000001400004004800080048000C00484E
:102160000010004818BCBDE8E08F0069084000D0AE
:10217000012070470AB18161704781627047000099
:1021800001480068704700004000002002480168D4
:10219000491C0160704700004000002010B503207A
:1021A00000F088F8002000F005F800F017F8002093
:1021B00010BD000010B5044607484FF47A7100685E
:1021C000B0FBF1F001F063FB00222146501E00F04D
:1021D00051F8002010BD0000440000201E4808B542
:1021E000016E41F001010166016E01F001010091F3
:1021F000816D41F080518165806D00F080500090CC
:10220000032000F057F8002211466FF00B0000F099
:1022100031F8002211466FF00A0000F02BF800227E
:1022200011466FF0090000F025F800221146501FFA
:1022300000F020F800221146101F00F01BF80022C9
:102240001146901E00F016F80022BDE80840114625
:10225000501E00F00FB800000010024000F01F02F6
:10226000012191404009800000F1E020C0F80011F8
:1022700070470000F0B40E4B1B680C46C3F30223FA
:10228000C3F10705042D00D90425191D072901D222
:10229000002300E0DB1E012606FA05F1491E21405D
:1022A00099409E40761E16403143F0BC02F062B960
:1022B0000CED00E0064900F0070208684FF6FF0346
:1022C000184040EA0220034A1043086070470000AB
:1022D0000CED00E00000FA051549B0F5007F086834
:1022E000C0F3412009D0022805D0086820F4C0605E
:1022F00040F480600860002070470128FBD0086827
:1023000020F4C06040F4007008600A480A4A00687F
:10231000B0FBF2F03222504300E0401E10B14A6997
:102320005205FAD448694005E5D5032070470000FE
:10233000007000404400002040420F000248006846
:1023400000F4C0607047000000700040024801685F
:1023500041F4807101607047007000402DE9F84F32
:10236000044600270088A84D3E46000515D5606C40
:1023700060B1B0F5000F04D0B0F5400F2BD00127AD
:102380000AE0E86840F48030E86024E00021201D85
:1023900002F000FA07001ED03E46206880033AD5BE
:1023A000A86D4FF00008C00009D4A86D40F080501F
:1023B000A865A86D4FF0010800F080500090DFF88C
:1023C0004CA2DAF8001041F48071CAF80010FFF74F
:1023D000D7FE814610E0D5F88800616C20F44000FB
:1023E0000843C5F88800D8E7FFF7CAFEA0EB09004C
:1023F000022801D9032705E0DAF80000C005F3D56B
:10240000002F7DD04FEA0706B8F1000F03D0A86D6A
:1024100020F08050A8652078C00707D0D5F8880044
:10242000216A20F003000843C5F88800207880075F
:1024300007D5D5F88800616A20F00C000843C5F87C
:1024400088002078400707D5D5F88800A16A20F0D9
:1024500030000843C5F888002078800607D5D5F8F5
:102460008800E16A20F440600843C5F888002088AD
:10247000800507D5D5F88800E16B20F4402008439B
:10248000C5F888002088400507D5D5F88800216C5C
:1024900020F440100843C5F888002078400607D58E
:1024A000D5F88800216B20F440500843C5F8880017
:1024B0002078000607D5D5F88800616B20F44040ED
:1024C0000843C5F888002088C00507D5D5F88800DE
:1024D000A16B20F440300843C5F8880020684FF015
:1024E000006700034FF0806850D5D5F88800A16CD4
:1024F00020F040600843C5F88800A06CB84200E0B6
:1025000005E03BD1E86840F48010E8603EE0D5F893
:10251000900010F4407014D0A16D814211D0D5F814
:102520009000D5F8901020F4407041F48031C5F847
:102530009010D5F8901021F48031C5F89010C5F8AE
:102540009000C00711D0FFF71BFE074641F2883903
:1025500007E000BFFFF714FEC11B494501D9032660
:1025600052E7D5F890008007F4D5D5F89000A16D1A
:1025700020F440700843C5F8900045E7404505D178
:102580000121201D02F006F900B106462068400333
:1025900017D5D5F88800E16C20F040600843C5F8F5
:1025A0008800E06CB84204D1E86840F48010E8602C
:1025B00007E0404505D10121201D02F0EBF800B1F4
:1025C00006462088400411D5D5F88800216D20F0FA
:1025D00040500843C5F88800206DB0F1805F05D1F8
:1025E0000221201D02F0D6F800B106462088000422
:1025F00006D555F8880F616D20F0804008432860AB
:10260000304600F005B800000010024000700040A5
:1026100018BCBDE8E08F00002DE9F0470F4605002B
:1026200058D03E4E306800F00700B84209D23068FA
:1026300020F0070038433060306800F00700B842EF
:1026400048D12878364CC0072CD06868032811D0B0
:10265000022812D0216898B1490500293ADAA16808
:1026600021F003010143A160FFF78AFD804641F29A
:10267000883910E021688901EFE721688903ECE7D8
:102680008907EAE7FFF77CFDA0EB0801494502D97D
:102690000320BDE8F087A068696800F00C00B0EB8B
:1026A000810FEFD12878800705D5A068A96820F0B0
:1026B000F0000843A060306800F00700B8420BD972
:1026C000306820F0070038433060306800F00700C1
:1026D000B84201D00120DCE72878400705D5A06882
:1026E000E96820F4E0600843A0602878000706D578
:1026F000A068296920F4605040EAC100A06000F0A1
:102700003BF8A168074AC1F30311515CC840064970
:1027100008600020FFF74EFD0020BAE700200240CD
:10272000001002405C660008440000200148006878
:10273000704700004400002004480549006889688B
:10274000044AC1F30221515CC84070474400002094
:10275000001002409C66000804480549006889682A
:10276000044AC1F3C221515CC840704744000020B4
:10277000001002409C66000830B52D490023184621
:102780008A682C4C12F00C0F4FEA640514D08A684A
:10279000C2F38102032A04D1CA6802F00302012AAB
:1027A0000AD08A68C2F38102012A19D08A68C2F36A
:1027B0008102022A16D016E00A68120704D4D1F862
:1027C0009420C2F3032202E00A68C2F303121A4BF8
:1027D00053F822308A6812F00C0F04D1184602E038
:1027E000204600E028468A68C2F38102032A1DD1F0
:1027F000C868CA6800F00300C2F30212521C022823
:1028000004D0032805D0B3FBF2F004E0B4FBF2F0EF
:1028100001E0B5FBF2F0CA68C968C2F30622504372
:10282000C1F34161491C4900B0FBF1F030BD00002B
:10283000001002400024F4006C6600082DE9F84303
:1028400004007DD02078FE4DC0065DD5A86810F04C
:102850000C0F0AD0A0690028286873D040F001004E
:102860002860FFF78DFC064655E02868800702D5F2
:10287000A0690028E5D0216A2868000703D52868E8
:1028800000F0F00004E0D5F89400F02202EA101005
:10289000814216D9084602F013F8002850D1286862
:1028A00040F0080028602868216A20F0F000084302
:1028B00028606868E16920F47F4040EA0120686090
:1028C00015E0286840F0080028602868216A20F098
:1028D000F000084328606868E16920F47F4040EA1E
:1028E00001206860206A01F0EBFF0028D6D1FFF7D5
:1028F00043FFA968D34AC1F30311515CC840D249D0
:1029000008600020FFF756FC2CE000BFFFF738FC02
:10291000801B02287ED828688007F7D5286840F0F9
:10292000080028602868216A20F0F0000843286029
:102930006868E16920F47F4040EA0120686011E0A6
:10294000B2E0FFE720F001002860FFF719FC06461F
:1029500005E000BFFFF714FC801B0228DAD82868C6
:102960008007F7D42078C00748D0A868C0F381005A
:1029700002281DD0A868C0F38100032803D1E868AD
:10298000C043800714D06068B0F5803F17D0B0F521
:10299000A02F286817D020F480302860286820F401
:1029A000802028606068E0B1FFF7EAFB064614E08B
:1029B0002868800322D56068002875D01EE028684A
:1029C00040F48030EDE740F480202860F7E700BF56
:1029D000FFF7D6FB801B64289CD828688003F7D5B6
:1029E0000CE0FFF7CDFB064605E000BFFFF7C8FB94
:1029F000801B64288ED828688003F7D4207880074D
:102A000042D5A868C0F38100012816D0A868C0F399
:102A1000810000E0CEE0032804D1E86800F0030064
:102A200002280AD0E068002828681DD040F4807091
:102A30002860FFF7A5FB06460BE0286840050BD58C
:102A4000E0680028B9D007E0FFF79AFB801B022856
:102A500084D828684005F7D56868217C20F0F850B4
:102A600040EA016068600FE020F480702860FFF7A2
:102A700087FB064605E000BFFFF782FB801B0228AC
:102A8000AAD828684005F7D42078000729D56069BE
:102A90000028D5F8940013D040F00100C5F8940048
:102AA000FFF76EFB064606E01DE100BFFFF768FB7F
:102AB000801B02287ED8D5F894008007F6D510E058
:102AC00020F00100C5F89400FFF75AFB064604E029
:102AD000FFF756FB801B02286CD8D5F894008007BE
:102AE000F6D42078400761D5A86D0026C00008D430
:102AF000A86D40F08050A865A86D012600F08050B8
:102B0000009052480168C90511D40168804641F41B
:102B100080710160FFF734FB074604E0FFF730FBEC
:102B2000C01B022846D8D8F80000C005F6D5A0681A
:102B3000012815D00528D5F8900016D020F0010006
:102B4000C5F89000D5F8900020F00400C5F890007A
:102B5000A06841F28838B8B1FFF712FB07460EE0D3
:102B6000D5F8900040F00100F0E740F00400C5F80F
:102B70009000F5E7FFF704FBC11B41451AD8D5F8D3
:102B800090008007F6D50CE0FFF7FAFA074604E05C
:102B9000FFF7F6FAC11B41450CD8D5F89000800725
:102BA000F6D41EB1A86D20F08050A865207880066C
:102BB00029D500E089E0606A0028D5F8980011D096
:102BC00040F00100C5F89800FFF7DAFA064604E085
:102BD000FFF7D6FA801B02287DD8D5F89800800729
:102BE000F6D510E020F00100C5F89800FFF7C8FA0C
:102BF000064604E0FFF7C4FA801B02286BD8D5F81C
:102C000098008007F6D4A06AC8B1A968C1F3810111
:102C1000032968D00228286820F08070286019D025
:102C20002868000103D4E86820F00300E860E86841
:102C300007490840E860FFF7A3FA04464EE050E079
:102C4000001002405C660008440000200070004054
:102C5000FFFFEEFEFFF794FA064604E0FFF790FA56
:102C6000801B022837D828688001F7D4206B54F8DD
:102C70002C1F000110380843218A1C4A490802EB26
:102C80004151A26841EA02210843217D4FF07E4272
:102C9000490802EB41610843217B40EAC160E860DA
:102CA000286840F080702860E86840F08070E86034
:102CB000FFF766FA044604E0FFF762FA001B0228F9
:102CC00009D828688001F7D50BE004E0FFF758FA2F
:102CD000001B022802D90320BDE8F8832868800180
:102CE000F4D40020F8E70120F6E700000000E0FF40
:102CF000704700000149012008707047180000204B
:102D000010B51B4904464FF4802008601EE0886817
:102D1000C0040BD5C868C00508D5C86800F080009D
:102D200060F4C070C8602046FFF7E4FF2068816847
:102D300089040BD5C168890508D5C16801F08001F7
:102D400061F42071C1602046FFF7D2FF21688868D6
:102D5000C00402D5C868C005D9D48868800402D5EB
:102D6000C8688005D3D4012084F8210010BD00007C
:102D7000140401402DE9F047044690F82000012892
:102D800023D04FF0010884F82080022084F821002D
:102D90002268CA20506222685320506220680025B1
:102DA000FF26B1F5807F81684FF0030A4FF47A79EE
:102DB0000ED021F4007181602068816821F40051F7
:102DC0008160FFF7DDF9074625E00220BDE8F087C6
:102DD00021F4807181602068816821F480518160D4
:102DE000FFF7CEF9074604E0FFF7CAF9C01B4845D4
:102DF00009D82068C068C007F6D010E0FFF7C0F916
:102E0000C01B484507D92068466284F821A084F891
:102E100020500320DAE72068C0688007EED52068DC
:102E2000466284F8218084F820500020CEE700001C
:102E300010B500680B4641680D480140080CD87079
:102E4000C1F304245C7001F03F049C70C1F3423173
:102E5000197052B901F078FDD870587801F074FDFE
:102E60005870987801F070FD9870002010BD000037
:102E70003FFFFF0010B50B460168896A5960016881
:102E80000969C1F30E019960006801680E480140AC
:102E9000C1F305401870C1F306245C7001F07F0493
:102EA0009C70402404EA1141D97052B901F04CFDE4
:102EB0001870587801F048FD5870987801F044FD7A
:102EC0009870002010BD00007F7F7F0070B5040067
:102ED00003D094F8210010B107E0012070BD00205C
:102EE00084F82000204600F04DF8022084F82100EC
:102EF0002168CA204862216853204862204601F0B8
:102F000077FDFF25042618BB206881681C4A114004
:102F10008160216888686268A369104322691A4346
:102F2000104388602168E06808612068016922898F
:102F300041EA024101612068C16821F08001C1605D
:102F400020688068800608D4204600F0F7F920B198
:102F50002068456284F82160BFE72068C16C21F0D9
:102F60000301C1646169E06908432168CA6C1043C8
:102F7000C86420684562012084F82100002070BDEB
:102F8000BFFF8FFF10B5044600680C49884214D17A
:102F9000FFF7DCF90A4850F8901F41F40041016046
:102FA000002211462920FFF765F92920FFF756F97D
:102FB0002046BDE8104000F0C1B910BD0028004017
:102FC000001002402DE9F05F044690F820000B4607
:102FD000012849D04FF0010A84F820A0022084F88B
:102FE00021002068002680684FEA4060DAB300289C
:102FF00057DA187801F0A8FC93F8200001F0A4FC3F
:1030000098781978DA7840EA01405978090241EA5B
:103010000241084393F8201040EA0165D8695F68CF
:10302000054358692168054398690743CA204862E7
:10303000216853204862586A4FF0FF08B0F5807F3E
:1030400020684FF47A7B81682DD021F40071816073
:103050002068C16801F0800161F42071C160FFF750
:103060008FF8814655E002E0022000F07BB800288E
:1030700000DBDE70187801F070FC0204587801F073
:103080006CFC42EA0022987801F067FC0243D87891
:1030900042EA004293F8200001F05FFC42EA00653A
:1030A000BCE7DE70A8E721F4807181602068C16808
:1030B00001F0800161F4C071C160FFF761F88146E1
:1030C00006E000BFFFF75CF8A0EB0900584517D8F1
:1030D0002068C068C007F5D02068C56120684764D3
:1030E0002068816841F4807181602068816841F4C2
:1030F00080511FE0FFF744F8A0EB0900584508D9BC
:103100002168C1F82480032084F8210084F820601D
:10311000ABE72068C0688007ECD5206805622068AE
:1031200087642068816841F400718160206881684B
:1031300041F4005181600A48016841F48021016036
:1031400007480830016841F4802101602168C1F816
:10315000248084F821A084F82060002085E7000006
:103160000004014030BCBDE8C09F00002DE9F047DD
:10317000044690F820000B46012826D04FF00109A4
:1031800084F82090022084F82100587802B301F0DE
:10319000DBFB987801F0D8FB9878D97840EA0145B4
:1031A00058781978000240EA413005432168CA2066
:1031B0004862216853204862204601F019FC00262D
:1031C000FF274FF0040858BB19E00220BDE8F08744
:1031D000C10603D500F0EF000A305870D87801F02E
:1031E000BCFB0204587801F0B8FB42EA0022987850
:1031F00001F0B3FB0243187842EA4035D6E71048A5
:103200000540206845602068C16821F08001C160E8
:103210002068806880060BD4204600F08FF838B113
:103220002068476284F8218084F820600120CDE77F
:103230002068476284F8219084F820600020C5E768
:103240003FFFFF002DE9F047044690F820000D46AF
:10325000012812D04FF0010A84F820A0022084F83F
:1032600021002068002680684FEA406042B10028B3
:103270001ADA287801F068FB17E00220BDE8F08731
:10328000002800DBEE70287801F067FB0204687804
:1032900001F063FB42EA0022A87801F05EFB0243E2
:1032A000E87842EA00470AE0EE70A878297840EA18
:1032B00001476878E978000240EA01400743216845
:1032C000CA204862216853204862204601F090FBE2
:1032D0004FF0FF084FF00409E0B917480740206895
:1032E00007602068816821F480218160D5E90301AD
:1032F000084321688A68104388602068C16821F00B
:103300008001C1602068806880060CD4204600F0EF
:1033100015F840B12168C1F8248084F8219084F820
:1033200020600120AAE72168C1F8248084F821A048
:1033300084F820600020A1E77F7F7F0070B50446FD
:103340000068C16821F0A001C160FEF719FF0546C1
:103350004FF47A7607E000BFFEF712FF401BB04241
:1033600001D9032070BD2068C0688006F4D5002014
:1033700070BD10B5040011D0022084F85D002068F3
:10338000016821F040010160204600F05FF8002054
:10339000206684F85D0084F85C0010BD012010BD3B
:1033A0002DE9F041040005D00025A56294F85D00E8
:1033B00018B107E00120BDE8F08184F85C50204698
:1033C00000F058F8022384F85D302068016821F08D
:1033D00040010160E0684FF4E066B04201D900218D
:1033E00001E04FF48051B0F5706F02D0B04200D0D0
:1033F000A562276B012227B9B04201D9236300E0FF
:103400002263D4E901031843D4E904363343184353
:10341000238B03F400731843E3691843236A1843AA
:10342000A36A184323681860636B606AA66918432F
:103430000427E36807EA1646334318430843216824
:103440004860256684F85D200020B4E700680749DD
:10345000884209D10648016E21F480510166E021BD
:103460004FF09040FEF7EEBC704700000030014086
:103470000010024000B500680E4987B0884217D19D
:103480000D48016E41F480510166006E694600F4FA
:1034900080500590E02000900220019000200290D2
:1034A00003200390052004904FF09040FEF796FD16
:1034B00007B000BD00300140001002402DE9F84F78
:1034C000044690F85C000026984617460D460128F1
:1034D0000DD04FF0010A84F85CA0FEF751FE834640
:1034E00094F85D00B146012804D002269BE002203A
:1034F00000F09FB8002D73D0002F71D0032084F806
:103500005D00C4F86090A563A787E787C4F8409082
:10351000A4F84490A4F84690C4F85090C4F84C9095
:10352000A068B0F5004F04D12068016841F48041E3
:10353000016020680168490603D4016841F0400138
:103540000160E068B0F5E06F606823D910B1E08FEA
:1035500001281BD1216835F8020BC86006E02068FD
:103560008168890706D535F8021BC160E08F401ECF
:10357000E0870BE0B8F1000F3FD0B8F1FF3F05D076
:10358000FEF7FEFDA0EB0B01414536D2E08F00288F
:10359000E5D137E010B1E08F012830D1E08F01286C
:1035A00004D9216835F8020BC86010E0216815F8CD
:1035B000010B087311E0E08721E02068816889072A
:1035C0000FD5E18F012905D935F8021BC160E08FC5
:1035D000801EF0E715F8011B0173E08F401EEAE73B
:1035E00020E0B8F1000F08D0B8F1FF3F07D0FEF798
:1035F000C7FDA0EB0B01414501D3032613E0E08F8B
:103600000028DAD15A464146204601F00EFA08B1A8
:1036100020202066A06818B92068C16880680090E2
:10362000206E00B1012684F85DA084F85C903046DD
:103630005EE718BCBDE8E08F2DE9F05F044690F826
:103640005C0000260A9F994692460D464FF00108FD
:1036500001280ED0012084F85C00FEF791FD83461E
:1036600094F85D00616801280CD0B1F5827F07D124
:1036700002E0022000F0FBB8A16809B9042801D0DB
:103680000226ECE04DB3BAF1000F26D0B9F1000FDD
:1036900023D094F85D00042802D0052084F85D0052
:1036A00000202066C4F840A0A4F84690A4F84490F6
:1036B000A563A4F83E90A4F83C90E0642065E0681F
:1036C0004FF4E061884203D8B4F84600012806D9D7
:1036D0002068426822F4805205E00126BFE020689D
:1036E000426842F48052426020680268520603D465
:1036F000026842F040020260E068884260683DD99A
:1037000010B1E08F012831D1216835F8020BC86073
:10371000E08F401EE08729E0B8F1000F0DD0E08F68
:1037200058B120688168890707D535F8021BC16048
:10373000E08F401EE0874FF00008B4F8460068B103
:1037400020688168C90709D0C0682AF8020BB4F85C
:103750004600401EA4F846004FF00108781C05D032
:10376000FEF70EFDA0EB0B00B84266D2E08F0028FA
:10377000D2D1B4F846000028CED167E010B1E08F76
:1037800001285CD1E08F012806D9216835F8020BA9
:10379000C860E08F801E05E0216815F8010B0873F2
:1037A000E08F401EE0874AE0B8F1000F16D0E08FAE
:1037B000A0B120688168890710D5E18F012905D95A
:1037C00035F8021BC160E08F801E04E015F8011B74
:1037D0000173E08F401EE0874FF00008B4F8460008
:1037E00018B320688168C9071FD0B4F846100129B2
:1037F00011D9C0682AF8020BB4F84600801EA4F85C
:103800004600B4F8460001280DD82068416841F40C
:103810008051416007E0017B0AF8011BB4F84600C3
:10382000401EA4F846004FF00108781C07D0FEF7B0
:10383000A7FCA0EB0B00B84201D303260FE0E08FFA
:103840000028B1D1B4F846000028ADD15A46394617
:10385000204601F0EAF810B1012620202066012060
:1038600084F85D00002084F85C00304602E730BC3C
:10387000BDE8C09F4FF0E0210428086903D020F084
:1038800004000861704740F00400FAE7704710B583
:10389000401EB0F1807F01D3012010BD4FF0E02425
:1038A00060610F21601700F065FE0020A061072015
:1038B0002061002010BD10B5FFF7E8FF10BD704774
:1038C00010B51449144C884201D114A112E01749D3
:1038D000884206D164221649144800F0A9F915A1BE
:1038E00008E0184988420AD164221749154800F0B7
:1038F0009FF916A12046BDE8104002F005BC18490A
:10390000884206D1BDE8104064221649144800F0F0
:103910008FB910BD3C070020003801400D0A20453A
:1039200072726F722055415254320000B407002069
:10393000C60900200D0A204572726F72205541524F
:10394000543300004C060020600900200D0A204579
:1039500072726F7220686C70756172743100000051
:10396000C4060020B40800202DE9F0410268044696
:10397000D0691168936810F00F0F4FF000055BD00D
:1039800003F0010601F49077374369D0C70707D0E9
:10399000CF0505D501271762626F42F00102626709
:1039A000820708D5DA0706D0276802223A62626FDA
:1039B00042F004026267420708D5DA0706D023689E
:1039C00004221A62626F42F00202626702070AD59D
:1039D00001F02002324306D0236808221A62626F87
:1039E00042F008026267626F002A32D0800605D575
:1039F000880603D5216E09B120468847606F00070D
:103A000003D420688068400625D5204601F066FA78
:103A100020688168490619D5816821F040018160DC
:103A2000E06E98B120498163E06EFEF7E1F800286E
:103A30000FD0E06E816B06E0860611D58E060FD59D
:103A4000216E1EE02046BDE8F04108472046FFF702
:103A500037FFBDE8F0812046FFF732FF6567F8E7E2
:103A6000C60209D55B0207D54FF4801010622046CC
:103A7000BDE8F041FFF723BF030605D50B0603D5CC
:103A8000616E0029DED1E4E74006E2D54806E0D5C4
:103A90001168204621F040011160202184F8711046
:103AA000656600F0A1F9D4E7C94E000810B504001E
:103AB00003D094F8710010B107E0012010BD002080
:103AC00084F87000204600F027F8242084F8710064
:103AD0002068016821F001010160204601F06AFAC6
:103AE0000128EBD0606A10B1204601F05BF9206834
:103AF000416821F4904141602068816821F02A01E9
:103B000081602068016841F0010101602046BDE844
:103B1000104001F0ABB90000F0B505683D48002346
:103B20003D490322022487B0854218D1C86D40F078
:103B30000100C865C86D029300F001000590CDE951
:103B400000240820CDE9032069463448FEF746FAF0
:103B5000002211464620FEF78DFB46201DE0304F27
:103B600007264FF09040BD421BD10D6E45F48045B5
:103B70000D66096ECDE9023201F4804105914FF4E2
:103B8000C061CDE9001404966946FEF727FA0022C9
:103B900011462520FEF76EFB2520FEF75FFB07B0E0
:103BA000F0BD204FBD4217D18D6D45F400358D65B8
:103BB000896DCDE9023201F4003105910C21CDE986
:103BC000001404966946FEF709FA002211462620E1
:103BD000FEF750FB2620E0E713488542DFD1886DD1
:103BE00040F480208865886DCDE9023200F48020A1
:103BF00005904FF44060CDE90004694604960B48F7
:103C0000FEF7ECF9002211462720FEF733FB2720B0
:103C1000C3E7000000800040001002400008004898
:103C200000380140004400400048004000040048C3
:103C300030B590F87230202B4AD1B1B1AAB190F8CA
:103C40007030012B44D0012380F870304165A0F81A
:103C50005820A0F85A20002202661D038168FF2325
:103C6000A94207D1016911B10CE0012030BD40F239
:103C7000FF110DE07F2419B1B1F1805F05D009E09B
:103C8000016901BBA0F85C3004E00169D9B13F21B2
:103C9000A0F85C104267222180F8721001688B68DE
:103CA00043F001038B608168A94201D1016969B1C8
:103CB0000849016680F870200068016841F490713D
:103CC0000160002030BDA0F85C40E3E70249F0E766
:103CD000022030BD594F0008FD4E00080E498842B1
:103CE00003D132220D490C4813E00D49884203D11B
:103CF00064220C490A480CE00B49884203D1642233
:103D00000A49094805E00A49884204D16422094960
:103D10000748FFF78DBF70473C0700200C050020C7
:103D20004C06002060090020B4070020C6090020CE
:103D3000C4060020B40800202DE9F843044690F89A
:103D400071001F4616460D4620284BD1C5B1BEB1A5
:103D500094F87000012845D0012084F870004FF0DD
:103D60000008C4F87480212084F87100FEF708FA76
:103D7000A4F850608146A4F852604FF4805615E0D4
:103D80000120BDE8F8838021204601F03DFAD8B932
:103D9000A068B04201D12069C0B115F8010B2168BB
:103DA0000885B4F85200401EA4F85200B4F852003E
:103DB0004B464FF0000200970028E4D14FF040013D
:103DC000204601F021FA30B10320DAE735F8020B82
:103DD000C0F30800E3E7202084F8710084F87080C5
:103DE0000020CEE70220CCE77047FEE770B500F078
:103DF00039F8164811A21621044601F04BFA13486F
:103E000013A22E301621054601F044FAFDF7C0FA40
:103E100002F06EF922460321012001F0D7FF2A4665
:103E20000521012001F0D2FF02F028F8FDF7AAFADF
:103E3000BDE870406420FDF7F7BF0000202020207F
:103E4000202045525556414B412000009904002046
:103E500020202020544543484E4F4C4F474945535E
:103E60000000000010B51748FFF783FA00224FF456
:103E700000511548FEF77EF94FF0904401221021C1
:103E80002046FEF777F9002210212046FEF772F94E
:103E90004FF4004000F0F2FA0A20FDF7C5FFFDF7ED
:103EA00077FA01F0A0FE0949094801F01BFF01F073
:103EB000D1FE01F0E3FE01F0E1FFBDE81040FDF7A7
:103EC00061BA0000500800200008004800000020EF
:103ED0004800002000EB8100006E00F0F8407047C1
:103EE0008068C0F38000704770B54FF0007401F037
:103EF000007394FAA4F4B4FA84F4E3404FF0F87435
:103F000094FAA4F501F0F871B5FA85F500EB830099
:103F100021FA05F50726AE4094FAA4F44369B4FAF1
:103F200084F4E140B3438A401343436170BD00EB26
:103F30008100016E21F000411143016670470000CD
:103F40000148FFF711BD00004C06002010B501220A
:103F5000D1034FF09040FEF70DF964220A490B4857
:103F6000FFF766FE0C4C0AA1204602F0CDF808A12E
:103F70000548FCF76DF908B108A100E00EA1204644
:103F8000BDE8104002F0C0B8B4080020C40600200C
:103F90006C6576656C000000003801400D0A6C65A8
:103FA00076656C2073656E736F7220636865636BF2
:103FB00020706173730D0A000D0A6C6576656C20C4
:103FC00073656E736F7220636865636B20666169E9
:103FD0006C0D0A002DE9F04118491748184CB1F84A
:103FE0005410154E081A87B24FF000082088323658
:103FF000454618B932213046FCF71FF90E49608852
:10400000B84217D0322801D165809FB162882088DC
:104010008B5C521C335462800A2B06D0401C80B249
:1040200020803228EBD12580E9E72188755425804E
:10403000BDE8F0814046FBE70C0500203C0700206E
:1040400014000020AFF3008070B5322223492448C9
:10405000FFF7EEFD012251022248FEF78BF8224DB8
:104060004FF48054002221462846FEF783F84FF48F
:10407000FA70FDF7D9FE012221462846FEF77AF8AC
:104080004FF47A742046FDF7CFFEFFF7A3FF174DDC
:10409000002816DD114A16A13232284602F034F803
:1040A00019A11C4802F030F82046FDF7BDFEFFF7CD
:1040B00091FF002805DD094817A13230FCF7E1F82F
:1040C00008B118A105E01C48017841F00201017017
:1040D0001AA12846BDE8704002F016B80C05002071
:1040E0003C07002000040048000800480038014058
:1040F0004C4F524120434849502E2E2E2E2E2E2E0C
:104100002E2E25730D0A00006D616320706175739A
:10411000650D0A00004400403432393439363732F4
:1041200034350D004C4F52412E2E2E2E2E2E2E2E7B
:104130002E4641494C0D0A001A000020204C4F52D7
:10414000412E2E2E2E2E2E2E2E2E4F4B0D0A0000DF
:1041500030B52D4887B02B490024C0E9001408224F
:10416000846001214261C0E9034104250562C0E980
:104170000641C0E90941C462C0E90C418463C463DB
:10418000FDF760FB00B1FEE720480090062001909B
:1041900002907F200594CDE9030569461A48FDF792
:1041A00041F900B1FEE71A4800900C2001906946E1
:1041B0001548FDF737F900B1FEE7164800901220C8
:1041C000019069461048FDF72DF900B1FEE712484D
:1041D00000901820019069460B48FDF723F900B1C3
:1041E000FEE77F210848FDF7D9F804220B4906486D
:1041F000FDF79CFC002803D009A10E4801F084FFC4
:1042000007B030BD00000450980500200800900C55
:104210001000C0102000F0140000214338000020DE
:104220004661696C656420746F20737461727420D8
:1042300041444300003801402DE9F04F5C4887B00D
:10424000C16C41F00401C164C16C01F0040105912D
:10425000C16C41F08001C164C16C01F08001059125
:10426000C16C41F00101C164C16C01F00101059113
:10427000C16C41F00201C164C16C01F00201059101
:10428000C16C41F00801C164C06CDFF8288100F006
:10429000080043F2B0340590002221464046FDF765
:1042A00069FF48F602064FF0904900223146484621
:1042B000FDF760FF012210214846FDF75BFFDFF8A4
:1042C000F8A046F20137002239465046FDF752FF6A
:1042D000DFF8E8B0012204215846FDF74BFF012525
:1042E000CDE9004500240294694640460394FDF759
:1042F00075FE0096CDE90154694648460394FDF7E2
:104300006DFE1020CDE90005CDE90254694648460E
:10431000FDF764FEE803CDE90004694650460294C7
:10432000FDF75CFE264E3820CDE900066946029472
:104330005046FDF753FE0097CDE9015469465046BB
:104340000394FDF74BFE4020CDE900066946029438
:104350005046FDF743FE0420CDE90005CDE90254A7
:1043600069465846FDF73AFE002211460920FDF73E
:1043700081FF0920FDF772FF002211460A20FDF798
:1043800079FF0A20FDF76AFF002211461720FDF78A
:1043900071FF1720FDF762FF002211462820FDF76C
:1043A00069FF2820FDF75AFF07B000F00BB80000A6
:1043B000001002400008004800040048000C0048BB
:1043C0000000111030BCBDE8C08F00000B4810B5D4
:1043D000094901604FF416514160002181600C22AF
:1043E000C160C0E90412816101624162FFF75EFBB6
:1043F000002800D0FEE710BD008000404C060020E1
:1044000010B51D4886B01B490024C0E900147F2167
:104410008160FF21C0E9031444618461C461FEF737
:1044200055FD00B1FEE70B208DF8000031208DF81E
:1044300001008DF802400394002269460E4804945E
:10444000FEF700FF00B1FEE706208DF814000920FA
:104450008DF815000E208DF8160014208DF8170029
:10446000002205A90448FEF781FE002800D0FEE7DF
:1044700006B010BD002800402C080020114910B5DE
:104480000F4A0A604FF48272C1E901204FF4E060E4
:10449000C86000204FF400720861C1E90502C861DC
:1044A000086207224862C1E90A02086308204863DB
:1044B0000846FEF775FF002800D0FEE710BD00009B
:1044C00000300140500800200C4810B50A49016036
:1044D0004FF4E1314160002181600C22C160C0E9EC
:1044E00004128161C16101624162FFF7DFFA0028B5
:1044F00000D0FEE710BD000000380140C4060020D7
:104500000C4810B50A4901604FF461414160002137
:1045100081600C22C160C0E904128161C161016245
:104520004162FFF7C3FA002800D0FEE710BD00008B
:10453000004400403C0700200C4810B50A490160C7
:104540004FF4E1314160002181600C22C160C0E97B
:1045500004128161C16101624162FFF7A7FA00287C
:1045600000D0FEE710BD000000480040B407002066
:10457000FEE770470907090E002806DA00F00F0071
:1045800000F1E02080F8141D704700F1E02080F871
:1045900000147047F0B587B00546002269463048E0
:1045A000FEF768FC2F4C002205A920702C48FEF76E
:1045B0003FFC20709DF800109DF80200C1EB4112F5
:1045C000C2EB012100EB01109DF801103C26C1EB6C
:1045D000011105EB810101444FF46165B1FBF5F375
:1045E000B1FBF5F005FB1313B1FBF5F705FB171154
:1045F000B1FBF6F5B3FBF6F3C2B21B4806FB15118F
:104600000270DBB2437081703B2903D93C39817061
:104610005B1C437041783B2903D93C394170521CE3
:10462000027002780021172A04D9172202703B2257
:104630004270817041618161C1619DF8161080F8FE
:1046400020104FF4807141620548FEF793FB207003
:10465000002205490248FEF7B5FC207007B0F0BD06
:104660002C080020190000207005002001464FF49E
:104670007A7301220148FEF721BF00005008002094
:10468000F8B500208DF8000001F07AFD01F0EAFD98
:10469000FCF788FAFCF7F2F9FFF758FC2C4F21A140
:1046A000384601F031FDFDF76BFD05464FF09044B3
:1046B000002220212046FDF75DFD0022102120462A
:1046C000FDF758FD47F2305616E0012269462148B1
:1046D000FFF7AEFA9DF8000001280DD1012220213C
:1046E0002046FDF747FD012210212046FDF742FD3F
:1046F000FCF75EFCFCF7C4FBFDF742FD401BB0423B
:10470000E3D920212046FDF730FD20B110212046BD
:10471000FDF72BFD18B910A1384601F0F5FC00F0AB
:1047200027F9F8BD436F6E6E656374206578746514
:10473000726E616C2072656C617920626F61726467
:1047400020616E642073656E642031200D0A0000C4
:1047500000380140C406002045585445524E414C93
:104760002052454C415920424F415244204D454131
:10477000535552454D454E545320494E434F4D508D
:104780004C4554452E2E2E2E2E2E2E0D0A000000A6
:10479000704700002DE9F041444C05468846E0682A
:1047A0000026810728680DD0E16801F003018142ED
:1047B00016D1A8B1E0686968C0F30210401C8842B5
:1047C0000ED120E0012804D0022805D0032807D10B
:1047D00008E02168890701E021684905002907DB15
:1047E00001265FE02168890302D421684903F5E7C7
:1047F000E1686A686FF00F0321F0730103EB0212A6
:1048000011430143E160206820F080602060FDF7E3
:10481000B7FC074605E000BFFDF7B2FCC01B02284D
:1048200037D820680001F7D4B8F1000F18D0B8F1DC
:10483000010F1DD0287D4FF07E41400801EB406004
:10484000A96840EA01202169194A11400843206102
:10485000206840F080602060FDF792FC07461AE077
:10486000A868297B000240EAC1602169114AECE78F
:10487000288A1149400801EB4050A96840EA01200C
:1048800021690E4AE1E700BFFDF77AFCC01B022850
:1048900001D9032606E020680001F5D52069A96941
:1048A000084320613046BDE8F0810000001002405E
:1048B000FF80FFF9FF80FF070000E0FFFF809FFF00
:1048C000F8B51C4D06460024A86DC00002D5FDF7C2
:1048D00035FD0DE0A86D40F08050A865A86D00F092
:1048E00080500090FDF72AFDA96D21F08051A96547
:1048F000B0F5007F04D0802E07D94FF003040AE002
:10490000802E08D9A02E01D804E001D1022402E0B3
:10491000702E00D101240848016821F007012143CD
:104920000160006800F00700A04201D00120F8BD3E
:104930000020F8BD00100240002002400148FEF7B0
:10494000DFB900002C080020010901EB810100F013
:104950000F0000EB4100C0B27047002102E00A38AE
:10496000C0B2491C0A28FAD2090740EA1160704710
:1049700010B5114C0BA1204601F0C6FB0220FFF739
:1049800009FE41F28830FDF74FFA0C480078012803
:1049900005D00BA12046BDE8104001F0B5BB0EA12B
:1049A000F8E700000D0A20496E697469616C69734B
:1049B000696E6720525443000038014018000020FF
:1049C0000D0A205254432E2E2E2E2E2E2E2E2E2EFB
:1049D0002E2E4641494C00000D0A205254432E2EE3
:1049E0002E2E2E2E2E2E2E2E2E2E4F4B0000000061
:1049F00070B504460068C168490614D44FF0FF3111
:104A0000C160FDF7BDFB05464FF47A7607E000BFB5
:104A1000FDF7B6FB401BB04201D9032070BD2068F2
:104A2000C0684006F4D5002070BDF8B515460E46A6
:104A30000B460092044600224FF4C05100F019F8D2
:104A400088B93346002280212046009500F060F8A6
:104A500048B9334600224FF4C0612046009500F06B
:104A600008F8002804D0206E40F0200020660320C3
:104A7000F8BD2DE9F8431D4617460E4604464FF48F
:104A8000C068DDF820903CE0464505D127B9007BA1
:104A90008DF800009DF80000681C32D02DB1FDF7A4
:104AA0006FFBA0EB0900A8422BD32068416821F0DE
:104AB000E00141606068B0F5827F0BD1A068B0F57D
:104AC000004F02D0B0F5806F04D12068016821F05A
:104AD00040010160A06AB0F5005F09D1206801685B
:104AE00021F4005101602068016841F40051016027
:104AF000012084F85D00002084F85C000320BDE8FC
:104B0000F883206881683140B942BDD10020F6E7C2
:104B10002DE9F0411D4617460E460446DDF8188083
:104B200034E0681C32D02DB1FDF72AFBA0EB080061
:104B3000A8422BD32068416821F0E0014160606801
:104B4000B0F5827F0BD1A068B0F5004F02D0B0F570
:104B5000806F04D12068016821F040010160A06AE3
:104B6000B0F5005F09D12068016821F400510160AF
:104B70002068016841F400510160012084F85D0063
:104B8000002084F85C000320BDE8F0812068806884
:104B900036EA000004D00020B842C2D10020F3E77A
:104BA0000120F9E77047000070B5184C60680128D3
:104BB00022D1002666602078154D01281DD00228DC
:104BC0001DD003281DD004281DD012A2162128466E
:104BD00000F060FBFCF7DCFB01F03CF801F04EF864
:104BE00001F086FA2A460321012001F0EFF801F0D6
:104BF00045F9FCF7C7FB267070BD0BA2E6E70FA2D4
:104C0000E4E712A2E2E716A2E0E700000C000020B1
:104C10009904002020554E4B4E4F574E20494E547C
:104C200045525255505400002020202050524553E8
:104C3000534544204D454E552000000020202020A3
:104C400050524553534544205550200020202020E9
:104C50005052455353454420444F574E20000000C6
:104C60002020202050524553534544204241434B7D
:104C70002000000010B5FDF789FABDE81040FEF7EE
:104C80001ABE00002DE9F041AEB0FDF75FFB3248DF
:104C900050F8901F21F018010160052017904FF483
:104CA00080300125CDE9180502240326CDE92146EF
:104CB0000727CDE925740C202794CDE9235017A8A8
:104CC000FDF7BCFD00B1FEE70F20CDE928064FF04F
:104CD00000088020CDE92A08012128A8CDF8B0805D
:104CE000FDF79AFC00B1FEE71C48CDF82880009043
:104CF0004FF080501490CDF8308000151690CDF80C
:104D000020800820CDE90250CDF82C800196400586
:104D1000CDF82480CDE90640CDE904746846FDF75E
:104D20001DFB00B1FEE74FF40070FDF7D5FA00B1AE
:104D3000FEE7FDF7FBFC4FF47A71B0FBF1F0FEF7F4
:104D4000A6FD0420FEF796FD00221146501EFDF739
:104D500091FA2EB0BDE8F0810010024067400200D9
:104D60000D48016841F4700101600C48016841F090
:104D700001010160002181600268094B1A40026054
:104D80008214C260026822F48022026081610249BA
:104D9000C00380390860704788ED00E000100240D1
:104DA000FFFFF6EA90F82410C90706D001684A68A8
:104DB000836A22F400321A434A6090F8241089076B
:104DC00006D501684A68C36A22F480321A434A60F1
:104DD00090F82410490706D501684A68036B22F44D
:104DE00080221A434A6090F82410090706D501680A
:104DF0004A68436B22F400421A434A6090F8241038
:104E0000C90606D501688A68836B22F480521A436A
:104E10008A6090F82410890606D501688A68C36BF9
:104E200022F400521A438A6090F82410490611D5E2
:104E300001684A68036C22F480121A434A60016CCC
:104E4000B1F5801F06D101684A68436C22F4C002A4
:104E50001A434A6090F82410090606D501684A688A
:104E6000806C22F4002202434A607047F8B50026A5
:104E700004464667FDF784F90546206800686FF030
:104E80007E47000708D52B4600224FF4001120462C
:104E9000009700F0B9F960B92068006840070AD5AA
:104EA0002B4600224FF480012046009700F0ACF919
:104EB00008B10320F8BD202084F8710084F8720046
:104EC00084F870600020F8BD10B5806A0021A0F859
:104ED0005A10A0F85210FEF7F3FC10BD01680A68E2
:104EE00022F490720A6001688A6822F001028A60E6
:104EF000202180F8721000210166704710B5B0F8CB
:104F00005C2090F872300168222B04D0088B40F0AE
:104F10000800088310BD898C436D11401980416DD4
:104F2000891C4165B0F85A10491E0904090CA0F803
:104F30005A10EFD101680A6822F490720A60016881
:104F40008A6822F001028A60202180F87210002114
:104F50000166FEF7C3FE10BD10B5B0F85C2090F8F6
:104F600072300168222B04D0088B40F008000883BF
:104F700010BD898C1140426D531C43651170B0F80F
:104F80005A10491E0904090CA0F85A10F0D1016802
:104F90000A6822F490720A6001688A6822F00102AD
:104FA0008A60202180F8721000210166FEF796FECB
:104FB00010BD00002DE9F0410446016880682369B6
:104FC000E669184363691025002733431843844A70
:104FD0000B68844E334003430B6020684168E368EC
:104FE00021F44051194341602168A069914201D0E8
:104FF000236A18438B6823F4306303438B607A4B36
:1050000021687A4899420DD1D0F8880010F0030049
:1050100006D0012839D0022835D0032838D136E00F
:10502000012535E0724B99420BD1D0F8880010F081
:105030000C0026D0042828D0082824D00C2827D1FA
:1050400025E06C4B99420BD1D0F8880010F030006D
:1050500017D0102819D0202815D0302818D116E0E4
:10506000914215D1D0F8880010F4406009D0B0F515
:10507000806F0AD0B0F5006F05D0B0F5406F07D152
:1050800005E0002504E0022502E0042500E00825F3
:10509000594B00264FF4004091423DD135B1022DCD
:1050A00007D0042D07D0082D10D107E0FDF744FBF1
:1050B00003E0184602E0FDF75FFBA8B3626802EB6D
:1050C0004201814202D8B0EB023F01D9012774E0CE
:1050D000DFF828815DB1022D0CD0042D13D0082DEE
:1050E000F4D150082905401846F1000105E0FDF70C
:1050F00023FB0AE050084249F5E70023FBF762F87A
:10510000A0F5407155E0FDF737FB6268010E030220
:10511000500818187141F0E7E1694FF6EF788142C5
:105120002ED1092DD2D200E047E0DFE805F00609D4
:105130001F05220505052500C8E7FDF7FDFA01E07A
:10514000FDF70AFB4100606801EB5001B1FBF0F094
:1051500080B2A0F110014145B8D84FF6F07101407E
:10516000C0F3420001432068C16026E02549606821
:10517000EAE7FDF701FBE5E74FF480316068E3E71C
:10518000092DA3D2DFE805F006091E052205050555
:1051900025009BE7FDF7D0FA01E0FDF7DDFA0146B7
:1051A000606801EB500100BFB1FBF0F080B2A0F1EC
:1051B000100141458AD82168C8602666384666666F
:1051C000BDE8F081606803EB5001EDE7FDF7D4FA2C
:1051D000E5E7616800EB5100B0FBF1F0E6E70000A5
:1051E00000800040F369FFEF0038014000100240EA
:1051F00000440040004800400024F400FFFC0F0081
:10520000000024F40048E8012DE9F04198461746D3
:105210000E460446069D1DE0681C1BD02DB1FCF710
:10522000AFFFA0EB0800A84214D92068016821F460
:10523000D07101602068816821F001018160202027
:1052400084F8710084F87200002084F87000032054
:10525000BDE8F0812068C06936EA000004D0002073
:10526000B842D9D00020F3E70120F9E70148FEF762
:105270007BBB0000C40600200148FEF775BB0000A0
:105280003C0700200148FEF76FBB0000B407002078
:10529000FEE7FEE70FB41CB50246002007AC00296C
:1052A0000BD0491ECDE90021054B6A4621460698E0
:1052B00000F0F4F8009A002111701CBC5DF814FB9A
:1052C000D15B00087CB5044600201D461646002927
:1052D0000BD0491ECDE90041044B6A4629463046B1
:1052E00000F0DCF8009A002111707CBDD15B000851
:1052F00002E008C8121F08C1002AFAD1704770479F
:10530000002001E001C1121F002AFBD170470000FC
:105310002DE9FF5F82B00021DDE90430020DDDF8E8
:1053200040B0034318D044F61050A2F2FF3242437B
:105330001514119801281FD0A5EB0B00401C5FEA43
:10534000000A4FF000064E4FDFF83891B046504645
:1053500015D5CAF1000413E0119801244AA30128CD
:1053600001D16FEA0B010298119AC0E90031C0E93E
:10537000024206B000F08EB8CBF10000DFE7044631
:105380000021404A491842EB0450CDE9001012E0D8
:10539000E00707D032463B4640464946FBF72EF829
:1053A0008046894632463B4610461946FBF726F8AA
:1053B00006460F466410002CEAD1DDE90401DDE960
:1053C0000023BAF1000F06DAFBF718F842464B4605
:1053D000FBF714F805E0FBF786F842464B46FBF76F
:1053E00082F804460E460022284BFBF71BFA03D82E
:1053F0004FF0FF30014607E00022254B20463146A2
:10540000FAF74DFFFBF7F5F9102409E0002C0ADB51
:105410000A220023FAF7D6FE039B30321A55641E87
:1054200050EA0102F2D1641C039AC4F1110314443E
:10543000119A012A03D0012208430DD10AE0084342
:1054400004D000204FF0110B119072E7A3EB0B0575
:105450006D1E0DE05B4504DD4FF0000205F1010516
:1054600004E003DA4FF00002A5F10105002AECD0B8
:1054700002981199C0E90231C0E9004579E70000BE
:10548000000014400000F03F300000000000F04336
:105490000000E03F30BCBDE8C09F00002DE9FF4F99
:1054A00095B09B468946064600250FE2252877D110
:1054B00000242746F84A0121059400E0044316F829
:1054C000013F203B01FA03F01042F7D130782A283F
:1054D00011D06FF02F033078A0F13002092A16D8CE
:1054E000059A44F0020402EB820203EB42021044EC
:1054F000761C0590EFE759F8042B0592002A03DA91
:10550000504244F40054059044F00204761C307874
:105510002E2816D116F8010F44F004042A280DD0C5
:105520006FF02F023078A0F13003092B09D807EB78
:10553000870302EB4303C718761CF3E759F8047B93
:10554000761C30786C280FD006DC4C2817D06828E1
:105550000DD06A2814D104E0742810D07A280FD115
:105560000DE044F400140AE044F4801401E044F433
:1055700040147278824202D104F58014761C761CA5
:10558000307866280BD013DC582877D009DC002847
:1055900075D04528F6D04628F4D047281AD19DE189
:1055A00018E0632835D0642879D0652812D195E1B8
:1055B000702873D008DC6728F1D069286FD06E2876
:1055C0000DD06F2806D1B5E073282CD0752875D082
:1055D000782874D05A46179990476D1C75E1C4F32A
:1055E0000250022809D003280DD0D9F80010042851
:1055F0000DD00D6009F1040967E1D9F80010EA1730
:10560000C1E90052F6E7D9F800100D80F2E70D70FD
:10561000F0E719F8041B8DF8001000208DF8010048
:10562000EA46012003E059F804AB4FF0FF30610770
:105630004FF0000102D40DE008F101018846B942A3
:105640000FDA8045F8DB1AF808100029F4D108E0D9
:1056500008F1010188468142FADB1AF80810002996
:10566000F6D105985B46A0EB080721463846179A05
:1056700000F097FA284400EB080507E04DE029E127
:105680000DE01AF8010B5A4617999047B8F1010836
:10569000F7D25B4621463846179A13E142E00A22C8
:1056A0000092C4F302524FF0000A022A08D059F8BF
:1056B00004CB032A4FEAEC710AD00DE029E02AE07E
:1056C00009F1070121F00702F2E802C1914609E061
:1056D0000FFA8CFC4FEAEC71042A03D14FFA8CFCD0
:1056E0004FEAEC71002907DA0A460021DCF1000CD0
:1056F00061EB02012D2202E0220504D52B228DF858
:105700000420012203E0E20701D02022F7E79046BF
:1057100059E00A2102E010220DE010214FF0000AAA
:1057200000910BE010224FF0000A44F00404082717
:10573000009203E008224FF0000A0092C4F30252E4
:10574000022A05D059F804CB0021032A08D009E029
:1057500009F1070121F00702F2E802C1914605E0D4
:105760001FFA8CFC042A01D10CF0FF0C4FF000084A
:10577000220728D5702806D0009B83F0100353EA37
:105780000A0305D00EE040228DF80420012208E033
:105790005CEA010206D030228DF804208DF8050065
:1057A00002229046009B83F0080353EA0A030AD1C1
:1057B0005CEA010201D1620705D530228DF8042090
:1057C0004FF001087F1E582804D034A003900EA883
:1057D00002900DE036A0F9E753466046009AFAF7CA
:1057E000F1FC84460398825C0298401E029002708D
:1057F0005CEA0100F0D1029806A9081A00F1200A1B
:10580000600702D524F4803400E00127574502DD0B
:10581000A7EB0A0000E0002000EB0A0100900598C9
:105820004144401A0590E00306D45B462146179A8E
:10583000059800F0B6F90544002706E001A85A468D
:10584000C05D179990476D1C7F1C4745F6DBE00350
:105850000CD55B462146179A059800F0A2F905443D
:1058600004E030205A46179990476D1C0099481E55
:1058700000900029F5DC08E0029802995A46007869
:10588000491C0291179990476D1CBAF10001AAF1C9
:10589000010AF1DC65E100000928010030313233F2
:1058A000343536373839616263646566000000005C
:1058B0003031323334353637383941424344454646
:1058C0000000000000F05BF90544761C30780028E9
:1058D0007FF4ECAD19B0284600F04EB9620700D451
:1058E000062709F1070222F0070CFCE80223E14633
:1058F00003F000485FEA080C02D00FF2702C0DE0B4
:105900005FEA045C02D50FF2682C07E05FEAC47C12
:1059100002D00FF2602C01E0AFF2700C4FF0FF38B4
:1059200023F00043CDF850C065280CD006DC452894
:1059300009D046281DD047283DD13DE0662818D023
:1059400067287ED138E00021112F01DB112000E013
:10595000781CCDE9000106A90EA8FFF7D9FCDDE906
:105960000F010E9A03910021009207F1010A0491A0
:105970004DE04FF000400097CDE9011006A90EA8B8
:10598000FFF7C6FCDDE90F0203920E9B119900227E
:10599000DDF80CA00093049211B9791C00EB010A08
:1059A000B7EB0A0004D4C0F1FF3007F1010A0490FC
:1059B000AAEB0700019044E0012F00DA0127002143
:1059C000112F01DD112000E03846CDE9000106A9C4
:1059D0000EA8FFF79DFCDDE90F010E9A039100214F
:1059E00004910092BA4621070CD40399514500DA7C
:1059F0008A46BAF1010F05DD009AAAF10101515C56
:105A0000302908D0B84202DA10F1040F06DA012179
:105A1000CDE9011015E0AAF10101E9E7002805DC54
:105A2000049901440491AAEB000102E0411C514594
:105A300000DD8A460499401A401C01904FF0004056
:105A40000290200704D40198504501DBCDF8048072
:105A500000208DF84F0002980DF14F07B0F1004F74
:105A600025D02B200E9002984FF0020800280CDA67
:105A7000404202902D200E9007E00A210298FAF78A
:105A8000DDFD3031029007F8011DB8F10001A8F1E9
:105A90000108F2DC02980028EFD1791E0E980870F8
:105AA000307800F0200040F0450007F8020D12A801
:105AB000C01B00F107081498007800B1012000EB2A
:105AC0000A01019801EBE07105984144401A401E1B
:105AD0000590E00306D45B462146179A059800F02E
