:020000040800F2
:10000000B00E0020A1010008374A00084340000854
:10001000354A0008810900088956000800000000E0
:10002000000000000000000000000000794F000800
:10003000C311000800000000594B00086D50000873
:10004000BB010008BB010008BB010008BB010008A0
:10005000BB010008BB010008BB010008BB01000890
:10006000BB010008DB110008E1110008891100083C
:10007000BB010008BB010008BB010008BB01000870
:10008000BB010008BB010008BB010008BB01000860
:10009000BB010008BB010008BB010008E711000814
:1000A000BB010008BB010008BB010008BB01000840
:1000B000BB0100080000000000000000BB010008B8
:1000C000BB010008BB010008BB010008BB01000820
:1000D000BB01000865560008715600087D560008EF
:1000E000C5110008054D00080000000000000000D8
:1000F0000000000000000000000000000000000000
:1001000000000000BB01000800000000BB01000867
:100110000000000000000000BB010008BB01000857
:10012000BB010008BB010008BB010008BB010008BF
:10013000BB010008000000000000000000000000FB
:10014000BB010008BB010008BB0100080000000063
:10015000BB010008BB01000821440008BB010008E6
:10016000BB010008BB010008BB0100080000000043
:10017000BB010008BB0100080000000000000000F7
:10018000BB010008BB010008BB010008DFF80CD070
:1001900000F052FB00480047D9620008B00E002072
:1001A0000648804706480047FEE7FEE7FEE7FEE711
:1001B000FEE7FEE7FEE7FEE7FEE7FEE7595100082F
:1001C0008D0100082DE9F05F0546002092469B4610
:1001D00088460646814640241BE02846414647465D
:1001E000224600F043FA53465A46C01A914110D3B2
:1001F00011461846224600F02AFA2D1A67EB01082C
:100200004F4622460120002100F021FA17EB000999
:100210004E41201EA4F10104DFDC484631462A4647
:10022000434600F000B830BCBDE8C09FD2B201E048
:1002300000F8012B491EFBD270470022F6E710B5EB
:1002400013460A4604461946FFF7F0FF204610BD44
:1002500030B505462A460B4612F8010B13F8014B40
:1002600008B1A042F8D01CB1002802D06D1CF1E703
:10027000284630BD421C10F8011B0029FBD1801A12
:10028000704710B5002200E0521C835C8C5CA342D6
:1002900001D1002BF8D1D8B2E1B2401A10BD2DE93E
:1002A000FE4F804681EA0300C00F0C46009021F00B
:1002B000004123F00045B8EB0200A94105D24046B9
:1002C000214690461C460B46024623F00040104350
:1002D00047D0270DC7F30A00C3F30A510290401A12
:1002E000019040286BDAC3F3130040F4801B0098A0
:1002F000924620B10023D2EB030A63EB0B0B01986B
:100300005946C0F14002504600F0A1F906460D469C
:1003100050465946019A00F0B9F910EB08006141C6
:10032000002487EA115284EAE7731A4340D0009A06
:1003300062B3019A012A4FEA075215DC001B61EBF8
:1003400002014FF0004202EA0752CDE90042001CD0
:1003500041F5801132462B4600F0F0F903B000F071
:1003600045B840462146F9E7001B61EB0201001C3D
:1003700041F5801300185B412018A2F5001747EBE8
:10038000030140EAD570B6196D4111E06D084FEADE
:10039000360645EAC0754FEA0752001B61EB0201C1
:1003A000001C41F5801149084FEA30000019514105
:1003B00032462B4603B000F01CB800F0B0B90098EC
:1003C000012240000023D0EB020263EBE0730098AF
:1003D00021464FEAE074B8EB000061EB0401E9E765
:1003E00083F000435BE781F0004158E730BCBDE893
:1003F000C08F30BCBDE8C04FFFF7DFBF2DE9FE4F17
:1004000081EA030404F0004421F0004100944FF01D
:10041000000B23F0004350EA01045ED052EA0304CB
:100420005BD0C3F30A54C1F30A552C44A4F2F3344D
:100430000194A0FB0254C1F3130141F48011C3F3F2
:10044000130343F4801301FB024400FB034E840AB0
:10045000970A44EA815447EA8357A4FB0768029548
:100460008D0A05FB07854FEA932C04FB0C542705E6
:10047000029D4FEA065847EA1637B5EB08056EEBC2
:10048000070C870E920E47EA811742EA8312A7FBF8
:100490000201B6EB0B0164EB00042B0D43EA0C33B5
:1004A0005E1844EB1C50DA465146E7FB0201C5F3E7
:1004B00013044FEA0B3343EA14534FEA0432019C0E
:1004C00043EA0603A4F10C040294009CCDE900B4B5
:1004D00000F034F903B000F003B800200146F9E75A
:1004E00030BCBDE8C08F2DE9F04D81EA030404F073
:1004F000004B21F0004514464FF0000A23F0004164
:1005000050EA050220D054EA01021DD0C5F30A5773
:100510000246C5F31303C1F31300C1F30A5640F4B6
:10052000801543F48013A7EB0608101BD64608F28B
:10053000FD3873EB050002D308F1010801E09218C1
:100540005B41B8F1000F03DA00200146BDE8F08DF1
:1005500000204FF48011064684460EE0171B73EB13
:10056000050705D3121B63EB050306434CEA010C98
:1005700049084FEA300092185B4150EA0107EDD17B
:1005800052EA030012D082EA040083EA050108431C
:1005900005D0101BAB4106D20122002306E0002249
:1005A0004FF0004302E06FF0010253101AEB060017
:1005B0004CEB085110EB0A0041EB0B01BDE8F04D8C
:1005C00000F0ADB800F0004230F000400AD0C10D9C
:1005D00001F56071C0F3160042EA0151C2084007FC
:1005E0001143704700200146704701F0004330B4CA
:1005F00021F0004150EA010206D00A0DA2F5607216
:10060000C1F31301002A02DC30BC00207047440F04
:1006100044EAC104C100E01830BC00EBC25000F055
:1006200047B830B50B46014600202022012409E0DE
:1006300021FA02F59D4205D303FA02F5491B04FA9B
:1006400002F52844151EA2F10102F1DC30BD202A7A
:1006500004DB203A00FA02F1002070479140C2F119
:10066000200320FA03F3194390407047202A04DB4B
:10067000203A21FA02F00021704721FA02F3D0401B
:10068000C2F120029140084319467047202A06DB38
:10069000CB17203A41FA02F043EAE07306E041FA50
:1006A00002F3D040C2F1200291400843194670473E
:1006B0000029A8BF7047401C490008BF20F0010076
:1006C000704710B4B0FA80FC00FA0CF050EA010454
:1006D00004BF10BC704749B1CCF1200421FA04F4E6
:1006E00011FA0CF118BF012121430843A3EB0C01BF
:1006F000CB1D4FEA00614FEA102042BF002010BC22
:10070000704700EBC35010440029A4BF10BC7047D1
:10071000401C490008BF20F0010010BC704710B514
:10072000141E73F1000408DA401C41F10001921814
:100730005B411A4301D120F0010010BD2DE9F04DBD
:1007400092469B4611B1B1FA81F202E0B0FA80F212
:1007500020329046FFF77BFF04460F4640EA0A002E
:1007600041EA0B0153465A46084313D0114653EA57
:10077000010019D0C8F140025046FFF777FF054647
:100780000E46504659464246FFF761FF084305D0E2
:10079000012004E020463946BDE8F08D00200543E5
:1007A00046EAE0762C4337430A986305E40AA0EB57
:1007B00008000022FD0A44EA47540A3002D500200E
:1007C0000146E9E7010510196941DDE9084500190D
:1007D0006941BDE8F04DA2E7C1F30A52C1F313012C
:1007E00040F2FF3341F480119A4202DA00200146C0
:1007F000704740F233439A42A2F2334202DC524243
:10080000FFF734BFFFF723BF30B5041E71F10004BA
:1008100004DB4FF00044404264EB0101141E73F10D
:10082000000405DB1C464FF00043524263EB040317
:10083000994208BF904230BD064C074D06E0E06883
:1008400040F0010394E8070098471034AC42F6D317
:10085000FFF7A0FC086D0008286D000810B50146E0
:10086000806A826D12F0500F05D0826DD20623D5BA
:1008700000F067FF10BD816D41F400718165016872
:100880000A68120715D5CA6812F4406F0ED1C968FC
:10089000890400290ADB816D21F480718165816DF5
:1008A000C90403D4816D41F00101816500F024FF8A
:1008B00010BDC9688907ECE7006D426BBDE81040C8
:1008C0000846104710B5806A816D41F0400181658E
:1008D000C16D41F00401C16500F033FF10BD10B5DA
:1008E000806A00F02DFF10BDF8B50446002000908E
:1008F0002068816801F00301012902D10168C9075C
:1009000035D181681B4A114222D18168D5432940E3
:10091000491C8160184819490068B0FBF1F000EBF0
:100920008000400000E0401E00900028FBD101F054
:1009300067FB064616E0816811F0010F03D181685C
:100940002940491C816001F05BFB801B022809D90A
:10095000A06D40F01000A065E06D40F00100E06582
:100960000120F8BD20680168C943C907E3D1002010
:10097000F8BD00003F0000808400002080841E003D
:10098000FEE700002DE9F041644E5AA12DED028BE7
:10099000304605F015FE05F049FD614DA888E9884F
:1009A000401A400000EE100AB8EEC00A10EE100A1D
:1009B000FFF708FE9FED5B1B53EC112BFFF71EFDAD
:1009C0009FED5A1B53EC112BFFF78DFDFFF70DFE2A
:1009D00008EE100ADFED578A88EE280A10EE100A9A
:1009E000FFF7F0FD41EC100B53A153EC102B3046F8
:1009F00005F0E6FD18EE100A58495A4C08445849CB
:100A000088420DD2207840F00400207018EE100AC1
:100A1000FFF7D8FD41EC100B53A153EC102B08E06D
:100A200018EE100AFFF7CEFD41EC100B55A153EC68
:100A3000102B304605F0C4FD2889400000EE100A56
:100A4000B8EE408A88EE280A10EE100AFFF7BAFDC9
:100A500041EC100B53A153EC102B304605F0B0FDC8
:100A600018EE100A59494FF400070844B84205D857
:100A7000207857A140F00200207000E05DA13046D0
:100A800005F09EFD6888400000EE100AB8EE408A2E
:100A900088EE280A10EE100AFFF794FD41EC100BC7
:100AA0005EA153EC102B304605F08AFD18EE101AAB
:100AB00062480844B84205D8207861A140F001009E
:100AC000207000E065A1304605F07AFD05F024FEB7
:100AD00018B16AA1304605F073FD20780F2807D0C1
:100AE00071A1BDEC028B3046BDE8F04105F068BD58
:100AF00075A1F6E70D0A0D0A0D0A0D0A0D0A20442C
:100B00004F493243205043422054455354494E47A5
:100B10002053544152544544000000000038014025
:100B2000C00500203333333333B33840CDCCCCCC85
:100B3000CCCC124000007A440D0A202B33562056AC
:100B4000726566206368616E6E656C20766F6C748A
:100B50006167653A20252E3266205600FFFFD0BA25
:100B6000FFBF12001B0000200D0A202B335620432C
:100B700048414E4E454C2E2E2E2E2E2E2E2E2E2EF3
:100B80004F4B00000D0A202B3356204348414E4E58
:100B9000454C2E2E2E2E2E2E2E2E2E2E4641494CDC
:100BA000000000000D0A2054656D70657261747557
:100BB0007265206368616E6E656C20766F6C74611F
:100BC00067653A20252E326620560000000086BB5D
:100BD0000D0A2054454D504552415455524520432D
:100BE00048414E4E454C202E2E2E2E2E2E2E2E2E91
:100BF0002E4F4B000D0A2054454D5045524154553F
:100C00005245204348414E4E454C202E2E2E2E2E2E
:100C10002E2E2E2E2E4641494C0000000D0A204457
:100C20004F206368616E6E656C20766F6C746167CF
:100C3000653A20252E32662056200000000006BCB2
:100C40000D0A20444F204348414E4E454C202E2E45
:100C50002E2E2E2E2E2E2E2E4F4B00000D0A20440F
:100C60004F204348414E4E454C202E2E2E2E2E2EE8
:100C70002E2E2E2E4641494C000000000D0A204326
:100C80004150414349544F522053454E534F5220F7
:100C9000434F4D4D554E49434154494F4E204641D7
:100CA000494C0D0A000000000D0A444F2049324310
:100CB00020504342202E2E2E2E2E2E2E2E2E2E2E25
:100CC000204641494C0000000D0A444F2049324360
:100CD00020504342202E2E2E2E2E2E2E2E2E2E2E05
:100CE000204F4B0D0A0000002DE9F047DFF8A091DE
:100CF0005BA1484605F064FC00F078FA03F0E6FAE0
:100D000003F0CCFB05F0C4FD05F096FC614D4FF4FB
:100D1000807600223146284601F06CF9022000F06E
:100D2000BBFF77003946284601F05FF95A4C00288E
:100D300017D05AA1484605F043FC01223146284607
:100D400001F058F9022000F0A7FF3946284601F0CB
:100D50004CF900280BD020885FA140F002002080D1
:100D600006E020886BA140F001002080E2E777A137
:100D7000484605F025FC00224021284601F03AF9BA
:100D8000022000F089FF4FF480673946284601F0C1
:100D90002CF9002816D07CA1484605F011FC012250
:100DA0004021284601F026F9022000F075FF39465F
:100DB000284601F01AF958B1208881A140F00800B6
:100DC000208006E020888CA140F004002080E3E72A
:100DD00097A1484605F0F4FBDFF88C824FF480556C
:100DE00000222946404601F005F9022000F054FF98
:100DF0004FF090473146384601F0F7F8002816D0FA
:100E00009AA1484605F0DCFB01222946404601F044
:100E1000F1F8022000F040FF3146384601F0E5F8D5
:100E200058B120889EA140F02000208006E0208854
:100E3000A8A140F010002080E3E7B3A1484605F0E8
:100E4000BFFB03F079FF2088A0F5E061FF3905D0F2
:100E5000BAA14846BDE8F04705F0B2BBC1A1F8E72A
:100E60000D0A0D0A0D0A0D0A0D0A20434F4E545269
:100E70004F4C4C4552205043422054455354494E08
:100E8000472053544152544544200D0A0D0A000096
:100E90000038014000080048320000200D0A2050B0
:100EA0006F736974696F6E5F6D6F746F7220666FB8
:100EB000727761726420616E642072657665727308
:100EC000652070696E73204C6F676963206C6F7763
:100ED000204641494C0000000D0A20506F73697490
:100EE000696F6E5F6D6F746F7220666F727761727B
:100EF0006420616E64207265766572736520706926
:100F00006E73204C6F6769632068696768204F4B78
:100F1000000000000D0A20506F736974696F6E5FE6
:100F20006D6F746F7220666F727761726420616E8C
:100F30006420726576657273652070696E73204CEB
:100F40006F676963206C6F77204F4B000D0A20504C
:100F50006F736974696F6E5F6D6F746F7220666F07
:100F6000727761726420616E642072657665727357
:100F7000652070696E73204C6F67696320686967CC
:100F800068204641494C00000D0A20576174657283
:100F9000206A65742070696E7320616E64207365C9
:100FA0006E736F7220706F7765722070696E732038
:100FB0004C6F676963206C6F77204641494C000095
:100FC0000D0A205761746572206A65742070696E1D
:100FD0007320616E642073656E736F7220706F771B
:100FE00065722070696E73204C6F67696320686951
:100FF0006768204F4B0000000D0A2057617465722E
:10100000206A65742070696E7320616E6420736558
:101010006E736F7220706F7765722070696E7320C7
:101020004C6F676963206C6F77204F4B00000000A6
:101030000D0A205761746572206A65742070696EAC
:101040007320616E642073656E736F7220706F77AA
:1010500065722070696E73204C6F676963206869E0
:101060006768204641494C00000400480D0A2044AE
:1010700065746563742073776974636820616E6456
:1010800020496E642073656E73652070696E7320ED
:101090004C6F676963206C6F77204641494C0000B4
:1010A0000D0A2044657465637420737769746368FE
:1010B00020616E6420496E642073656E73652070D4
:1010C000696E73204C6F6769632068696768204F99
:1010D0004B0000000D0A204465746563742073772B
:1010E0006974636820616E6420496E642073656E64
:1010F00073652070696E73204C6F676963206C6F35
:1011000077204F4B000000000D0A20446574656392
:10111000742073776974636820616E6420496E641B
:101120002073656E73652070696E73204C6F6769FC
:10113000632068696768204641494C000D0A0D0A22
:1011400020434F4E54524F4C4C4552205043422E58
:101150002E2E2E2E2E2E2E2E2E2E2E2E4641494C4B
:10116000000000000D0A0D0A20434F4E54524F4C10
:101170004C4552205043422E2E2E2E2E2E2E2E2EF9
:101180002E2E2E2E4F4B0000014800F090BC000088
:10119000640A002030B590F8444004F01C05012496
:1011A000AC40056C6C60046863608368102B036856
:1011B00003D099600068C26030BD9A600068C16069
:1011C00030BD704710B54FF4006000F03BFEBDE845
:1011D00010404FF4005000F035BE082000F032BE41
:1011E000102000F02FBE202000F02CBE70B51D4D49
:1011F00000220421284600F0FDFE9F2005F0B2F9F0
:10120000A52005F0AFF90446A52005F0ABF9064688
:10121000A52005F0A7F9210441EA06240443184E4D
:10122000224611A1304605F0CBF9012204212846BF
:1012300000F0E0FE134884420CD1134822460178A6
:1012400041F0010101701148018841F48061018081
:101250000FA101E0224614A13046BDE8704005F020
:10126000AFB90000000C0048466C61736820494427
:101270002E2E2E2E2E2E2E2E2E25780D0A0000001C
:101280000038014001851F0063000020320000206B
:1012900020464C4153482E2E2E2E2E2E2E2E2E2EF4
:1012A0004F4B0D0A00000000464C4153482E2E2E95
:1012B0002E2E2E2E2E2E2E4641494C0D0A000000B9
:1012C00001225103014800F095BE000000080048CB
:1012D00000224FF40051014800F08CBE0008004885
:1012E000012210214FF0904000F084BE0022102116
:1012F0004FF0904000F07EBE2DE9F84300270446F1
:10130000009790F85400DFF8C8930D46B8460128BE
:1013100011D0012684F85460206803F051F860B1C0
:10132000A06D40F02000A0655FF0010784F85480B4
:101330003846BDE8F8830220FBE76868052812D824
:10134000022807D0032807D0042807D0052807D093
:10135000062007E00C2005E0122003E0182001E041
:101360004FF480706860A9884FF4407C01F44073AA
:101370009CFAACFCBCFA8CFC206823FA0CF300EB62
:1013800083002A6801F01F014FF01F0C0CFA01FCCA
:10139000036BC2F3846223EA0C038A4013430363A2
:1013A0002068816811F00C0F1CD1AA68296803F02D
:1013B0000BF820686969C268C2F3C102520091400B
:1013C0002A69042A0FD000EB82002B68DFF804C3DF
:1013D000026E03F0F84302EA0C020B431A4342F098
:1013E0000041016672E0002102F0E4FF4003206842
:1013F0004FF0000173D002F0DDFF90FAA0F0B0FAD8
:1014000080F1286842036FD090FAA0F0B0FA80F023
:10141000814204D100221146206802F0F8FF012128
:10142000206802F0C7FF400320684FF001015ED042
:1014300002F0C0FF90FAA0F0B0FA80F128684203F1
:101440005AD090FAA0F0B0FA80F0814204D1002284
:101450000121206802F0DBFF0221206802F0AAFFD0
:10146000400320684FF0020149D002F0A3FF90FA38
:10147000A0F0B0FA80F12868420345D090FAA0F0BD
:10148000B0FA80F0814204D100220221206802F0EB
:10149000BEFF0321206802F08DFF400320684FF05B
:1014A000030134D002F086FF90FAA0F0B0FA80F188
:1014B0002868420330D090FAA0F0B0FA80F0814260
:1014C00004D100220321206802F0A1FF2068816876
:1014D00001F00301012925D121E000E004E002F040
:1014E00069FFC0F384618CE7C0F3846090E702F089
:1014F00061FFC0F38461A1E7C0F38460A5E702F057
:1015000059FFC0F38461B6E7C0F38460BAE702F024
:1015100051FFC0F38461CBE7C0F38460CFE701687B
:10152000C9077DD12A7B296850F8B03FC1F3120C5E
:1015300023EA0C0302F0200C4FF0FF3202FA0CF207
:101540000A40C2F312010B430360E96849456AD1BE
:101550002868410317D090FAA0F1B1FA81F1491C33
:1015600009294FEA40312DD800290FD090FAA0F177
:10157000B1FA81F101F1010106FA01F609D100BFCA
:10158000C0F3846109E0C0F38461E8E7C0F38461DB
:10159000F0E790FAA0F1B1FA81F101F1010146EA18
:1015A000816102D1C0F3846003E090FAA0F0B0FA48
:1015B00080F000EB40004FF4401202EB005041EA93
:1015C00000012AE000290CD090FAA0F1B1FA81F1D3
:1015D00001F1010106FA01F606D100BFC0F38461F2
:1015E00006E0C0F38461F3E790FAA0F1B1FA81F16B
:1015F00001F1010146EA816102D1C0F3846003E098
:1016000090FAA0F0B0FA80F0334A00EB400002EB11
:10161000005041EA000141F00071AA68206800E032
:1016200001E002F0D1FE2D4E29682D4B2D4D2E48A4
:10163000B14204D1826802F0E07212020FD59942E1
:1016400004D1826802F0E072D20108D5A9427FF489
:101650006DAE826802F0E07252023FF567AE234A37
:10166000B1421AD121689142F1D18168826801F0BA
:10167000E07141F4000122F0E0720A4382601C48EC
:101680001C490068B0FBF1F0C0EB0010C00000E0A6
:10169000401E00900028FBD148E6994208D12168FD
:1016A0009142F9D1816801F0E07141F0807109E067
:1016B000A942F1D121689142EED1816801F0E07137
:1016C00041F48001826822F0E0720A4382602DE6D4
:1016D00000007F4000F0FF03000050FE000052C7F2
:1016E000000084CB0100008000030450000004507F
:1016F0008400002080841E0030B50D49884215D139
:101700000C4C0D4A0C4B0020A18812889FED0B0A4F
:10171000103300E010B98A4200D9114603EB80056E
:10172000401C85ED000A0728F4DBA18030BD0000D5
:10173000F806002064000020240A002000000000B9
:1017400070477047F8B54FF0000504002E4600952D
:1017500002D0A06D10B107E00120F8BD204600F0D6
:10176000BFF8E66584F8546020688168C1F3407171
:1017700019B18168534A1140816020688168C1F3C2
:10178000007191B98168504A114041F080518160E7
:101790004E484F490068B0FBF1F000EB800040007C
:1017A00000E0401E00900028FBD120688168C1F352
:1017B000007141B9A16D41F01001A165E16D41F0E9
:1017C0000101E1650125A16DC90602D402F0F8FD11
:1017D00030B1A06D40F01000A06501252846F8BD8D
:1017E000A06D20F4807040F00200A0652068816840
:1017F00001F00301012902D10068C00706D1354874
:101800006168826822F47C120A438260E168A06BFE
:10181000E2690843A16841EA42310843616A40EA4B
:101820000140012904D1218D2B4A02EB414108439B
:10183000E16A29B101F47071226B014342EA0100AF
:101840002168CA68254B1A400243CA602068816833
:1018500011F00C0F12D1A169626B890341EA4202B7
:10186000C16844F2020399431143C160E06B01284F
:101870000CD02068016921F0010101612069012873
:101880002068016B21F00F0111D013E0D4E91001A1
:101890000843D4E912121143084321680A6940F24F
:1018A000FC739A43104340F001000861E6E7226AA6
:1018B000521E11430163A06D20F0020040F00100B0
:1018C000A0658BE7C0FFFF5FC0FFFF7F84000020A3
:1018D00080841E00000304500000FEFF07C0F0FFDC
:1018E00070B506460068204986B0884239D11F4845
:1018F000C16C41F40051C164C06C0B2400F4005071
:1019000005903C2000258DE831006946184800F01C
:10191000A5FA01208DE8310069464FF0904000F0B3
:101920009DFA03208DE831006946124800F096FACE
:10193000124C1148C4E900058020A560C4E9035099
:10194000400060618000A0612020C4E907052046B6
:1019500000F00AF918B1842109A003F096FE34655D
:10196000A66206B070BD00000000045000100240E6
:10197000000800480004004808000240640A0020F3
:101980002E2E2F5372632F73746D33326C3478782C
:101990005F68616C5F6D73702E6300002DE9F0412C
:1019A000044616460F46006802F00AFD18B10225EB
:1019B0002846BDE8F08194F8540001280CD001209D
:1019C00084F854002046FEF78FFF05004FF000001A
:1019D00004D084F85400EBE70220EAE7A16D40F65A
:1019E0000162914341F48071A165A16D21F48011E0
:1019F000A165A16DC90404D5E16D21F00601E16581
:101A000000E0E065226D1249D162226D1149116337
:101A1000226D1149516322681C21116084F8540021
:101A20002068416841F0100141602068C16841F0C0
:101A30000101C160216833463A464031206D00F013
:101A4000F3F820688168054A1140091D8160AFE7FD
:101A50005D080008DF080008C5080008C0FFFF7F18
:101A600010B590F825100024022903D00421C16389
:101A700001241AE001680A6822F00E020A60016877
:101A80000A6822F001020A6090F84410036C01F029
:101A90001C02012101FA02F25A6080F8251000218F
:101AA00080F82410816B01B18847204610BDF0B446
:101AB000016C0C6801680D6890F8442002F01C0667
:101AC000042202FA06F3234211D06B070FD50B68EC
:101AD0009B0603D40B6823F004030B6090F84410BA
:101AE00001F01C018A40016C4A60016B1DE0022379
:101AF00003FA06F727424FF0000C4FF0010218D00E
:101B0000AF0716D50C68A40605D40C6824F00A04A7
:101B10000C6080F8252090F8441001F01C018B40E7
:101B2000016C4B6080F824C0C16A00291AD0F0BC57
:101B300008470823B340234214D02B0712D50B6863
:101B400023F00E030B6090F84410036C01F01C01AD
:101B500002FA01F15960C26380F8252080F824C0A0
:101B6000416BE2E7F0BC704770B568B12B4C03687D
:101B700014212B4AA34209D22A4C1C44B4FBF1F194
:101B80008900C0E910210BE0012070BD234C6442A4
:101B90001C44B4FBF1F18900416420490839016417
:101BA000022180F825101C6847F6F0718C43D0E9BB
:101BB00002152943D0E90456354329438569294351
:101BC000C5692943056A2943214319608168B1F534
:101BD000804F19D0036C0F21934202D152F8A83FD5
:101BE00002E00E4AA032136890F8444004F01C044E
:101BF000A1408B43136090F84430416803F01C030C
:101C000099401368194311600021C163012280F8D3
:101C1000252080F82410084670BD0000080402400A
:101C200000000240F8FFFDBF70B5044690F82400A4
:101C3000002501280CD0012084F8240094F82560A8
:101C40000020012E06D084F824000225284670BD0D
:101C5000022070BD022684F82560E06320680668D3
:101C600026F0010606602046FFF794FA206B002854
:101C70002068016802D041F00E0106E021F0040165
:101C800001602068016841F00A0101602068016874
:101C900041F001010160D9E770B5044600F0B0F9E8
:101CA0000546601C00D0641C00F0AAF9401BA0424D
:101CB000FAD370BD2DE9F04F002301270F24DFF880
:101CC000F8A073E007FA03F616EA01026DD0056882
:101CD0004FEA43084FF0030C0CFA08FC45EA0C05E8
:101CE0000560DD0800EB8508C346D8F820905D0745
:101CF0004FEAD56804FA08F529EA0509CBF82090DF
:101D0000856825EA0C0585604568B5434560C5686A
:101D100025EA0C05C56023F0030606EB0A05D5F895
:101D200008C09E07360F04FA06F909EA0C08B0F15C
:101D3000904F06D0DFF884C0604505D14FF0010C0C
:101D400019E04FF0000C16E0DFF874C0604502D1D6
:101D50004FF0020C0FE0DFF86CC0604502D14FF08D
:101D6000030C08E0DFF860C0604502D14FF0040CBE
:101D700001E04FF0070C0CFA06FCC44515D1D5F86C
:101D800008C02CEA090CC5F808C0104E3568954308
:101D90003560361D356895433560351D2E68964390
:101DA0002E602D1D2E6896432E605B1C31FA03F2C7
:101DB00088D100F00DB80000000001400004004888
:101DC00000080048000C00480010004800040140D2
:101DD00030BCBDE8C08F000010B51749174C012278
:101DE000174B08280CD010280FD0202814D0B0F59D
:101DF000006F16D0B0F5005F18D00020186010BD3D
:101E00000878401C0870022014E04878401C487094
:101E100003200FE01A6010BD8878401C8870227083
:101E2000F8E7C878401CC870042003E00879401C1B
:101E3000087106202070EDE7780000200C000020DB
:101E400010000020044910B50A68024202D0086060
:101E5000FFF7C2FF10BD0000140401402DE9F84F48
:101E6000DFF864B100234FF0010C4FF0030A4FF08C
:101E70000F090BF1040EA0E00CFA03F6324072D009
:101E80004C68022C01D0122C0ED1DC0800EB840827
:101E9000D8F820405D07EF0E09FA07F5AC430D694D
:101EA000BD402543C8F8205007685D0091F80480C4
:101EB0000AFA05F408F00308A74308FA05F848EA07
:101EC0000708C0F800804F68012F05D0022F03D00B
:101ED000112F01D0122F11D18768D1F80C80A743A0
:101EE00008FA05F848EA0708C0F808804768B743C9
:101EF0000E79C6F300169E403E434660C668A64370
:101F00008C68AC403443C4604C68E40054D52F4C1A
:101F1000256E45F001052566246E23F0030504F0C7
:101F2000010400942A4C2E19B4689D072F0F09FA5A
:101F300007F5AC43B0F1904F04D0264DA84203D131
:101F4000012512E0002510E0234DA84201D1022511
:101F50000BE0224DA84201D1032506E0204DA84206
:101F600002D1042501E027E00725BD402543B560E7
:101F7000DBF800405D464E689443F60300D51443F9
:101F80002C60DEF8004075464E689443B60300D5D9
:101F900014432C600C4D08352C684E689443F602AF
:101FA00000D514432C60084D0C352C684E689443C2
:101FB000B60200D514432C605B1C0A6832FA03F4A5
:101FC0007FF45AAF00F00EB8000401400010024048
:101FD000000001400004004800080048000C0048D0
:101FE0000010004818BCBDE8E08F0069084000D030
:101FF000012070470AB1816170478162704700001B
:1020000001480068704700008000002090F84120DF
:10201000202A24D190F84020012A20D0012280F8E3
:102020004020242280F841200268136823F0010335
:1020300013600268136823F4805313600268136806
:102040000B43136001680A6842F001020A60202114
:1020500080F84110002180F84010084670470220A7
:10206000704790F84120202A22D190F84020012A80
:102070001ED0012280F84020242280F841200268EE
:10208000136823F0010313600268136823F470637C
:1020900043EA0121116001680A6842F001020A6006
:1020A000202180F84110002180F840100846704738
:1020B0000220704770B5040004D094F84100002558
:1020C00028B109E04FF400706064012070BD84F80D
:1020D0004050204600F074F9242084F84100206824
:1020E000016821F0010101606068216820F07060E2
:1020F00008612068816821F400418160E06801285E
:10210000A06807D040F4044021688860E068022895
:1021100003D006E040F40040F6E721684FF4006089
:10212000486020684168114A114341602068C168D5
:1021300021F40041C160D4E904010843A16940EAE7
:1021400001202168C860D4E90701084321680860BC
:102150002068016841F0010101606564202084F875
:102160004100256384F84250002070BD00800002C9
:102170002DE9F84F044690F84100DDF828A01F46ED
:1021800090468B4620287DD194F84000012879D0D4
:10219000012084F84000FFF733FF0646012200903B
:1021A0001923D103204601F0D5FFE8BB222084F893
:1021B0004100102084F8420000256564C4F82480A2
:1021C00067856563618D3048FF274FF080784FF059
:1021D0000079FF2903D927853A46009038E0618DC0
:1021E0002185009039E05946204601F09DFF12E01C
:1021F00001F0DCFFC0B92068416A606A421C62627B
:102200000170208D401E80B22085618D491E618540
:10221000618D01B168B1608D32460028514620467B
:10222000E6D102F005F800E000E0D0B1012000F0B6
:102230002FB85346002280212046009601F08AFFE5
:102240000028F3D1608DFF2804D927853A460095F0
:102250004346C8E7608D2085009594F828204B46BA
:10226000C1E721682020C86121684A68074B1A40ED
:102270004A6084F8410084F8425084F840500020BD
:10228000D5E7FFE70220D2E70024008000E800FE47
:1022900018BCBDE8E08F00002DE9F84F044690F827
:1022A0004100DDF828A01F4690468B4620287DD1AE
:1022B00094F84000012879D0012084F84000FFF70D
:1022C0009FFE0646012200901923D103204601F00B
:1022D00041FFE8BB212084F84100102084F842002F
:1022E00000256564C4F8248067856563618D304886
:1022F000FF274FF080784FF00079FF2903D9278519
:102300003A46009038E0618D2185009039E05946C9
:10231000204601F009FF12E001F0B0FFC0B9606A89
:10232000411C6162216800788862608D401E608572
:10233000208D401E80B22085618D01B168B1608D15
:102340003246002851462046E6D101F071FF00E0F8
:1023500000E0D0B1012000F02FB8534600228021C8
:102360002046009601F0F6FE0028F3D1608DFF288C
:1023700004D927853A4600954346C8E7608D2085F5
:10238000009594F828204B46C1E721682020C861B9
:1023900021684A68074B1A404A6084F8410084F873
:1023A000425084F840500020D5E7FFE70220D2E7F2
:1023B0000020008000E800FE18BCBDE8E08F0000AF
:1023C00000B500680E4987B0884216D1C020009041
:1023D0001220019001200290032003900420049019
:1023E00069460848FFF73AFD0748816D41F400113E
:1023F0008165806D00F40010059007B000BD0000FD
:1024000000540040000400480010024002480168E7
:10241000491C0160704700008000002010B50320B7
:1024200000F088F8002000F005F800F017F8002010
:1024300010BD000010B5044607484FF47A710068DB
:10244000B0FBF1F001F067FB00222146501E00F0C6
:1024500051F8002010BD0000840000201E4808B57F
:10246000016E41F001010166016E01F00101009170
:10247000816D41F080518165806D00F08050009049
:10248000032000F057F8002211466FF00B0000F017
:1024900031F8002211466FF00A0000F02BF80022FC
:1024A00011466FF0090000F025F800221146501F78
:1024B00000F020F800221146101F00F01BF8002247
:1024C0001146901E00F016F80022BDE808401146A3
:1024D000501E00F00FB800000010024000F01F0274
:1024E000012191404009800000F1E020C0F8001176
:1024F00070470000F0B40E4B1B680C46C3F3022378
:10250000C3F10705042D00D90425191D072901D29F
:10251000002300E0DB1E012606FA05F1491E2140DA
:1025200099409E40761E16403143F0BC02F084BABA
:102530000CED00E0064900F0070208684FF6FF03C3
:10254000184040EA0220034A104308607047000028
:102550000CED00E00000FA051549B0F5007F0868B1
:10256000C0F3412009D0022805D0086820F4C060DB
:1025700040F480600860002070470128FBD00868A4
:1025800020F4C06040F4007008600A480A4A0068FD
:10259000B0FBF2F03222504300E0401E10B14A6915
:1025A0005205FAD448694005E5D50320704700007C
:1025B000007000408400002040420F000248006884
:1025C00000F4C060704700000070004002480168DD
:1025D00041F4807101607047007000402DE9F84FB0
:1025E000044600270088A84D3E46000515D5606CBE
:1025F00060B1B0F5000F04D0B0F5400F2BD001272B
:102600000AE0E86840F48030E86024E00021201D02
:1026100002F0A4FA07001ED03E46206880033AD597
:10262000A86D4FF00008C00009D4A86D40F080509C
:10263000A865A86D4FF0010800F080500090DFF809
:102640004CA2DAF8001041F48071CAF80010FFF7CC
:10265000D7FC814610E0D5F88800616C20F440007A
:102660000843C5F88800D8E7FFF7CAFCA0EB0900CB
:10267000022801D9032705E0DAF80000C005F3D5E8
:10268000002F7DD04FEA0706B8F1000F03D0A86DE8
:1026900020F08050A8652078C00707D0D5F88800C2
:1026A000216A20F003000843C5F8880020788007DD
:1026B00007D5D5F88800616A20F00C000843C5F8FA
:1026C00088002078400707D5D5F88800A16A20F057
:1026D00030000843C5F888002078800607D5D5F873
:1026E0008800E16A20F440600843C5F8880020882B
:1026F000800507D5D5F88800E16B20F44020084319
:10270000C5F888002088400507D5D5F88800216CD9
:1027100020F440100843C5F888002078400607D50B
:10272000D5F88800216B20F440500843C5F8880094
:102730002078000607D5D5F88800616B20F440406A
:102740000843C5F888002088C00507D5D5F888005B
:10275000A16B20F440300843C5F8880020684FF092
:10276000006700034FF0806850D5D5F88800A16C51
:1027700020F040600843C5F88800A06CB84200E033
:1027800005E03BD1E86840F48010E8603EE0D5F811
:10279000900010F4407014D0A16D814211D0D5F892
:1027A0009000D5F8901020F4407041F48031C5F8C5
:1027B0009010D5F8901021F48031C5F89010C5F82C
:1027C0009000C00711D0FFF71BFC074641F2883983
:1027D00007E000BFFFF714FCC11B494501D90326E0
:1027E00052E7D5F890008007F4D5D5F89000A16D98
:1027F00020F440700843C5F8900045E7404505D1F6
:102800000121201D02F0AAF900B10646206840030C
:1028100017D5D5F88800E16C20F040600843C5F872
:102820008800E06CB84204D1E86840F48010E860A9
:1028300007E0404505D10121201D02F08FF900B1CC
:1028400006462088400411D5D5F88800216D20F077
:1028500040500843C5F88800206DB0F1805F05D175
:102860000221201D02F07AF900B1064620880004FA
:1028700006D555F8880F616D20F080400843286028
:10288000304600F005B80000001002400070004023
:1028900018BCBDE8E08F00002DE9F0470F460500A9
:1028A00058D03E4E306800F00700B84209D2306878
:1028B00020F0070038433060306800F00700B8426D
:1028C00048D12878364CC0072CD06868032811D02E
:1028D000022812D0216898B1490500293ADAA16886
:1028E00021F003010143A160FFF78AFB804641F21A
:1028F000883910E021688901EFE721688903ECE756
:102900008907EAE7FFF77CFBA0EB0801494502D9FC
:102910000320BDE8F087A068696800F00C00B0EB08
:10292000810FEFD12878800705D5A068A96820F02D
:10293000F0000843A060306800F00700B8420BD9EF
:10294000306820F0070038433060306800F007003E
:10295000B84201D00120DCE72878400705D5A068FF
:10296000E96820F4E0600843A0602878000706D5F5
:10297000A068296920F4605040EAC100A06000F01E
:102980003BF8A168074AC1F30311515CC8400649EE
:1029900008600020FFF74EFD0020BAE7002002404B
:1029A00000100240C06C000884000020014800684C
:1029B00070470000840000200448054900688968C9
:1029C000044AC1F30221515CC840704784000020D2
:1029D00000100240006D000804480549006889683D
:1029E000044AC1F3C221515CC840704784000020F2
:1029F00000100240006D000830B52D490023184634
:102A00008A682C4C12F00C0F4FEA640514D08A68C7
:102A1000C2F38102032A04D1CA6802F00302012A28
:102A20000AD08A68C2F38102012A19D08A68C2F3E7
:102A30008102022A16D016E00A68120704D4D1F8DF
:102A40009420C2F3032202E00A68C2F303121A4B75
:102A500053F822308A6812F00C0F04D1184602E0B5
:102A6000204600E028468A68C2F38102032A1DD16D
:102A7000C868CA6800F00300C2F30212521C0228A0
:102A800004D0032805D0B3FBF2F004E0B4FBF2F06D
:102A900001E0B5FBF2F0CA68C968C2F306225043F0
:102AA000C1F34161491C4900B0FBF1F030BD0000A9
:102AB000001002400024F400D06C00082DE9F84317
:102AC00004007DD02078FE4DC0065DD5A86810F0CA
:102AD0000C0F0AD0A0690028286873D040F00100CC
:102AE0002860FFF78DFA064655E02868800702D572
:102AF000A0690028E5D0216A2868000703D5286866
:102B000000F0F00004E0D5F89400F02202EA101082
:102B1000814216D9084602F0B7F8002850D128683B
:102B200040F0080028602868216A20F0F00008437F
:102B300028606868E16920F47F4040EA012068600D
:102B400015E0286840F0080028602868216A20F015
:102B5000F000084328606868E16920F47F4040EA9B
:102B600001206860206A02F08FF80028D6D1FFF7B4
:102B700043FFA968D34AC1F30311515CC840D2494D
:102B800008600020FFF756FC2CE000BFFFF738FA82
:102B9000801B02287ED828688007F7D5286840F077
:102BA000080028602868216A20F0F00008432860A7
:102BB0006868E16920F47F4040EA0120686011E024
:102BC000B2E0FFE720F001002860FFF719FA06469F
:102BD00005E000BFFFF714FA801B0228DAD8286846
:102BE0008007F7D42078C00748D0A868C0F38100D8
:102BF00002281DD0A868C0F38100032803D1E8682B
:102C0000C043800714D06068B0F5803F17D0B0F59E
:102C1000A02F286817D020F480302860286820F47E
:102C2000802028606068E0B1FFF7EAF9064614E00A
:102C30002868800322D56068002875D01EE02868C7
:102C400040F48030EDE740F480202860F7E700BFD3
:102C5000FFF7D6F9801B64289CD828688003F7D535
:102C60000CE0FFF7CDF9064605E000BFFFF7C8F915
:102C7000801B64288ED828688003F7D420788007CA
:102C800042D5A868C0F38100012816D0A868C0F317
:102C9000810000E0CEE0032804D1E86800F00300E2
:102CA00002280AD0E068002828681DD040F480700F
:102CB0002860FFF7A5F906460BE0286840050BD50C
:102CC000E0680028B9D007E0FFF79AF9801B0228D6
:102CD00084D828684005F7D56868217C20F0F85032
:102CE00040EA016068600FE020F480702860FFF720
:102CF00087F9064605E000BFFFF782F9801B02282E
:102D0000AAD828684005F7D42078000729D560693B
:102D10000028D5F8940013D040F00100C5F89400C5
:102D2000FFF76EF9064606E01DE100BFFFF768F900
:102D3000801B02287ED8D5F894008007F6D510E0D5
:102D400020F00100C5F89400FFF75AF9064604E0A8
:102D5000FFF756F9801B02286CD8D5F8940080073D
:102D6000F6D42078400761D5A86D0026C00008D4AD
:102D7000A86D40F08050A865A86D012600F0805035
:102D8000009052480168C90511D40168804641F499
:102D900080710160FFF734F9074604E0FFF730F96E
:102DA000C01B022846D8D8F80000C005F6D5A06898
:102DB000012815D00528D5F8900016D020F0010084
:102DC000C5F89000D5F8900020F00400C5F89000F8
:102DD000A06841F28838B8B1FFF712F907460EE053
:102DE000D5F8900040F00100F0E740F00400C5F88D
:102DF0009000F5E7FFF704F9C11B41451AD8D5F853
:102E000090008007F6D50CE0FFF7FAF8074604E0DB
:102E1000FFF7F6F8C11B41450CD8D5F890008007A4
:102E2000F6D41EB1A86D20F08050A86520788006E9
:102E300029D500E089E0606A0028D5F8980011D013
:102E400040F00100C5F89800FFF7DAF8064604E004
:102E5000FFF7D6F8801B02287DD8D5F898008007A8
:102E6000F6D510E020F00100C5F89800FFF7C8F88B
:102E7000064604E0FFF7C4F8801B02286BD8D5F89B
:102E800098008007F6D4A06AC8B1A968C1F381018F
:102E9000032968D00228286820F08070286019D0A3
:102EA0002868000103D4E86820F00300E860E868BF
:102EB00007490840E860FFF7A3F804464EE050E0F9
:102EC00000100240C06C0008840000200070004028
:102ED000FFFFEEFEFFF794F8064604E0FFF790F8D8
:102EE000801B022837D828688001F7D4206B54F85B
:102EF0002C1F000110380843218A1C4A490802EBA4
:102F00004151A26841EA02210843217D4FF07E42EF
:102F1000490802EB41610843217B40EAC160E86057
:102F2000286840F080702860E86840F08070E860B1
:102F3000FFF766F8044604E0FFF762F8001B02287A
:102F400009D828688001F7D50BE004E0FFF758F8AE
:102F5000001B022802D90320BDE8F88328688001FD
:102F6000F4D40020F8E70120F6E700000000E0FFBD
:102F700070470068503050F8210070470149012027
:102F8000087070471D00002010B51B4904464FF41F
:102F9000802008601EE08868C0040BD5C868C005A2
:102FA00008D5C86800F0800060F4C070C860204692
:102FB000FFF7E4FF2068816889040BD5C1688905A3
:102FC00008D5C16801F0800161F42071C16020461C
:102FD000FFF7CEFF21688868C00402D5C868C00525
:102FE000D9D48868800402D5C8688005D3D401206C
:102FF00084F8210010BD0000140401402DE9F047C1
:10300000044690F82000012823D04FF0010884F8EE
:103010002080022084F821002268CA2050622268A1
:103020005320506220680025FF26B1F5807F81681B
:103030004FF0030A4FF47A790ED021F400718160C9
:103040002068816821F400518160FEF7D9FF0746AE
:1030500025E00220BDE8F08721F4807181602068BE
:10306000816821F480518160FEF7CAFF074604E0C1
:10307000FEF7C6FFC01B484509D82068C068C007D6
:10308000F6D010E0FEF7BCFFC01B484507D920680A
:10309000466284F821A084F820500320DAE72068F3
:1030A000C0688007EED52068466284F8218084F8E5
:1030B00020500020CEE7000010B500680B464168A4
:1030C0000D480140080CD870C1F304245C7001F075
:1030D0003F049C70C1F34231197052B901F018FEDF
:1030E000D870587801F014FE5870987801F010FEEE
:1030F0009870002010BD00003FFFFF0010B50B4688
:103100000168896A596001680969C1F30E01996013
:10311000006801680E480140C1F305401870C1F312
:1031200006245C7001F07F049C70402404EA114185
:10313000D97052B901F0ECFD1870587801F0E8FD33
:103140005870987801F0E4FD9870002010BD0000E0
:103150007F7F7F0070B5040003D094F8210010B188
:1031600007E0012070BD002084F82000204600F018
:103170004DF8022084F821002168CA2048622168A5
:1031800053204862204601F01DFEFF25042618BB8F
:10319000206881681C4A11408160216888686268E3
:1031A000A369104322691A43104388602168E068CC
:1031B000086120680169228941EA024101612068B1
:1031C000C16821F08001C16020688068800608D451
:1031D000204600F0F7F920B12068456284F82160AC
:1031E000BFE72068C16C21F00301C1646169E06937
:1031F00008432168CA6C1043C864206845620120F6
:1032000084F82100002070BDBFFF8FFF10B5044679
:1032100000680C49884214D1FFF7D8F90A4850F8E1
:10322000901F41F400410160002211462920FFF760
:1032300061F92920FFF752F92046BDE8104000F05F
:10324000C1B910BD00280040001002402DE9F05F18
:10325000044690F820000B46012849D04FF0010A9F
:1032600084F820A0022084F82100206800268068CD
:103270004FEA4060DAB3002857DA187801F048FDC9
:1032800093F8200001F044FD98781978DA7840EA44
:1032900001405978090241EA0241084393F820109D
:1032A00040EA0165D8695F680543586921680543AC
:1032B00098690743CA204862216853204862586AC7
:1032C0004FF0FF08B0F5807F20684FF47A7B81686B
:1032D0002DD021F4007181602068C16801F0800167
:1032E00061F42071C160FEF78BFE814655E002E07B
:1032F000022000F07BB8002800DBDE70187801F0B7
:1033000010FD0204587801F00CFD42EA0022987882
:1033100001F007FD0243D87842EA004293F820000A
:1033200001F0FFFC42EA0065BCE7DE70A8E721F48B
:10333000807181602068C16801F0800161F4C07112
:10334000C160FEF75DFE814606E000BFFEF758FE55
:10335000A0EB0900584517D82068C068C007F5D011
:103360002068C561206847642068816841F48071E5
:1033700081602068816841F480511FE0FEF740FEC3
:10338000A0EB0900584508D92168C1F82480032022
:1033900084F8210084F82060ABE72068C0688007CB
:1033A000ECD520680562206887642068816841F454
:1033B000007181602068816841F4005181600A4891
:1033C000016841F48021016007480830016841F438
:1033D000802101602168C1F8248084F821A084F84C
:1033E0002060002085E700000004014030BCBDE8FB
:1033F000C09F00002DE9F047044690F820000B46DE
:10340000012826D04FF0010984F82090022084F88A
:103410002100587802B301F07BFC987801F078FC29
:103420009878D97840EA014558781978000240EA3E
:10343000413005432168CA20486221685320486210
:10344000204601F0BFFC0026FF274FF0040858BBC0
:1034500019E00220BDE8F087C10603D500F0EF00B7
:103460000A305870D87801F05CFC0204587801F0FA
:1034700058FC42EA0022987801F053FC0243187885
:1034800042EA4035D6E7104805402068456020688C
:10349000C16821F08001C1602068806880060BD47B
:1034A000204600F08FF838B12068476284F8218008
:1034B00084F820600120CDE72068476284F82190DD
:1034C00084F820600020C5E73FFFFF002DE9F047AA
:1034D000044690F820000D46012812D04FF0010A52
:1034E00084F820A0022084F821002068002680684B
:1034F0004FEA406042B100281ADA287801F008FC4F
:1035000017E00220BDE8F087002800DBEE70287885
:1035100001F007FC0204687801F003FC42EA002293
:10352000A87801F0FEFB0243E87842EA00470AE08F
:10353000EE70A878297840EA01476878E9780002B7
:1035400040EA014007432168CA20486221685320AD
:103550004862204601F036FC4FF0FF084FF00409A6
:10356000E0B917480740206807602068816821F4A7
:1035700080218160D5E90301084321688A681043EE
:1035800088602068C16821F08001C160206880687F
:1035900080060CD4204600F015F840B12168C1F82F
:1035A000248084F8219084F820600120AAE7216813
:1035B000C1F8248084F821A084F820600020A1E7CD
:1035C0007F7F7F0070B504460068C16821F0A001CC
:1035D000C160FEF715FD05464FF47A7607E000BF9F
:1035E000FEF70EFD401BB04201D9032070BD2068DC
:1035F000C0688006F4D5002070BD10B5040011D05D
:10360000022084F85D002068016821F0400101601B
:10361000204600F05FF80020206684F85D0084F802
:103620005C0010BD012010BD2DE9F041040005D063
:103630000025A56294F85D0018B107E00120BDE8FF
:10364000F08184F85C50204600F058F8022384F89A
:103650005D302068016821F040010160E0684FF4AE
:10366000E066B04201D9002101E04FF48051B0F58D
:10367000706F02D0B04200D0A562276B012227B93B
:10368000B04201D9236300E02263D4E90103184367
:10369000D4E9043633431843238B03F400731843EF
:1036A000E3691843236A1843A36A18432368186020
:1036B000636B606AA66918430427E36807EA164645
:1036C00033431843084321684860256684F85D2029
:1036D0000020B4E700680749884209D10648016E16
:1036E00021F480510166E0214FF09040FEF7E2BAEC
:1036F00070470000003001400010024000B5006833
:103700000E4987B0884217D10D48016E41F48051AF
:103710000166006E694600F480500590E02000903C
:1037200002200190002002900320039005200490C5
:103730004FF09040FEF792FB07B000BD0030014013
:10374000001002402DE9F84F044690F85C00002676
:10375000984617460D4601280DD04FF0010A84F80F
:103760005CA0FEF74DFC834694F85D00B14601284D
:1037700004D002269BE0022000F09FB8002D73D0F9
:10378000002F71D0032084F85D00C4F86090A56319
:10379000A787E787C4F84090A4F84490A4F846901F
:1037A000C4F85090C4F84C90A068B0F5004F04D114
:1037B0002068016841F48041016020680168490681
:1037C00003D4016841F040010160E068B0F5E06FAA
:1037D000606823D910B1E08F01281BD1216835F82A
:1037E000020BC86006E020688168890706D535F8B5
:1037F000021BC160E08F401EE0870BE0B8F1000FB4
:103800003FD0B8F1FF3F05D0FEF7FAFBA0EB0B016C
:10381000414536D2E08F0028E5D137E010B1E08F86
:10382000012830D1E08F012804D9216835F8020B36
:10383000C86010E0216815F8010B087311E0E087FB
:1038400021E02068816889070FD5E18F012905D91A
:1038500035F8021BC160E08F801EF0E715F8011BF0
:103860000173E08F401EEAE720E0B8F1000F08D0B6
:10387000B8F1FF3F07D0FEF7C3FBA0EB0B014145BA
:1038800001D3032613E0E08F0028DAD15A464146DF
:10389000204601F0B4FA08B120202066A06818B9CB
:1038A0002068C16880680090206E00B1012684F80D
:1038B0005DA084F85C9030465EE718BCBDE8E08F00
:1038C0002DE9F05F044690F85C0000260A9F9946B7
:1038D00092460D464FF0010801280ED0012084F8D1
:1038E0005C00FEF78DFB834694F85D00616801285B
:1038F0000CD0B1F5827F07D102E0022000F0FBB8C6
:10390000A16809B9042801D00226ECE04DB3BAF150
:10391000000F26D0B9F1000F23D094F85D000428E1
:1039200002D0052084F85D0000202066C4F840A085
:10393000A4F84690A4F84490A563A4F83E90A4F897
:103940003C90E0642065E0684FF4E061884203D871
:10395000B4F84600012806D92068426822F4805253
:1039600005E00126BFE02068426842F480524260D0
:1039700020680268520603D4026842F040020260E6
:10398000E068884260683DD910B1E08F012831D1EC
:10399000216835F8020BC860E08F401EE08729E0FF
:1039A000B8F1000F0DD0E08F58B120688168890709
:1039B00007D535F8021BC160E08F401EE0874FF04D
:1039C0000008B4F8460068B120688168C90709D0CA
:1039D000C0682AF8020BB4F84600401EA4F846005E
:1039E0004FF00108781C05D0FEF70AFBA0EB0B0096
:1039F000B84266D2E08F0028D2D1B4F84600002841
:103A0000CED167E010B1E08F01285CD1E08F0128B2
:103A100006D9216835F8020BC860E08F801E05E0EA
:103A2000216815F8010B0873E08F401EE0874AE01B
:103A3000B8F1000F16D0E08FA0B120688168890727
:103A400010D5E18F012905D935F8021BC160E08F3F
:103A5000801E04E015F8011B0173E08F401EE08713
:103A60004FF00008B4F8460018B320688168C90711
:103A70001FD0B4F84610012911D9C0682AF8020BEA
:103A8000B4F84600801EA4F84600B4F846000128A9
:103A90000DD82068416841F48051416007E0017B06
:103AA0000AF8011BB4F84600401EA4F846004FF087
:103AB0000108781C07D0FEF7A3FAA0EB0B00B84270
:103AC00001D303260FE0E08F0028B1D1B4F84600FF
:103AD0000028ADD15A463946204601F090F910B180
:103AE000012620202066012084F85D00002084F853
:103AF0005C00304602E730BCBDE8C09F4FF0E021DB
:103B00000428086903D020F004000861704740F0E1
:103B10000400FAE7704710B5401EB0F1807F01D372
:103B2000012010BD4FF0E02460610F21601700F00C
:103B300083FF0020A06107202061002010BD10B588
:103B4000FFF7E8FF10BD704710B50F490F4C8842D2
:103B500001D10FA112E01249884206D16422114915
:103B60000F4800F09BF910A108E0134988420AD1E0
:103B700064221249104800F091F911A12046BDE8D5
:103B8000104002F01DBD10BD9C080020003801400F
:103B90000D0A204572726F72205541525432000056
:103BA000140900206A0600200D0A204572726F7207
:103BB0002055415254330000AC0700200406002079
:103BC0000D0A204572726F7220686C707561727494
:103BD000310000002DE9F04102680446D069116807
:103BE000936810F00F0F4FF000055BD003F0010653
:103BF00001F49077374369D0C70707D0CF0505D5C3
:103C000001271762626F42F001026267820708D5DE
:103C1000DA0706D0276802223A62626F42F0040295
:103C20006267420708D5DA0706D0236804221A62C1
:103C3000626F42F00202626702070AD501F02002B9
:103C4000324306D0236808221A62626F42F00802EB
:103C50006267626F002A32D0800605D5880603D5D8
:103C6000216E09B120468847606F000703D42068A1
:103C70008068400625D5204601F02CFB206881682D
:103C8000490619D5816821F040018160E06E98B144
:103C900020498163E06EFDF7E3FE00280FD0E06E5F
:103CA000816B06E0860611D58E060FD5216E1EE0CB
:103CB0002046BDE8F04108472046FFF745FFBDE834
:103CC000F0812046FFF740FF6567F8E7C60209D597
:103CD0005B0207D54FF4801010622046BDE8F0412A
:103CE000FFF731BF030605D50B0603D5616E00292A
:103CF000DED1E4E74006E2D54806E0D5116820466B
:103D000021F040011160202184F87110656600F0F7
:103D100097F9D4E7C152000810B5040003D094F815
:103D2000710010B107E0012010BD002084F8700080
:103D3000204600F027F8242084F8710020680168EC
:103D400021F001010160204601F030FB0128EBD099
:103D5000606A10B1204601F021FA2068416821F420
:103D6000904141602068816821F02A0181602068CB
:103D7000016841F0010101602046BDE8104001F0FA
:103D800071BA0000F0B505683D4800233D490322A3
:103D9000022487B0854218D1C86D40F00100C86583
:103DA000C86D029300F001000590CDE900240820C1
:103DB000CDE9032069463448FEF750F80022114649
:103DC0004620FEF797FB46201DE0304F07264FF0B8
:103DD0009040BD421BD10D6E45F480450D66096EC5
:103DE000CDE9023201F4804105914FF4C061CDE983
:103DF000001404966946FEF731F80022114625208A
:103E0000FEF778FB2520FEF769FB07B0F0BD204FD9
:103E1000BD4217D18D6D45F400358D65896DCDE9B5
:103E2000023201F4003105910C21CDE90014049611
:103E30006946FEF713F8002211462620FEF75AFBCA
:103E40002620E0E713488542DFD1886D40F48020CA
:103E50008865886DCDE9023200F4802005904FF42A
:103E60004060CDE90004694604960B48FDF7F6FF73
:103E7000002211462720FEF73DFB2720C3E7000064
:103E80000080004000100240000800480038014057
:103E900000440040004800400004004830B590F85D
:103EA0007230202B4AD1B1B1AAB190F87030012BF9
:103EB00044D0012380F870304165A0F85820A0F864
:103EC0005A20002202661D038168FF23A94207D100
:103ED000016911B10CE0012030BD40F2FF110DE08D
:103EE0007F2419B1B1F1805F05D009E0016901BB00
:103EF000A0F85C3004E00169D9B13F21A0F85C1062
:103F00004267222180F8721001688B6843F0010338
:103F10008B608168A94201D1016969B108490166D4
:103F200080F870200068016841F490710160002001
:103F300030BDA0F85C40E3E70249F0E7022030BD65
:103F400051530008F55200080B49884203D1322230
:103F50000A4909480CE00A49884203D16422094908
:103F6000074805E00849884204D164220749064809
:103F7000FFF794BF704700009C0800204C0500200C
:103F8000AC07002004060020140900206A06002067
:103F90002DE9F843044690F871001F4616460D4679
:103FA00020284BD1C5B1BEB194F87000012845D08E
:103FB000012084F870004FF00008C4F874802120BC
:103FC00084F87100FEF71CF8A4F850608146A4F84C
:103FD00052604FF4805615E00120BDE8F88380213F
:103FE000204601F00DFBD8B9A068B04201D120698C
:103FF000C0B115F8010B21680885B4F85200401EC5
:10400000A4F85200B4F852004B464FF0000200975B
:104010000028E4D14FF04001204601F0F1FA30B120
:104020000320DAE735F8020BC0F30800E3E72020AD
:1040300084F8710084F870800020CEE70220CCE77D
:104040007047FEE701688A69D243920701D40022D3
:104050008A6200688169C943C90703D0816941F058
:1040600001018161704700002DE9F04104460068BC
:1040700090460E468069C043C00633D400252027F1
:1040800020688069C043800615D5701CF8D0FDF704
:10409000B7FFA0EB0800B04201D8002EF0D154F8D1
:1040A000440F40F0200044F804096770A5702570A3
:1040B0000120BDE8F08121681020C8612068C76137
:1040C0002046FFF7BFFF54F8440B4168064A1140F1
:1040D0004160206840F0040044F820096777A57724
:1040E0002577E5E70020E4E700E800FE1CB50C4674
:1040F0000021019102210B460091014601AA0848C6
:10410000FEF736F80749087045B99DF804009DF898
:1041100005100007800D40EA9100206028461CBD74
:104120006007002064000020F0B50568059C686801
:104130004FF48066064FC1F3090106EA545641EA7E
:1041400002413E431943B043214308436860F0BD38
:10415000FF63FF032DE9F0411D4617460E46044656
:10416000DDF8188008E0681C06D0FDF749FFA0EBD9
:104170000800A8420BD855B12068806936EA0000D3
:1041800012D00020B842EED00020BDE8F08154F8F3
:10419000440F40F0200044F8040920206070002003
:1041A000A07020700120F0E70120EBE72DE9F0413D
:1041B000002690460F460446202525E04246394613
:1041C0002046FFF751FF78BB20688069C043800616
:1041D00013D420688169C943490701D4218DC1B92D
:1041E000C56154F8440B4168104A1140416044F8DD
:1041F00020696577A677267716E0FDF701FFA0EB2B
:104200000800B84208D83FB120688069C043400721
:10421000D4D40020BDE8F08154F8440F40F02000D1
:1042200044F80409657026700120F3E700E800FEF9
:1042300070B516460D4604460DE032462946204626
:10424000FFF712FF08B1012070BDFDF7D9FE801BFA
:10425000A84207D835B120688069C0438006ECD4F5
:10426000002070BD54F8440F40F0200044F80409C9
:10427000202060700020A0702070E4E770B5164622
:104280000D4604460FE0324629462046FFF7ECFE75
:1042900008B1012070BD681C05D0FDF7B1FE801B80
:1042A000A84207D835B120688069C0438007EAD4A6
:1042B000002070BD54F8440F40F0200044F8040979
:1042C000202060700020A0702070E2E770B500F040
:1042D00039F8164811A21621044601F0D7F91348FF
:1042E00013A22E301621054601F0D0F9FCF7FEFF8F
:1042F00002F05AF922460321012001F063FF2A4609
:104300000521012001F05EFF01F0B4FFFCF7E8FF9A
:10431000BDE870406420FDF7BFBC000020202020D5
:10432000202045525556414B41200000D904002021
:1043300020202020544543484E4F4C4F4749455379
:104340000000000010B51748FFF757F900224FF49E
:1043500000511548FDF74EFE4FF090440122102108
:104360002046FDF747FE002210212046FDF742FEC1
:104370004FF4004000F0E4FA0A20FDF78DFCFCF752
:10438000B5FF01F02CFE0949094801F0A7FE01F034
:104390005DFE01F06FFE01F06DFFBDE81040FCF71F
:1043A0009FBF0000B0090020000800480000002066
:1043B0008800002000EB8100006E00F0F84070479C
:1043C0008068C0F38000704770B54FF0007401F052
:1043D000007394FAA4F4B4FA84F4E3404FF0F87450
:1043E00094FAA4F501F0F871B5FA85F500EB8300B5
:1043F00021FA05F50726AE4094FAA4F44369B4FA0D
:1044000084F4E140B3438A401343436170BD00EB41
:104410008100016E21F000411143016670470000E8
:104420000148FFF7D7BB0000AC0700202DE9F041A1
:1044300018491748184CB1F85410154E081A87B28D
:104440004FF0000820883236454618B932213046F0
:10445000FBF7F3FE0E496088B84217D0322801D12D
:1044600065809FB1628820888B5C521C33546280C7
:104470000A2B06D0401C80B220803228EBD1258048
:10448000E9E7218875542580BDE8F0814046FBE7C7
:104490004C0500209C08002014000020AFF3008091
:1044A00070B5322225492648FFF7F8FC0122140393
:1044B00021464FF09040FDF79DFD224D0022214600
:1044C0002846FDF797FD4FF4FA70FDF7E5FB012252
:1044D00021462846FDF78EFD4FF47A70FDF7DCFB90
:1044E000FFF7A4FF184C002816DD144A17A132323A
:1044F000204602F065F81BA11D4802F061F8142067
:10450000FDF7CAFBFFF792FF002805DD0B4819A154
:104510003230FBF7B6FE08B119A10AE01D48017858
:1045200041F0020101701C48018841F080010180C6
:104530001AA12046BDE8704002F042B84C050020A8
:104540009C08002000080048003801404C4F5241B0
:1045500020434849502E2E2E2E2E2E2E2E2E2573E1
:104560000D0A00006D61632070617573650D0A00AE
:1045700000440040343239343936373234350D0096
:104580004C4F52412E2E2E2E2E2E2E2E2E4641498F
:104590004C0D0A006300002032000020204C4F52D6
:1045A000412E2E2E2E2E2E2E2E2E4F4B0D0A00007B
:1045B00010B5364886B034490024E0E802140121E1
:1045C00010C00822E0E80241E0E80224072216C0F9
:1045D00060E80A14C0E90C418463C4632B48FDF70A
:1045E000B1F800B1FEE72A48009006200190029041
:1045F0007F2003900420CDE9040469462348FCF79A
:104600007BFE00B1FEE7234800900C200190694634
:104610001E48FCF771FE00B1FEE71F480090122013
:10462000019069461948FCF767FE00B1FEE71B4898
:1046300000901820019069461448FCF75DFE00B117
:10464000FEE7174800904FF48070019069460F48CC
:10465000FCF752FE00B1FEE7124800904FF4837061
:10466000019069460948FCF747FE00B1FEE70E4895
:1046700000908015019069460448FCF73DFE002833
:1046800000D0FEE706B010BD00000450F806002080
:104690000800900C1000C0102000F014002090368C
:1046A0000040C03A0080F03E000021432DE9F04F69
:1046B0005C4887B0C16C41F00401C164C16C01F079
:1046C00004010591C16C41F08001C164C16C01F02D
:1046D00080010591C16C41F00101C164C16C01F020
:1046E00001010591C16C41F00201C164C16C01F08E
:1046F00002010591C16C41F00801C164C06CDFF892
:10470000288100F008004FF45F54059000222146F4
:104710004046FDF76FFC41F202164FF0904900222F
:1047200031464846FDF766FC012210214846FDF758
:1047300061FCDFF8F8A04FF40347002239465046E9
:10474000FDF758FCDFF8E8B0012204215846FDF7D8
:1047500051FC0125CDE900450024029469464046FC
:104760000394FDF77BFB0096CDE90154694648466A
:104770000394FDF773FB1020CDE90005CDE9025449
:1047800069464846FDF76AFB2803CDE900046946FF
:1047900050460294FDF762FB264E42F23800CDE906
:1047A0000006694602945046FDF758FB0097CDE994
:1047B0000154694650460394FDF750FBE802CDE9E9
:1047C0000006694602944846FDF748FB0420CDE9FF
:1047D0000005CDE9025469465846FDF73FFB00222B
:1047E00011460920FDF786FE0920FDF777FE00221D
:1047F00011460A20FDF77EFE0A20FDF76FFE00221B
:1048000011461720FDF776FE1720FDF767FE002200
:1048100011462820FDF76EFE2820FDF75FFE07B049
:1048200000F00AB8001002400008004800040048E8
:10483000000C00480000111030BCBDE8C08F000023
:10484000114810B50F490160104941600021012253
:10485000C0E90212016141618161C1610162FDF73C
:1048600029FC00B1FEE700210748FDF7CFFB00B1AE
:10487000FEE700210448FDF7F4FB002800D0FEE726
:1048800010BD000000540040600700208266500008
:104890000B4810B5094901604FF4165141600021E1
:1048A00081600C22C160C0E9041281610162416231
:1048B000FFF732FA002800D0FEE710BD008000406C
:1048C000AC07002010B51D4886B01B490024C0E984
:1048D00000147F218160FF21C0E9031444618461D9
:1048E000C461FEF737FC00B1FEE70B208DF8000035
:1048F00031208DF801008DF80240039400226946B2
:104900000E480494FEF7E2FD00B1FEE706208DF8A4
:10491000140009208DF815000E208DF816001420C3
:104920008DF81700002205A90448FEF763FD002852
:1049300000D0FEE706B010BD002800408C09002022
:10494000114910B50F4A0A604FF48272C1E9012083
:104950004FF4E060C86000204FF400720861C1E9C4
:104960000502C861086207224862C1E90A020863B9
:10497000082048630846FEF757FE002800D0FEE7EF
:1049800010BD000000300140B00900200C4810B5F7
:104990000A4901604FF4E1314160002181600C223D
:1049A000C160C0E904128161C16101624162FFF727
:1049B000B3F9002800D0FEE710BD00000038014028
:1049C000240800200C4810B50A4901604FF46141E9
:1049D0004160002181600C22C160C0E90412816144
:1049E000C16101624162FFF797F9002800D0FEE73C
:1049F00010BD0000004400409C0800200C4810B589
:104A00000A4901604FF4E1314160002181600C22CC
:104A1000C160C0E904128161C16101624162FFF7B6
:104A20007BF9002800D0FEE710BD000000480040E0
:104A300014090020FEE770470907090E002806DA6E
:104A400000F00F0000F1E02080F8141D704700F125
:104A5000E02080F80014704710B5FBF793FF322078
:104A6000FDF71AF9BDE81040FCF73EB9F0B587B084
:104A70000546002269463048FEF740FB2F4C0022D5
:104A800005A920702C48FEF717FB20709DF8001038
:104A90009DF80200C1EB4112C2EB012100EB0110B5
:104AA0009DF801103C26C1EB011105EB8101014489
:104AB0004FF46165B1FBF5F3B1FBF5F005FB1313A2
:104AC000B1FBF5F705FB1711B1FBF6F5B3FBF6F3F8
:104AD000C2B21B4806FB15110270DBB24370817035
:104AE0003B2903D93C3981705B1C437041783B29D9
:104AF00003D93C394170521C027002780021172AF8
:104B000004D9172202703B22427081704161816199
:104B1000C1619DF8161080F820104FF48071416239
:104B20000548FEF76BFA2070002205490248FEF79F
:104B30008DFB207007B0F0BD8C09002062000020C2
:104B4000D006002001464FF47A7301220148FEF797
:104B5000F9BD0000B0090020704700002DE9F041C8
:104B6000444C05468846E0680026810728680DD039
:104B7000E16801F00301814216D1A8B1E0686968DB
:104B8000C0F30210401C88420ED120E0012804D05E
:104B9000022805D0032807D108E02168890701E031
:104BA00021684905002907DB01265FE021688903A8
:104BB00002D421684903F5E7E1686A686FF00F03E2
:104BC00021F0730103EB021211430143E1602068FD
:104BD00020F080602060FDF713FA074605E000BF73
:104BE000FDF70EFAC01B022837D820680001F7D461
:104BF000B8F1000F18D0B8F1010F1DD0287D4FF08B
:104C00007E41400801EB4060A96840EA012021692B
:104C1000194A114008432061206840F080602060FC
:104C2000FDF7EEF907461AE0A868297B000240EA82
:104C3000C1602169114AECE7288A1149400801EB5B
:104C40004050A96840EA012021690E4AE1E700BF0F
:104C5000FDF7D6F9C01B022801D9032606E020681B
:104C60000001F5D52069A969084320613046BDE8F7
:104C7000F081000000100240FF80FFF9FF80FF0775
:104C80000000E0FFFF809FFFF8B51C4D06460024A2
:104C9000A86DC00002D5FDF791FC0DE0A86D40F0B5
:104CA0008050A865A86D00F080500090FDF786FC4C
:104CB000A96D21F08051A965B0F5007F04D0802E48
:104CC00007D94FF003040AE0802E08D9A02E01D89E
:104CD00004E001D1022402E0702E00D10124084832
:104CE000016821F0070121430160006800F007001E
:104CF000A04201D00120F8BD0020F8BD0010024004
:104D0000002002400148FEF73FB900008C09002056
:104D1000010901EB810100F00F0000EB4100C0B27E
:104D20007047002102E00A38C0B2491C0A28FAD2B2
:104D3000090740EA1160704710B5144C0EA12046D7
:104D400001F03EFC0220FFF791FE41F28830FCF7B3
:104D5000A3FF0F484079012805D00EA12046BDE8E9
:104D6000104001F02DBC0A491A31088840F4006057
:104D700008800EA1F2E700000D0A20496E697469EF
:104D8000616C6973696E67205254430000380140BA
:104D9000180000200D0A205254432E2E2E2E2E2EA7
:104DA0002E2E2E2E2E2E4641494C00000D0A20524A
:104DB00054432E2E2E2E2E2E2E2E2E2E2E2E4F4B9A
:104DC0000000000070B504460068C168490614D4AC
:104DD0004FF0FF31C160FDF713F905464FF47A76C5
:104DE00007E000BFFDF70CF9401BB04201D90320DA
:104DF00070BD2068C0684006F4D5002070BDF8B5CD
:104E000015460E460B460092044600224FF4C05150
:104E100000F019F888B93346002280212046009519
:104E200000F060F848B9334600224FF4C0612046D4
:104E3000009500F008F8002804D0206E40F0200013
:104E400020660320F8BD2DE9F8431D4617460E469F
:104E500004464FF4C068DDF820903CE0464505D19B
:104E600027B9007B8DF800009DF80000681C32D047
:104E70002DB1FDF7C5F8A0EB0900A8422BD320689F
:104E8000416821F0E00141606068B0F5827F0BD19C
:104E9000A068B0F5004F02D0B0F5806F04D1206853
:104EA000016821F040010160A06AB0F5005F09D1FE
:104EB0002068016821F4005101602068016841F414
:104EC00000510160012084F85D00002084F85C003E
:104ED0000320BDE8F883206881683140B942BDD124
:104EE0000020F6E72DE9F0411D4617460E46044620
:104EF000DDF8188034E0681C32D02DB1FDF780F861
:104F0000A0EB0800A8422BD32068416821F0E00103
:104F100041606068B0F5827F0BD1A068B0F5004FAA
:104F200002D0B0F5806F04D12068016821F0400103
:104F30000160A06AB0F5005F09D12068016821F422
:104F4000005101602068016841F4005101600120B6
:104F500084F85D00002084F85C000320BDE8F08147
:104F60002068806836EA000004D00020B842C2D130
:104F70000020F3E70120F9E77047000070B51A4CF4
:104F80006068012824D1002666602178174D012928
:104F90001FD002291FD003291FD004291FD00629A2
:104FA0001FD013A21621284600F070FBFCF79EF9D3
:104FB00001F04CF801F05EF801F0F6FA2A46032100
:104FC000012001F0FFF801F055F9FCF789F926708E
:104FD00070BD0CA2E6E710A2E4E713A2E2E717A275
:104FE000E0E71BA2DEE700000C000020D90400204F
:104FF00020554E4B4E4F574E20494E544552525518
:105000005054000020202020505245535345442046
:105010004D454E5520000000202020205052455381
:105020005345442055502000202020205052455305
:1050300053454420444F574E20000000202020209C
:1050400050524553534544204241434B20000000F9
:105050002050524553534544204D414E55414C201C
:10506000545241494C2052554E20000010B5FDF7D6
:10507000CDF9BDE81040FEF762BD00002DE9F0411A
:10508000AEB0FDF7A3FA324850F8901F21F0180196
:105090000160052017904FF480300125CDE91805F7
:1050A00002240326CDE921460727CDE925740C20EB
:1050B0002794CDE9235017A8FDF700FD00B1FEE7C6
:1050C0000F20CDE928064FF000088020CDE92A08FE
:1050D000012128A8CDF8B080FDF7DEFB00B1FEE786
:1050E0001C48CDF8288000904FF080501490CDF8E7
:1050F000308000151690CDF820800820CDE90250B0
:10510000CDF82C8001964005CDF82480CDE90640ED
:10511000CDE904746846FDF761FA00B1FEE74FF48B
:105120000070FDF719FA00B1FEE7FDF73FFC4FF400
:105130007A71B0FBF1F0FEF7EEFC0420FEF7DEFC26
:1051400000221146501EFDF7D5F92EB0BDE8F081C2
:1051500000100240674002000D48016841F47001F0
:1051600001600C48016841F001010160002181608B
:105170000268094B1A4002608214C260026822F47D
:105180008022026081610249C00380390860704753
:1051900088ED00E000100240FFFFF6EA90F82410CE
:1051A000C90706D001684A68836A22F400321A43AC
:1051B0004A6090F82410890706D501684A68C36AD6
:1051C00022F480321A434A6090F82410490706D529
:1051D00001684A68036B22F480221A434A6090F8FF
:1051E0002410090706D501684A68436B22F400427F
:1051F0001A434A6090F82410C90606D501688A68E7
:10520000836B22F480521A438A6090F82410890636
:1052100006D501688A68C36B22F400521A438A607B
:1052200090F82410490611D501684A68036C22F4ED
:1052300080121A434A60016CB1F5801F06D10168E3
:105240004A68436C22F4C0021A434A6090F8241062
:10525000090606D501684A68806C22F400220243E0
:105260004A607047F8B5002604464667FCF7C8FE5A
:105270000546206800686FF07E47000708D52B467A
:1052800000224FF400112046009700F0B9F960B9F0
:105290002068006840070AD52B4600224FF48001A1
:1052A0002046009700F0ACF908B10320F8BD20209B
:1052B00084F8710084F8720084F870600020F8BDF2
:1052C00010B5806A0021A0F85A10A0F85210FEF71D
:1052D0003BFC10BD01680A6822F490720A60016804
:1052E0008A6822F001028A60202180F87210002171
:1052F0000166704710B5B0F85C2090F87230016814
:10530000222B04D0088B40F00800088310BD898C44
:10531000436D11401980416D891C4165B0F85A10E8
:10532000491E0904090CA0F85A10EFD101680A6857
:1053300022F490720A6001688A6822F001028A6091
:10534000202180F8721000210166FEF7FDFD10BDDE
:1053500010B5B0F85C2090F872300168222B04D0B0
:10536000088B40F00800088310BD898C1140426D05
:10537000531C43651170B0F85A10491E0904090CFA
:10538000A0F85A10F0D101680A6822F490720A60FD
:1053900001688A6822F001028A60202180F8721078
:1053A00000210166FEF7D0FD10BD00002DE9F0419F
:1053B0000446016880682369E6691843636910251B
:1053C000002733431843844A0B68844E3340034319
:1053D0000B6020684168E36821F440511943416043
:1053E0002168A069914201D0236A18438B6823F495
:1053F000306303438B607A4B21687A4899420DD120
:10540000D0F8880010F0030006D0012839D0022817
:1054100035D0032838D136E0012535E0724B99426A
:105420000BD1D0F8880010F00C0026D0042828D02A
:10543000082824D00C2827D125E06C4B99420BD1A9
:10544000D0F8880010F0300017D0102819D020288C
:1054500015D0302818D116E0914215D1D0F8880027
:1054600010F4406009D0B0F5806F0AD0B0F5006F3D
:1054700005D0B0F5406F07D105E0002504E0022516
:1054800002E0042500E00825594B00264FF40040B7
:1054900091423DD135B1022D07D0042D07D0082D02
:1054A00010D107E0FDF788FA03E0184602E0FDF7A7
:1054B000A3FAA8B3626802EB4201814202D8B0EBC2
:1054C000023F01D9012774E0DFF828815DB1022D88
:1054D0000CD0042D13D0082DF4D150082905401804
:1054E00046F1000105E0FDF767FA0AE0500842497D
:1054F000F5E70023FAF766FEA0F5407155E0FDF7E9
:105500007BFA6268010E0302500818187141F0E737
:10551000E1694FF6EF7881422ED1092DD2D200E019
:1055200047E0DFE805F006091F052205050525000F
:10553000C8E7FDF741FA01E0FDF74EFA4100606867
:1055400001EB5001B1FBF0F080B2A0F11001414538
:10555000B8D84FF6F0710140C0F342000143206813
:10556000C16026E025496068EAE7FDF745FAE5E70E
:105570004FF480316068E3E7092DA3D2DFE805F03E
:1055800006091E052205050525009BE7FDF714FA0F
:1055900001E0FDF721FA0146606801EB500100BF10
:1055A000B1FBF0F080B2A0F1100141458AD821682A
:1055B000C860266638466666BDE8F081606803EB21
:1055C0005001EDE7FDF718FAE5E7616800EB5100DF
:1055D000B0FBF1F0E6E7000000800040F369FFEF68
:1055E00000380140001002400044004000480040E4
:1055F0000024F400FFFC0F00000024F40048E80140
:105600002DE9F041984617460E460446069D1DE0DA
:10561000681C1BD02DB1FCF7F3FCA0EB0800A842DE
:1056200014D92068016821F4D07101602068816874
:1056300021F001018160202084F8710084F872005B
:10564000002084F870000320BDE8F0812068C06964
:1056500036EA000004D00020B842D9D00020F3E799
:105660000120F9E70148FEF7B5BA00002408002040
:105670000148FEF7AFBA00009C0800200148FEF781
:10568000A9BA000014090020FEE7FEE70FB41CB51C
:105690000246002007AC00290BD0491ECDE90021AD
:1056A000054B6A462146069800F0F4F8009A00215E
:1056B00011701CBC5DF814FBC95F00087CB5044682
:1056C00000201D46164600290BD0491ECDE9004199
:1056D000044B6A462946304600F0DCF8009A002167
:1056E00011707CBDC95F000802E008C8121F08C124
:1056F000002AFAD170477047002001E001C1121F53
:10570000002AFBD1704700002DE9FF5F82B0002125
:10571000DDE90430020DDDF840B0034318D044F653
:105720001050A2F2FF3242431514119801281FD0E5
:10573000A5EB0B00401C5FEA000A4FF000064E4F3D
:10574000DFF83891B046504615D5CAF1000413E091
:10575000119801244AA3012801D16FEA0B01029894
:10576000119AC0E90031C0E9024206B000F08EB8DB
:10577000CBF10000DFE704460021404A491842EB24
:105780000450CDE9001012E0E00707D032463B4656
:1057900040464946FAF732FE8046894632463B4645
:1057A00010461946FAF72AFE06460F466410002CEA
:1057B000EAD1DDE90401DDE90023BAF1000F06DAE0
:1057C000FAF71CFE42464B46FAF718FE05E0FAF7D8
:1057D0008AFE42464B46FAF786FE04460E460022F3
:1057E000284BFBF711F803D84FF0FF30014607E0D4
:1057F0000022254B20463146FAF751FDFAF7ECFF1F
:10580000102409E0002C0ADB0A220023FAF7DAFC54
:10581000039B30321A55641E50EA0102F2D1641C17
:10582000039AC4F111031444119A012A03D00122EE
:1058300008430DD10AE0084304D000204FF0110BBB
:10584000119072E7A3EB0B056D1E0DE05B4504DDC7
:105850004FF0000205F1010504E003DA4FF0000209
:10586000A5F10105002AECD002981199C0E9023196
:10587000C0E9004579E70000000014400000F03F57
:10588000300000000000F0430000E03F30BCBDE805
:10589000C09F00002DE9FF4F95B09B468946064604
:1058A00000250FE2252877D100242746F84A012158
:1058B000059400E0044316F8013F203B01FA03F091
:1058C0001042F7D130782A2811D06FF02F033078AA
:1058D000A0F13002092A16D8059A44F0020402EB1E
:1058E000820203EB42021044761C0590EFE759F860
:1058F000042B0592002A03DA504244F40054059028
:1059000044F00204761C30782E2816D116F8010FC8
:1059100044F004042A280DD06FF02F023078A0F153
:105920003003092B09D807EB870302EB4303C718A1
:10593000761CF3E759F8047B761C30786C280FD07E
:1059400006DC4C2817D068280DD06A2814D104E052
:10595000742810D07A280FD10DE044F400140AE026
:1059600044F4801401E044F440147278824202D17D
:1059700004F58014761C761C307866280BD013DC76
:10598000582877D009DC002875D04528F6D046285D
:10599000F4D047281AD19DE118E0632835D0642857
:1059A00079D0652812D195E1702873D008DC67287A
:1059B000F1D069286FD06E280DD06F2806D1B5E0E0
:1059C00073282CD0752875D0782874D05A4617992A
:1059D00090476D1C75E1C4F30250022809D00328DA
:1059E0000DD0D9F8001004280DD00D6009F104097C
:1059F00067E1D9F80010EA17C1E90052F6E7D9F8D3
:105A000000100D80F2E70D70F0E719F8041B8DF817
:105A1000001000208DF80100EA46012003E059F84B
:105A200004AB4FF0FF3061074FF0000102D40DE0EE
:105A300008F101018846B9420FDA8045F8DB1AF80F
:105A400008100029F4D108E008F1010188468142DC
:105A5000FADB1AF808100029F6D105985B46A0EB8E
:105A6000080721463846179A00F097FA284400EBB9
:105A7000080507E04DE029E10DE01AF8010B5A4650
:105A800017999047B8F10108F7D25B46214638468E
:105A9000179A13E142E00A220092C4F302524FF037
:105AA000000A022A08D059F804CB032A4FEAEC7105
:105AB0000AD00DE029E02AE009F1070121F00702F0
:105AC000F2E802C1914609E00FFA8CFC4FEAEC7152
:105AD000042A03D14FFA8CFC4FEAEC71002907DA53
