:020000040800F2
:10000000E0080020A10100086F2D0008E326000889
:100010006D2D0008B5030008BD3500080000000084
:100020000000000000000000000000009F2F0008FA
:10003000F303000800000000912D0008A12F000824
:10004000BB010008BB010008BB010008BB010008A0
:10005000BB010008BB010008BB010008BB01000890
:10006000BB0100080B04000811040008B9030008D4
:10007000BB010008BB010008BB010008BB01000870
:10008000BB010008BB010008BB010008BB01000860
:10009000BB010008BB010008BB01000817040008F1
:1000A000BB010008BB010008BB010008BB01000840
:1000B000BB0100080000000000000000BB010008B8
:1000C000BB010008BB010008BB010008BB01000820
:1000D000BB01000899350008A5350008B1350008B6
:1000E000F5030008BB01000800000000000000004C
:1000F0000000000000000000000000000000000000
:1001000000000000BB01000800000000BB01000867
:100110000000000000000000BB010008BB01000857
:10012000BB010008BB010008BB010008BB010008BF
:10013000BB010008000000000000000000000000FB
:10014000BB010008BB010008BB0100080000000063
:10015000BB010008BB01000889290008BB01000899
:10016000BB010008BB010008BB0100080000000043
:10017000BB010008BB0100080000000000000000F7
:10018000BB010008BB010008BB010008DFF80CD070
:1001900000F06CF800480047E1350008E008002056
:1001A0000648804706480047FEE7FEE7FEE7FEE711
:1001B000FEE7FEE7FEE7FEE7FEE7FEE78D3000081C
:1001C0008D0100082DE9F05F0546002092469B4610
:1001D00088460646814640241BE02846414647465D
:1001E000224600F032F853465A46C01A914110D3C5
:1001F00011461846224600F019F82D1A67EB01083F
:100200004F4622460120002100F010F817EB0009AC
:100210004E41201EA4F10104DFDC484631462A4647
:10022000434600F000B830BCBDE8C09F202A04DB84
:10023000203A00FA02F1002070479140C2F12003F9
:1002400020FA03F3194390407047202A04DB203A38
:1002500021FA02F00021704721FA02F3D040C2F1E6
:10026000200291400843194670470000064C074D94
:1002700006E0E06840F0010394E807009847103476
:10028000AC42F6D3FFF786FF243800084438000854
:1002900010B50146806A826D12F0500F05D0826D54
:1002A000D20623D500F0BCFA10BD816D41F4007177
:1002B000816501680A68120715D5CA6812F4406F93
:1002C0000ED1C968890400290ADB816D21F480718F
:1002D0008165816DC90403D4816D41F0010181659F
:1002E00000F09CFA10BDC9688907ECE7006D426B0D
:1002F000BDE810400846104710B5806A816D41F096
:1003000040018165C16D41F00401C16500F088FACA
:1003100010BD10B5806A00F082FA10BDF8B5044631
:10032000002000902068816801F00301012902D1BA
:100330000168C90735D181681B4A114222D1816801
:10034000D5432940491C8160184819490068B0FB11
:10035000F1F000EB8000400000E0401E009000281B
:10036000FBD100F001FE064616E0816811F0010F96
:1003700003D181682940491C816000F0F5FD801B94
:10038000022809D9A06D40F01000A065E06D40F092
:100390000100E0650120F8BD20680168C943C90774
:1003A000E3D10020F8BD00003F0000801C000020C9
:1003B00080841E00FEE70000014800F0D6BB00006C
:1003C0009804002030B590F8444004F01C05012446
:1003D000AC40056C6C60046863608368102B036834
:1003E00003D099600068C26030BD9A600068C16047
:1003F00030BD704710B54FF4006000F0DDFCBDE883
:1004000010404FF4005000F0D7BC082000F0D4BCDE
:10041000102000F0D1BC202000F0CEBC2DE9F84324
:1004200000270446009790F85400DFF8C8930D4663
:10043000B846012811D0012684F85460206802F0E3
:1004400073FA60B1A06D40F02000A0655FF0010775
:1004500084F854803846BDE8F8830220FBE76868DA
:10046000052812D8022807D0032807D0042807D06F
:10047000052807D0062007E00C2005E0122003E045
:10048000182001E04FF480706860A9884FF4407C28
:1004900001F440739CFAACFCBCFA8CFC206823FA93
:1004A0000CF300EB83002A6801F01F014FF01F0CD2
:1004B0000CFA01FC036BC2F3846223EA0C038A404A
:1004C000134303632068816811F00C0F1CD1AA68E4
:1004D000296802F02DFA20686969C268C2F3C10276
:1004E000520091402A69042A0FD000EB82002B6849
:1004F000DFF804C3026E03F0F84302EA0C020B4378
:100500001A4342F00041016672E0002102F006FA4F
:10051000400320684FF0000173D002F0FFF990FA19
:10052000A0F0B0FA80F1286842036FD090FAA0F0F2
:10053000B0FA80F0814204D100221146206802F016
:100540001AFA0121206802F0E9F9400320684FF00F
:1005500001015ED002F0E2F990FAA0F0B0FA80F169
:10056000286842035AD090FAA0F0B0FA80F0814295
:1005700004D100220121206802F0FDF90221206847
:1005800002F0CCF9400320684FF0020149D002F09C
:10059000C5F990FAA0F0B0FA80F12868420345D07E
:1005A00090FAA0F0B0FA80F0814204D1002202213A
:1005B000206802F0E0F90321206802F0AFF940035F
:1005C00020684FF0030134D002F0A8F990FAA0F0AF
:1005D000B0FA80F12868420330D090FAA0F0B0FA67
:1005E00080F0814204D100220321206802F0C3F987
:1005F0002068816801F00301012925D121E000E094
:1006000004E002F08BF9C0F384618CE7C0F38460EE
:1006100090E702F083F9C0F38461A1E7C0F384603E
:10062000A5E702F07BF9C0F38461B6E7C0F384600C
:10063000BAE702F073F9C0F38461CBE7C0F38460DA
:10064000CFE70168C9077DD12A7B296850F8B03F00
:10065000C1F3120C23EA0C0302F0200C4FF0FF321E
:1006600002FA0CF20A40C2F312010B430360E9687C
:1006700049456AD12868410317D090FAA0F1B1FA30
:1006800081F1491C09294FEA40312DD800290FD0AA
:1006900090FAA0F1B1FA81F101F1010106FA01F637
:1006A00009D100BFC0F3846109E0C0F38461E8E7C9
:1006B000C0F38461F0E790FAA0F1B1FA81F101F1A1
:1006C000010146EA816102D1C0F3846003E090FA3F
:1006D000A0F0B0FA80F000EB40004FF4401202EBC3
:1006E000005041EA00012AE000290CD090FAA0F164
:1006F000B1FA81F101F1010106FA01F606D100BF5C
:10070000C0F3846106E0C0F38461F3E790FAA0F1DE
:10071000B1FA81F101F1010146EA816102D1C0F330
:10072000846003E090FAA0F0B0FA80F0334A00EB66
:10073000400002EB005041EA000141F00071AA685C
:10074000206800E001E002F0F3F82D4E29682D4BFF
:100750002D4D2E48B14204D1826802F0E07212029F
:100760000FD5994204D1826802F0E072D20108D517
:10077000A9427FF46DAE826802F0E07252023FF54A
:1007800067AE234AB1421AD121689142F1D1816802
:10079000826801F0E07141F4000122F0E0720A4346
:1007A00082601C481C490068B0FBF1F0C0EB0010EF
:1007B000C00000E0401E00900028FBD148E69942AE
:1007C00008D121689142F9D1816801F0E07141F0CE
:1007D000807109E0A942F1D121689142EED181688E
:1007E00001F0E07141F48001826822F0E0720A4376
:1007F00082602DE600007F4000F0FF03000050FE05
:10080000000052C7000084CB0100008000030450A8
:10081000000004501C00002080841E0070477047B8
:1008200070470000F8B54FF0000504002E46009513
:1008300002D0A06D10B107E00120F8BD204600F005
:10084000BFF8E66584F8546020688168C1F34071A0
:1008500019B18168534A1140816020688168C1F3F1
:10086000007191B98168504A114041F08051816016
:100870004E484F490068B0FBF1F000EB80004000AB
:1008800000E0401E00900028FBD120688168C1F381
:10089000007141B9A16D41F01001A165E16D41F018
:1008A0000101E1650125A16DC90602D402F03CF801
:1008B00030B1A06D40F01000A06501252846F8BDBC
:1008C000A06D20F4807040F00200A065206881686F
:1008D00001F00301012902D10068C00706D13548A3
:1008E0006168826822F47C120A438260E168A06B2E
:1008F000E2690843A16841EA42310843616A40EA7B
:100900000140012904D1218D2B4A02EB41410843CA
:10091000E16A29B101F47071226B014342EA0100DE
:100920002168CA68254B1A400243CA602068816862
:1009300011F00C0F12D1A169626B890341EA4202E6
:10094000C16844F2020399431143C160E06B01287E
:100950000CD02068016921F00101016120690128A2
:100960002068016B21F00F0111D013E0D4E91001D0
:100970000843D4E912121143084321680A6940F27E
:10098000FC739A43104340F001000861E6E7226AD5
:10099000521E11430163A06D20F0020040F00100DF
:1009A000A0658BE7C0FFFF5FC0FFFF7F1C0000203A
:1009B00080841E00000304500000FEFF07C0F0FF0B
:1009C00070B506460068194986B088422CD118488F
:1009D000C16C41F40051C164C06C002500F40050AA
:1009E0000590012000900B20CDE9010569464FF0EC
:1009F000904000F0EDF9104C0E48C4E9000580204D
:100A0000A560C4E90350400060618000A06120201F
:100A1000C4E90705204600F005F918B1742107A0C4
:100A200002F0CDFD3465A66206B070BD0000045032
:100A30000010024008000240980400202E2E2F5380
:100A400072632F73746D33326C3478785F68616CC5
:100A50005F6D73702E6300002DE9F0410446164669
:100A60000F46006801F060FF18B102252846BDE876
:100A7000F08194F8540001280CD0012084F854002F
:100A80002046FFF74BFC05004FF0000004D084F82F
:100A90005400EBE70220EAE7A16D40F601629143C2
:100AA00041F48071A165A16D21F48011A165A16D52
:100AB000C90404D5E16D21F00601E16500E0E065BF
:100AC000226D1249D162226D11491163226D1149C3
:100AD000516322681C21116084F854002068416829
:100AE00041F0100141602068C16841F00101C1601E
:100AF000216833463A464031206D00F0F3F8206813
:100B00008168054A1140091D8160AFE79102000824
:100B100013030008F9020008C0FFFF7F10B590F82A
:100B200025100024022903D00421C16301241AE006
:100B300001680A6822F00E020A6001680A6822F061
:100B400001020A6090F84410036C01F01C020121BC
:100B500001FA02F25A6080F82510002180F8241072
:100B6000816B01B18847204610BDF0B4016C0C6860
:100B700001680D6890F8442002F01C06042202FA75
:100B800006F3234211D06B070FD50B689B0603D4E5
:100B90000B6823F004030B6090F8441001F01C0173
:100BA0008A40016C4A60016B1DE0022303FA06F7DC
:100BB00027424FF0000C4FF0010218D0AF0716D5B6
:100BC0000C68A40605D40C6824F00A040C6080F8B4
:100BD000252090F8441001F01C018B40016C4B6003
:100BE00080F824C0C16A00291AD0F0BC0847082345
:100BF000B340234214D02B0712D50B6823F00E0309
:100C00000B6090F84410036C01F01C0102FA01F132
:100C10005960C26380F8252080F824C0416BE2E768
:100C2000F0BC704770B568B12B4C036814212B4A97
:100C3000A34209D22A4C1C44B4FBF1F18900C0E95B
:100C400010210BE0012070BD234C64421C44B4FB16
:100C5000F1F189004164204908390164022180F8DA
:100C600025101C6847F6F0718C43D0E90215294322
:100C7000D0E904563543294385692943C569294389
:100C8000056A2943214319608168B1F5804F19D065
:100C9000036C0F21934202D152F8A83F02E00E4AA2
:100CA000A032136890F8444004F01C04A1408B4328
:100CB000136090F84430416803F01C0399401368B6
:100CC000194311600021C163012280F8252080F8BA
:100CD0002410084670BD00000804024000000240D5
:100CE000F8FFFDBF70B5044690F8240000250128E8
:100CF0000CD0012084F8240094F825600020012EF7
:100D000006D084F824000225284670BD022070BD5C
:100D1000022684F82560E0632068066826F0010654
:100D200006602046FFF74EFB206B00282068016814
:100D300002D041F00E0106E021F0040101602068BC
:100D4000016841F00A0101602068016841F0010179
:100D50000160D9E770B5044600F006F90546601C4D
:100D600000D0641C00F000F9401BA042FAD370BD13
:100D7000104908280DD010280FD0202811D0B0F528
:100D8000006F12D0B0F5005F02D10879401C0871E5
:100D900070470878401C087070474878401C4870BD
:100DA00070478878401C88707047C878401CC870AD
:100DB0007047000010000020044910B50A68024284
:100DC00002D00860FFF7D4FF10BD000014040140FA
:100DD0002DE9F84FDFF864B100234FF0010C4FF01C
:100DE000030A4FF00F090BF1040EA0E00CFA03F612
:100DF000324072D04C68022C01D0122C0ED1DC088B
:100E000000EB8408D8F820405D07EF0E09FA07F5DB
:100E1000AC430D69BD402543C8F8205007685D000C
:100E200091F804800AFA05F408F00308A74308FAC9
:100E300005F848EA0708C0F800804F68012F05D080
:100E4000022F03D0112F01D0122F11D18768D1F8B2
:100E50000C80A74308FA05F848EA0708C0F808809C
:100E60004768B7430E79C6F300169E403E4346607E
:100E7000C668A6438C68AC403443C4604C68E40048
:100E800054D52F4C256E45F001052566246E23F0C0
:100E9000030504F0010400942A4C2E19B4689D0740
:100EA0002F0F09FA07F5AC43B0F1904F04D0264D4F
:100EB000A84203D1012512E0002510E0234DA842ED
:100EC00001D102250BE0224DA84201D1032506E005
:100ED000204DA84202D1042501E027E00725BD40AE
:100EE0002543B560DBF800405D464E689443F60349
:100EF00000D514432C60DEF8004075464E689443DC
:100F0000B60300D514432C600C4D08352C684E6890
:100F10009443F60200D514432C60084D0C352C6820
:100F20004E689443B60200D514432C605B1C0A68DB
:100F300032FA03F47FF45AAF00F00EB80004014017
:100F40000010024000000140000400480008004872
:100F5000000C00480010004818BCBDE8E08F0AB142
:100F600081617047816270470148006870470000E6
:100F70001800002090F84120202A24D190F8402029
:100F8000012A20D0012280F84020242280F841202C
:100F90000268136823F0010313600268136823F4E6
:100FA00080531360026813680B43136001680A687A
:100FB00042F001020A60202180F84110002180F8EF
:100FC0004010084670470220704790F84120202AC0
:100FD00022D190F84020012A1ED0012280F8402022
:100FE000242280F841200268136823F00103136073
:100FF0000268136823F4706343EA012111600168F9
:101000000A6842F001020A60202180F841100021A4
:1010100080F84010084670470220704770B5040001
:1010200004D094F84100002528B109E04FF4007085
:101030006064012070BD84F84050204600F0E0F864
:10104000242084F841002068016821F0010101603A
:101050006068216820F0706008612068816821F470
:1010600000418160E0680128A06807D040F4044096
:1010700021688860E068022803D006E040F4004060
:10108000F6E721684FF40060486020684168114A23
:10109000114341602068C16821F40041C160D4E976
:1010A00004010843A16940EA01202168C860D4E92D
:1010B00007010843216808602068016841F00101C8
:1010C00001606564202084F84100256384F8425063
:1010D000002070BD008000022DE9F84F044690F812
:1010E0004100DDF828A01F4690468B4620287DD180
:1010F00094F84000012879D0012084F84000FFF7DF
:1011000033FF0646012200901923D103204601F047
:1011100071FBE8BB222084F84100102084F84200D3
:1011200000256564C4F8248067856563618D304857
:10113000FF274FF080784FF00079FF2903D92785EA
:101140003A46009038E0618D2185009039E059469B
:10115000204601F039FB12E001F078FBC0B92068AD
:10116000416A606A421C62620170208D401E80B23A
:101170002085618D491E6185618D01B168B1608DE9
:101180003246002851462046E6D101F0A1FB00E09E
:1011900000E0D0B1012000F02FB85346002280219A
:1011A0002046009601F026FB0028F3D1608DFF2831
:1011B00004D927853A4600954346C8E7608D2085C7
:1011C000009594F828204B46C1E721682020C8618B
:1011D00021684A68074B1A404A6084F8410084F845
:1011E000425084F840500020D5E7FFE70220D2E7C4
:1011F0000024008000E800FE18BCBDE8E08F00007D
:1012000000B500680E4987B0884216D1C020009012
:1012100012200190012002900320039004200490EA
:1012200069460848FFF7D4FD0748816D41F4001175
:101230008165806D00F40010059007B000BD0000CE
:1012400000540040000400480010024002480168B9
:10125000491C0160704700001800002010B50320F1
:1012600000F088F8002000F005F800F017F80020E2
:1012700010BD000010B5044607484FF47A710068AD
:10128000B0FBF1F000F0DFFF00222146501E00F01D
:1012900051F8002010BD00001C0000201E4808B5B9
:1012A000016E41F001010166016E01F00101009142
:1012B000816D41F080518165806D00F0805000901B
:1012C000032000F057F8002211466FF00B0000F0E9
:1012D00031F8002211466FF00A0000F02BF80022CE
:1012E00011466FF0090000F025F800221146501F4A
:1012F00000F020F800221146101F00F01BF8002219
:101300001146901E00F016F80022BDE80840114674
:10131000501E00F00FB800000010024000F01F0245
:10132000012191404009800000F1E020C0F8001147
:1013300070470000F0B40E4B1B680C46C3F3022349
:10134000C3F10705042D00D90425191D072901D271
:10135000002300E0DB1E012606FA05F1491E2140AC
:1013600099409E40761E16403143F0BC01F000BD0E
:101370000CED00E0064900F0070208684FF6FF0395
:10138000184040EA0220034A1043086070470000FA
:101390000CED00E00000FA051549B0F5007F086883
:1013A000C0F3412009D0022805D0086820F4C060AD
:1013B00040F480600860002070470128FBD0086876
:1013C00020F4C06040F4007008600A480A4A0068CF
:1013D000B0FBF2F03222504300E0401E10B14A69E7
:1013E0005205FAD448694005E5D50320704700004E
:1013F000007000401C00002040420F0002480068BE
:1014000000F4C060704700000070004002480168AE
:1014100041F4807101607047007000402DE9F84F81
:10142000044600270088A84D3E46000515D5606C8F
:1014300060B1B0F5000F04D0B0F5400F2BD00127FC
:101440000AE0E86840F48030E86024E00021201DD4
:1014500001F0A0FC07001ED03E46206880033AD56C
:10146000A86D4FF00008C00009D4A86D40F080506E
:10147000A865A86D4FF0010800F080500090DFF8DB
:101480004CA2DAF8001041F48071CAF80010FFF79E
:101490006BFD814610E0D5F88800616C20F44000B7
:1014A0000843C5F88800D8E7FFF75EFDA0EB090008
:1014B000022801D9032705E0DAF80000C005F3D5BA
:1014C000002F7DD04FEA0706B8F1000F03D0A86DBA
:1014D00020F08050A8652078C00707D0D5F8880094
:1014E000216A20F003000843C5F8880020788007AF
:1014F00007D5D5F88800616A20F00C000843C5F8CC
:1015000088002078400707D5D5F88800A16A20F028
:1015100030000843C5F888002078800607D5D5F844
:101520008800E16A20F440600843C5F888002088FC
:10153000800507D5D5F88800E16B20F440200843EA
:10154000C5F888002088400507D5D5F88800216CAB
:1015500020F440100843C5F888002078400607D5DD
:10156000D5F88800216B20F440500843C5F8880066
:101570002078000607D5D5F88800616B20F440403C
:101580000843C5F888002088C00507D5D5F888002D
:10159000A16B20F440300843C5F8880020684FF064
:1015A000006700034FF0806850D5D5F88800A16C23
:1015B00020F040600843C5F88800A06CB84200E005
:1015C00005E03BD1E86840F48010E8603EE0D5F8E3
:1015D000900010F4407014D0A16D814211D0D5F864
:1015E0009000D5F8901020F4407041F48031C5F897
:1015F0009010D5F8901021F48031C5F89010C5F8FE
:101600009000C00711D0FFF7AFFC074641F28839C0
:1016100007E000BFFFF7A8FCC11B494501D903261D
:1016200052E7D5F890008007F4D5D5F89000A16D69
:1016300020F440700843C5F8900045E7404505D1C7
:101640000121201D01F0A6FB00B1064620684003E1
:1016500017D5D5F88800E16C20F040600843C5F844
:101660008800E06CB84204D1E86840F48010E8607B
:1016700007E0404505D10121201D01F08BFB00B1A1
:1016800006462088400411D5D5F88800216D20F049
:1016900040500843C5F88800206DB0F1805F05D147
:1016A0000221201D01F076FB00B1064620880004CF
:1016B00006D555F8880F616D20F0804008432860FA
:1016C000304600F005B800000010024000700040F5
:1016D00018BCBDE8E08F00002DE9F0470F4605007B
:1016E00058D03E4E306800F00700B84209D230684A
:1016F00020F0070038433060306800F00700B8423F
:1017000048D12878364CC0072CD06868032811D0FF
:10171000022812D0216898B1490500293ADAA16857
:1017200021F003010143A160FFF71EFC804641F256
:10173000883910E021688901EFE721688903ECE727
:101740008907EAE7FFF710FCA0EB0801494502D939
:101750000320BDE8F087A068696800F00C00B0EBDA
:10176000810FEFD12878800705D5A068A96820F0FF
:10177000F0000843A060306800F00700B8420BD9C1
:10178000306820F0070038433060306800F0070010
:10179000B84201D00120DCE72878400705D5A068D1
:1017A000E96820F4E0600843A0602878000706D5C7
:1017B000A068296920F4605040EAC100A06000F0F0
:1017C0003BF8A168074AC1F30311515CC8400649C0
:1017D00008600020FFF74EFD0020BAE7002002401D
:1017E00000100240DC3700081C000020014800689F
:1017F000704700001C000020044805490068896803
:10180000044AC1F30221515CC84070471C0000200B
:10181000001002401C380008044805490068896827
:10182000044AC1F3C221515CC84070471C0000202B
:10183000001002401C38000830B52D49002318461E
:101840008A682C4C12F00C0F4FEA640514D08A6899
:10185000C2F38102032A04D1CA6802F00302012AFA
:101860000AD08A68C2F38102012A19D08A68C2F3B9
:101870008102022A16D016E00A68120704D4D1F8B1
:101880009420C2F3032202E00A68C2F303121A4B47
:1018900053F822308A6812F00C0F04D1184602E087
:1018A000204600E028468A68C2F38102032A1DD13F
:1018B000C868CA6800F00300C2F30212521C022872
:1018C00004D0032805D0B3FBF2F004E0B4FBF2F03F
:1018D00001E0B5FBF2F0CA68C968C2F306225043C2
:1018E000C1F34161491C4900B0FBF1F030BD00007B
:1018F000001002400024F400EC3700082DE9F84302
:1019000004007DD02078FE4DC0065DD5A86810F09B
:101910000C0F0AD0A0690028286873D040F001009D
:101920002860FFF721FB064655E02868800702D5AE
:10193000A0690028E5D0216A2868000703D5286837
:1019400000F0F00004E0D5F89400F02202EA101054
:10195000814216D9084601F0B3FA002850D1286810
:1019600040F0080028602868216A20F0F000084351
:1019700028606868E16920F47F4040EA01206860DF
:1019800015E0286840F0080028602868216A20F0E7
:10199000F000084328606868E16920F47F4040EA6D
:1019A00001206860206A01F08BFA0028D6D1FFF789
:1019B00043FFA968D34AC1F30311515CC840D2491F
:1019C00008600020FFF756FC2CE000BFFFF7CCFAC0
:1019D000801B02287ED828688007F7D5286840F049
:1019E000080028602868216A20F0F0000843286079
:1019F0006868E16920F47F4040EA0120686011E0F6
:101A0000B2E0FFE720F001002860FFF7ADFA0646DC
:101A100005E000BFFFF7A8FA801B0228DAD8286883
:101A20008007F7D42078C00748D0A868C0F38100A9
:101A300002281DD0A868C0F38100032803D1E868FC
:101A4000C043800714D06068B0F5803F17D0B0F570
:101A5000A02F286817D020F480302860286820F450
:101A6000802028606068E0B1FFF77EFA064614E047
:101A70002868800322D56068002875D01EE0286899
:101A800040F48030EDE740F480202860F7E700BFA5
:101A9000FFF76AFA801B64289CD828688003F7D572
:101AA0000CE0FFF761FA064605E000BFFFF75CFABD
:101AB000801B64288ED828688003F7D4207880079C
:101AC00042D5A868C0F38100012816D0A868C0F3E9
:101AD000810000E0CEE0032804D1E86800F00300B4
:101AE00002280AD0E068002828681DD040F48070E1
:101AF0002860FFF739FA06460BE0286840050BD549
:101B0000E0680028B9D007E0FFF72EFA801B022812
:101B100084D828684005F7D56868217C20F0F85003
:101B200040EA016068600FE020F480702860FFF7F1
:101B30001BFA064605E000BFFFF716FA801B0228D5
:101B4000AAD828684005F7D42078000729D560690D
:101B50000028D5F8940013D040F00100C5F8940097
:101B6000FFF702FA064606E01DE100BFFFF7FCF9A9
:101B7000801B02287ED8D5F894008007F6D510E0A7
:101B800020F00100C5F89400FFF7EEF9064604E0E6
:101B9000FFF7EAF9801B02286CD8D5F8940080077B
:101BA000F6D42078400761D5A86D0026C00008D47F
:101BB000A86D40F08050A865A86D012600F0805007
:101BC000009052480168C90511D40168804641F46B
:101BD00080710160FFF7C8F9074604E0FFF7C4F918
:101BE000C01B022846D8D8F80000C005F6D5A0686A
:101BF000012815D00528D5F8900016D020F0010056
:101C0000C5F89000D5F8900020F00400C5F89000C9
:101C1000A06841F28838B8B1FFF7A6F907460EE090
:101C2000D5F8900040F00100F0E740F00400C5F85E
:101C30009000F5E7FFF798F9C11B41451AD8D5F890
:101C400090008007F6D50CE0FFF78EF9074604E018
:101C5000FFF78AF9C11B41450CD8D5F890008007E1
:101C6000F6D41EB1A86D20F08050A86520788006BB
:101C700029D500E089E0606A0028D5F8980011D0E5
:101C800040F00100C5F89800FFF76EF9064604E041
:101C9000FFF76AF9801B02287DD8D5F898008007E5
:101CA000F6D510E020F00100C5F89800FFF75CF9C8
:101CB000064604E0FFF758F9801B02286BD8D5F8D8
:101CC00098008007F6D4A06AC8B1A968C1F3810161
:101CD000032968D00228286820F08070286019D075
:101CE0002868000103D4E86820F00300E860E86891
:101CF00007490840E860FFF737F904464EE050E036
:101D000000100240DC3700081C000020007000407A
:101D1000FFFFEEFEFFF728F9064604E0FFF724F97F
:101D2000801B022837D828688001F7D4206B54F82C
:101D30002C1F000110380843218A1C4A490802EB75
:101D40004151A26841EA02210843217D4FF07E42C1
:101D5000490802EB41610843217B40EAC160E86029
:101D6000286840F080702860E86840F08070E86083
:101D7000FFF7FAF8044604E0FFF7F6F8001B022824
:101D800009D828688001F7D50BE004E0FFF7ECF8EC
:101D9000001B022802D90320BDE8F88328688001CF
:101DA000F4D40020F8E70120F6E700000000E0FF8F
:101DB0000068503050F821007047000010B50068EE
:101DC0000B4641680D480140080CD870C1F304244B
:101DD0005C7001F03F049C70C1F34231197052B93C
:101DE00001F0ACF8D870587801F0A8F858709878DD
:101DF00001F0A4F89870002010BD00003FFFFF0024
:101E000010B50B460168896A596001680969C1F318
:101E10000E019960006801680E480140C1F3054059
:101E20001870C1F306245C7001F07F049C7040249C
:101E300004EA1141D97052B901F080F8187058784D
:101E400001F07CF85870987801F078F898700020CC
:101E500010BD00007F7F7F0070B5040003D094F8B0
:101E6000210010B107E0012070BD002084F820009F
:101E7000204600F04DF8022084F821002168CA2095
:101E80004862216853204862204601F06BF8FF2524
:101E9000042618BB206881681C4A114081602168B3
:101EA00088686268A369104322691A4310438860F6
:101EB0002168E068086120680169228941EA0241DD
:101EC00001612068C16821F08001C16020688068DC
:101ED000800608D4204600F013F920B1206845623E
:101EE00084F82160BFE72068C16C21F00301C16460
:101EF0006169E06908432168CA6C1043C8642068BE
:101F00004562012084F82100002070BDBFFF8FFFD3
:101F100000680549884205D1044850F8901F41F4F3
:101F2000004101607047000000280040001002409E
:101F30002DE9F047044690F820000B46012826D0F2
:101F40004FF0010984F82090022084F8210058788D
:101F500002B300F0F3FF987800F0F0FF9878D9789A
:101F600040EA014558781978000240EA41300543BB
:101F70002168CA204862216853204862204600F048
:101F8000F1FF0026FF274FF0040858BB19E002209C
:101F9000BDE8F087C10603D500F0EF000A305870A5
:101FA000D87800F0D4FF0204587800F0D0FF42EA5D
:101FB0000022987800F0CBFF0243187842EA4035BF
:101FC000D6E710480540206845602068C16821F0C8
:101FD0008001C1602068806880060BD4204600F034
:101FE0008FF838B12068476284F8218084F8206037
:101FF0000120CDE72068476284F8219084F82060B2
:102000000020C5E73FFFFF002DE9F047044690F8A8
:1020100020000D46012812D04FF0010A84F820A0BC
:10202000022084F821002068002680684FEA406082
:1020300042B100281ADA287800F080FF17E0022069
:10204000BDE8F087002800DBEE70287800F07FFF05
:102050000204687800F07BFF42EA0022A87800F0D2
:1020600076FF0243E87842EA00470AE0EE70A8787B
:10207000297840EA01476878E978000240EA01409F
:1020800007432168CA2048622168532048622046DD
:1020900000F068FF4FF0FF084FF00409E0B917485F
:1020A0000740206807602068816821F480218160F2
:1020B000D5E90301084321688A68104388602068D5
:1020C000C16821F08001C1602068806880060CD45E
:1020D000204600F015F840B12168C1F8248084F84A
:1020E000219084F820600120AAE72168C1F82480AB
:1020F00084F821A084F820600020A1E77F7F7F0082
:1021000070B504460068C16821F0A001C160FEF707
:102110002BFF05464FF47A7607E000BFFEF724FF59
:10212000401BB04201D9032070BD2068C068800602
:10213000F4D5002070BD2DE9F041040005D0002544
:10214000A56294F85D0018B107E00120BDE8F081B8
:1021500084F85C50204600F045F8022384F85D3096
:102160002068016821F040010160E0684FF4E066FA
:10217000B04201D9002101E04FF48051B0F5706FF9
:1021800002D0B04200D0A562276B012227B9B0422D
:1021900001D9236300E02263D4E901031843D4E9A1
:1021A000043633431843238B03F400731843E36965
:1021B0001843236A1843A36A184323681860636BA3
:1021C000606AA66918430427E36807EA16463343A2
:1021D0001843084321684860256684F85D20002084
:1021E000B4E7000000B500680E4987B0884217D1F7
:1021F0000D48016E41F480510166006E694600F49D
:1022000080500590E0200090022001900020029074
:1022100003200390052004904FF09040FEF7D8FD76
:1022200007B000BD00300140001002404FF0E02137
:102230000428086903D020F004000861704740F0CA
:102240000400FAE7704710B5401EB0F1807F01D35B
:10225000012010BD4FF0E02460610F21601700F0F5
:1022600087FD0020A06107202061002010BD10B56F
:10227000FFF7E8FF10BD7047704700002DE9F041FF
:1022800002680446D0691168936810F00F0F4FF090
:1022900000055BD003F0010601F49077374369D065
:1022A000C70707D0CF0505D501271762626F42F037
:1022B00001026267820708D5DA0706D02768022282
:1022C0003A62626F42F004026267420708D5DA0799
:1022D00006D0236804221A62626F42F0020262672B
:1022E00002070AD501F02002324306D023680822F3
:1022F0001A62626F42F008026267626F002A32D08F
:10230000800605D5880603D5216E09B12046884789
:10231000606F000703D420688068400625D52046FA
:1023200000F072FF20688168490619D5816821F0A4
:1023300040018160E06E98B120498163E06EFEF754
:10234000EDFB00280FD0E06E816B06E0860611D50C
:102350008E060FD5216E1EE02046BDE8F0410847ED
:102360002046FFF789FFBDE8F0812046FFF784FF94
:102370006567F8E7C60209D55B0207D54FF4801000
:1023800010622046BDE8F041FFF775BF030605D592
:102390000B0603D5616E0029DED1E4E74006E2D5E5
:1023A0004806E0D51168204621F040011160202147
:1023B00084F87110656600F093F9D4E7F5310008F0
:1023C00010B5040003D094F8710010B107E00120AB
:1023D00010BD002084F87000204600F027F824206B
:1023E00084F871002068016821F001010160204635
:1023F00000F076FF0128EBD0606A10B1204600F0B3
:1024000067FE2068416821F490414160206881683E
:1024100021F02A0181602068016841F0010101601A
:102420002046BDE8104000F0B7BE0000F0B50568DA
:102430003D4800233D490322022487B0854218D13C
:10244000C86D40F00100C865C86D029300F001003E
:102450000590CDE900240820CDE9032069463448E1
:10246000FEF7B6FC002211464620FEF763FF462029
:102470001DE0304F07264FF09040BD421BD10D6E3E
:1024800045F480450D66096ECDE9023201F48041C4
:1024900005914FF4C061CDE9001404966946FEF73A
:1024A00097FC002211462520FEF744FF2520FEF769
:1024B00035FF07B0F0BD204FBD4217D18D6D45F4FB
:1024C00000358D65896DCDE9023201F40031059149
:1024D0000C21CDE9001404966946FEF779FC002230
:1024E00011462620FEF726FF2620E0E71348854206
:1024F000DFD1886D40F480208865886DCDE9023297
:1025000000F4802005904FF44060CDE90004694656
:1025100004960B48FEF75CFC002211462720FEF7CC
:1025200009FF2720C3E700000080004000100240A0
:1025300000080048003801400044004000480040C6
:102540000004004830B590F87230202B4AD1B1B168
:10255000AAB190F87030012B44D0012380F870307C
:102560004165A0F85820A0F85A20002202661D03F9
:102570008168FF23A94207D1016911B10CE0012054
:1025800030BD40F2FF110DE07F2419B1B1F1805F41
:1025900005D009E0016901BBA0F85C3004E00169E5
:1025A000D9B13F21A0F85C104267222180F8721057
:1025B00001688B6843F001038B608168A94201D1F7
:1025C000016969B10849016680F8702000680168F6
:1025D00041F490710160002030BDA0F85C40E3E759
:1025E0000249F0E7022030BD853200082932000898
:1025F0000E49884204D10A2201F5F8710B4812E015
:102600000A49F031884205D101F585716422A1F5AE
:10261000857008E005497831884206D101F5F371EB
:102620006422A1F5F370FFF78DBF70474C010020C5
:102630002DE9F843044690F871001F4616460D46F2
:1026400020284BD1C5B1BEB194F87000012845D007
:10265000012084F870004FF00008C4F87480212035
:1026600084F87100FEF780FCA4F850608146A4F85D
:1026700052604FF4805615E00120BDE8F8838021B8
:10268000204600F057FFD8B9A068B04201D12069B8
:10269000C0B115F8010B21680885B4F85200401E3E
:1026A000A4F85200B4F852004B464FF000020097D5
:1026B0000028E4D14FF04001204600F03BFF30B14C
:1026C0000320DAE735F8020BC0F30800E3E7202027
:1026D00084F8710084F870800020CEE70220CCE7F7
:1026E0007047FEE701688A69D243920701D400224D
:1026F0008A6200688169C943C90703D0816941F0D2
:1027000001018161704700002DE9F0410446006835
:1027100090460E468069C043C00633D4002520276A
:1027200020688069C043800615D5701CF8D0FEF77C
:102730001BFCA0EB0800B04201D8002EF0D154F8E9
:10274000440F40F0200044F804096770A57025701C
:102750000120BDE8F08121681020C8612068C761B0
:102760002046FFF7BFFF54F8440B4168064A11406A
:102770004160206840F0040044F820096777A5779D
:102780002577E5E70020E4E700E800FE1CB50C46ED
:102790000021019102210B460091014601AA08483F
:1027A000FEF79AFC0749087045B99DF804009DF8AA
:1027B00005100007800D40EA9100206028461CBDEE
:1027C0008800002000000020F0B50568059C6868BE
:1027D0004FF48066064FC1F3090106EA545641EAF8
:1027E00002413E431943B043214308436860F0BDB2
:1027F000FF63FF032DE9F0411D4617460E460446D0
:10280000DDF8188008E0681C06D0FEF7ADFBA0EBF1
:102810000800A8420BD855B12068806936EA00004C
:1028200012D00020B842EED00020BDE8F08154F86C
:10283000440F40F0200044F804092020607000207C
:10284000A07020700120F0E70120EBE72DE9F041B6
:10285000002690460F460446202525E0424639468C
:102860002046FFF751FF78BB20688069C04380068F
:1028700013D420688169C943490701D4218DC1B9A6
:10288000C56154F8440B4168104A1140416044F856
:1028900020696577A677267716E0FEF765FBA0EB43
:1028A0000800B84208D83FB120688069C04340079B
:1028B000D4D40020BDE8F08154F8440F40F020004B
:1028C00044F80409657026700120F3E700E800FE73
:1028D00070B516460D4604460DE0324629462046A0
:1028E000FFF712FF08B1012070BDFEF73DFB801B12
:1028F000A84207D835B120688069C0438006ECD46F
:10290000002070BD54F8440F40F0200044F8040942
:10291000202060700020A0702070E4E700EB8100B0
:10292000006E00F0F84070478068C0F38000704788
:1029300070B54FF0007401F0007394FAA4F4B4FA87
:1029400084F4E3404FF0F87494FAA4F501F0F871C0
:10295000B5FA85F500EB830021FA05F50726AE40B0
:1029600094FAA4F44369B4FA84F4E140B3438A408E
:102970001343436170BD00EB8100016E21F0004103
:1029800011430166704700000148FFF777BC000063
:10299000D400002010B5174886B015490024C0E9BE
:1029A000001484600821C460C0E904410121C0E929
:1029B0000641C0E90814C0E90A140463446384634F
:1029C000C463FDF72FFF00B1FEE70B48009006201F
:1029D000CDE901047F2003900420CDE90404694679
:1029E0000448FDF71BFD002800D0FEE706B010BD2F
:1029F00000000450200000202000F0142DE9F04FCA
:102A0000574887B0C16C41F00401C164C16C01F04A
:102A100004010591C16C41F08001C164C16C01F0F9
:102A200080010591C16C41F00101C164C16C01F0EC
:102A300001010591C16C41F00201C164C16C01F05A
:102A400002010591C16C41F00801C164C06C4FF0F6
:102A5000904B00F008000590012210215846FEF727
:102A60007EFADFF800A14FF40347002239465046B2
:102A7000FEF775FA4FF48658002241463A48FEF7B1
:102A80006EFA4FF48059002249465846FEF767FA1D
:102A9000012204213548FEF762FA01251020CDE914
:102AA00000050024CDE9025469465846FEF790F926
:102AB0002F4E42F23800CDE9000669460294504696
:102AC000FEF786F90097CDE9015469465046039414
:102AD000FEF77EF9CDF80080CDE901546946224821
:102AE0000394FEF775F9E802CDE900066946029401
:102AF0005846FEF76DF9CDF80090CDE901546946CE
:102B000058460394FEF764F90420CDE90005CDE9A9
:102B1000025469461548FEF75BF900221146092068
:102B2000FEF708FC0920FEF7F9FB002211460A20F7
:102B3000FEF700FC0A20FEF7F1FB002211461720E9
:102B4000FEF7F8FB1720FEF7E9FB002211462820CC
:102B5000FEF7F0FB2820FEF7E1FB07B000F00AB813
:102B6000001002400004004800080048000C004823
:102B70000000111030BCBDE8C08F0000114810B536
:102B80000F4901601049416000210122C0E9021291
:102B9000016141618161C1610162FEF73FFA00B1EB
:102BA000FEE700210748FEF7E5F900B1FEE7002146
:102BB0000448FEF70AFA002800D0FEE710BD000026
:102BC0000054004088000020826650000B4810B579
:102BD000094901604FF416514160002181600C22C7
:102BE000C160C0E90412816101624162FFF7E8FB44
:102BF000002800D0FEE710BD00800040D400002077
:102C000010B51D4886B01B490024C0E900147F217F
:102C10008160FF21C0E9031444618461C461FFF74E
:102C20001BF900B1FEE70B208DF8000031208DF874
:102C300001008DF802400394002269460E48049476
:102C4000FFF7E2F900B1FEE706208DF81400092035
:102C50008DF815000E208DF8160014208DF8170041
:102C6000002205A90448FFF763F9002800D0FEE719
:102C700006B010BD00280040B4020020104810B576
:102C80000E4901604FF48271416000214FF4E0620F
:102C9000C0E902124FF400720161C0E90512C1617E
:102CA000016207224162C0E90A12016308214163FF
:102CB000FFF741FA002800D0FEE710BD00300140C8
:102CC000D80200200C4810B50A4901604FF4E131E8
:102CD0004160002181600C22C160C0E90412816161
:102CE000C16101624162FFF76BFB002800D0FEE783
:102CF00010BD0000003801404C0100200C4810B508
:102D00000A4901604FF461414160002181600C2259
:102D1000C160C0E904128161C16101624162FFF7D3
:102D20004FFB002800D0FEE710BD0000004400402B
:102D3000C40100200C4810B50A4901604FF4E1318C
:102D40004160002181600C22C160C0E904128161F0
:102D5000C16101624162FFF733FB002800D0FEE74A
:102D600010BD0000004800403C020020FEE7704714
:102D70000907090E002806DA00F00F0000F1E02034
:102D800080F8141D704700F1E02080F800147047AF
:102D9000704700002DE9F041444C05468846E06844
:102DA0000026810728680DD0E16801F00301814207
:102DB00016D1A8B1E0686968C0F30210401C8842CF
:102DC0000ED120E0012804D0022805D0032807D125
:102DD00008E02168890701E021684905002907DB2F
:102DE00001265FE02168890302D421684903F5E7E1
:102DF000E1686A686FF00F0321F0730103EB0212C0
:102E000011430143E160206820F080602060FEF7FC
:102E1000ABF8074605E000BFFEF7A6F8C01B022886
:102E200037D820680001F7D4B8F1000F18D0B8F1F6
:102E3000010F1DD0287D4FF07E41400801EB40601E
:102E4000A96840EA01202169194A1140084320611C
:102E5000206840F080602060FEF786F807461AE0A0
:102E6000A868297B000240EAC1602169114AECE7A9
:102E7000288A1149400801EB4050A96840EA012026
:102E800021690E4AE1E700BFFEF76EF8C01B022879
:102E900001D9032606E020680001F5D52069A9695B
:102EA000084320613046BDE8F08100000010024078
:102EB000FF80FFF9FF80FF070000E0FFFF809FFF1A
:102EC000F8B51C4D06460024A86DC00002D5FEF7DB
:102ED00095FA0DE0A86D40F08050A865A86D00F04F
:102EE00080500090FEF78AFAA96D21F08051A96503
:102EF000B0F5007F04D0802E07D94FF003040AE01C
:102F0000802E08D9A02E01D804E001D1022402E0CD
:102F1000702E00D101240848016821F007012143E7
:102F20000160006800F00700A04201D00120F8BD58
:102F30000020F8BD0010024000200240010901EB12
:102F4000810100F00F0000EB4100C0B2704700218A
:102F500002E00A38C0B2491C0A28FAD2090740EA3E
:102F60001160704770B504460068C168490614D402
:102F70004FF0FF31C160FDF7F7FF05464FF47A7659
:102F800007E000BFFDF7F0FF401BB04201D903206E
:102F900070BD2068C0684006F4D5002070BD704741
:102FA00010B5FEF753F9BDE81040FFF760B9000017
:102FB0002DE9F041AEB0FEF729FA324850F8901FE3
:102FC00021F018010160052017904FF48030012591
:102FD000CDE9180502240326CDE921460727CDE9CE
:102FE00025740C202794CDE9235017A8FEF786FC02
:102FF00000B1FEE70F20CDE928064FF00008802041
:10300000CDE92A08012128A8CDF8B080FEF764FB9D
:1030100000B1FEE71C48CDF8288000904FF08050AA
:103020001490CDF8308000151690CDF8208008203F
:10303000CDE90250CDF82C8001964005CDF82480D2
:10304000CDE90640CDE904746846FEF7E7F900B122
:10305000FEE74FF40070FEF79FF900B1FEE7FEF7C0
:10306000C5FB4FF47A71B0FBF1F0FFF7ECF80420E8
:10307000FFF7DCF800221146501EFEF75BF92EB078
:10308000BDE8F08100100240674002000D48016871
:1030900041F4700101600C48016841F001010160D8
:1030A000002181600268094B1A4002608214C260EC
:1030B000026822F48022026081610249C0038039E3
:1030C0000860704788ED00E000100240FFFFF6EA5C
:1030D00090F82410C90706D001684A68836A22F470
:1030E00000321A434A6090F82410890706D5016817
:1030F0004A68C36A22F480321A434A6090F8241066
:10310000490706D501684A68036B22F480221A43F6
:103110004A6090F82410090706D501684A68436B95
:1031200022F400421A434A6090F82410C90606D5DA
:1031300001688A68836B22F480521A438A6090F88F
:103140002410890606D501688A68C36B22F40052F0
:103150001A438A6090F82410490611D501684A681C
:10316000036C22F480121A434A60016CB1F5801F8F
:1031700006D101684A68436C22F4C0021A434A60CF
:1031800090F82410090606D501684A68806C22F47C
:10319000002202434A607047F8B50026044646679D
:1031A000FDF7E2FE0546206800686FF07E470007E5
:1031B00008D52B4600224FF400112046009700F05E
:1031C000B9F960B92068006840070AD52B4600228B
:1031D0004FF480012046009700F0ACF908B10320BD
:1031E000F8BD202084F8710084F8720084F87060C3
:1031F0000020F8BD10B5806A0021A0F85A10A0F890
:103200005210FFF739F810BD01680A6822F4907275
:103210000A6001688A6822F001028A60202180F831
:10322000721000210166704710B5B0F85C2090F86C
:1032300072300168222B04D0088B40F0080008830C
:1032400010BD898C436D11401980416D891C416509
:10325000B0F85A10491E0904090CA0F85A10EFD111
:1032600001680A6822F490720A6001688A6822F094
:1032700001028A60202180F8721000210166FFF7A8
:10328000B7F910BD10B5B0F85C2090F87230016845
:10329000222B04D0088B40F00800088310BD898CD5
:1032A0001140426D531C43651170B0F85A10491E0D
:1032B0000904090CA0F85A10F0D101680A6822F438
:1032C00090720A6001688A6822F001028A602021F7
:1032D00080F8721000210166FFF78AF910BD000026
:1032E0002DE9F0410446016880682369E6691843C6
:1032F00063691025002733431843844A0B68844EC2
:10330000334003430B6020684168E36821F4405177
:10331000194341602168A069914201D0236A184392
:103320008B6823F4306303438B607A4B21687A48BF
:1033300099420DD1D0F8880010F0030006D0012882
:1033400039D0022835D0032838D136E0012535E0C0
:10335000724B99420BD1D0F8880010F00C0026D0A7
:10336000042828D0082824D00C2827D125E06C4B2D
:1033700099420BD1D0F8880010F0300017D01028F7
:1033800019D0202815D0302818D116E0914215D137
:10339000D0F8880010F4406009D0B0F5806F0AD0F2
:1033A000B0F5006F05D0B0F5406F07D105E00025FE
:1033B00004E0022502E0042500E00825594B002620
:1033C0004FF4004091423DD135B1022D07D0042D7C
:1033D00007D0082D10D107E0FEF70EFA03E01846DB
:1033E00002E0FEF729FAA8B3626802EB42018142CB
:1033F00002D8B0EB023F01D9012774E0DFF8288141
:103400005DB1022D0CD0042D13D0082DF4D150083D
:103410002905401846F1000105E0FEF7EDF90AE044
:1034200050084249F5E70023FCF7CCFEA0F54071B7
:1034300055E0FEF701FA6268010E03025008181801
:103440007141F0E7E1694FF6EF7881422ED1092D05
:10345000D2D200E047E0DFE805F006091F052205AB
:1034600005052500C8E7FEF7C7F901E0FEF7D4F926
:103470004100606801EB5001B1FBF0F080B2A0F1B7
:1034800010014145B8D84FF6F0710140C0F3420039
:1034900001432068C16026E025496068EAE7FEF73D
:1034A000CBF9E5E74FF480316068E3E7092DA3D25B
:1034B000DFE805F006091E052205050525009BE746
:1034C000FEF79AF901E0FEF7A7F90146606801EB03
:1034D000500100BFB1FBF0F080B2A0F110014145F6
:1034E0008AD82168C860266638466666BDE8F081DD
:1034F000606803EB5001EDE7FEF79EF9E5E76168D0
:1035000000EB5100B0FBF1F0E6E700000080004066
:10351000F369FFEF00380140001002400044004012
:10352000004800400024F400FFFC0F00000024F4D9
:103530000048E8012DE9F041984617460E4604463A
:10354000069D1DE0681C1BD02DB1FDF70DFDA0EB05
:103550000800A84214D92068016821F4D0710160E4
:103560002068816821F001018160202084F87100C9
:1035700084F87200002084F870000320BDE8F08118
:103580002068C06936EA000004D00020B842D9D0D3
:103590000020F3E70120F9E70148FEF76FBE0000C5
:1035A0004C0100200148FEF769BE0000C401002064
:1035B0000148FEF763BE00003C020020FEE7FEE784
:1035C00002E008C8121F08C1002AFAD170477047EC
:1035D000002001E001C1121F002AFBD1704700004A
:1035E00008B5FDF73BFEFFF7E3FCFFF707FA6F486E
:1035F000816C41F001018164806C002200F00100C7
:10360000009011460B20FDF795FE0B20FDF786FE7E
:10361000FFF758FBFFF78EFBFFF770FBFFF72EFB62
:10362000FFF7EEFAFFF7AAFAFFF7B4F9FFF7CEFAC1
:103630005F4C4FF40075002229462046FDF78FFCB1
:103640004FF4FA784046FDF785FB012229462046D3
:10365000FDF785FC4046FDF77DFB0122150229465A
:103660002046FDF77CFC4046FDF774FB002229460E
:103670002046FDF774FC4F496422A1F23A30FEF770
:1036800061FF01224C494D48FDF7E6F96501002232
:1036900029462046FDF763FC0A20FDF75BFB01226B
:1036A00029462046FDF75BFC42496422C839A1F552
:1036B0008570FEF747FF4FF47A752B46042240A130
:1036C0004148FEF7B5FF41F288363046FDF742FB30
:1036D0002B4609223DA13C48FEF7AAFF0122140314
:1036E00021464FF09040FDF73AFC3B4F0022214627
:1036F0003846FDF734FC4046FDF72CFB01222146FD
:103700003846FDF72CFC2B4964226439A1F5F3708F
:10371000FEF718FF012240213846FDF720FC012268
:1037200080213846FDF71BFC23499E20891DFFF7A9
:103730002DF8214C1F4AA41E643260701023AA2168
:10374000A2F2EA300096FDF7C7FC1A4A20706432F4
:1037500010239F21A2F2EA300096FDF7BDFC2070F5
:1037600014480B21763000220170352141702D2143
:1037700081700146A0F5E870FEF746FC12480C2166
:103780007830FEF715FB60600A4900227631A1F51A
:10379000E870FEF735FB08490B4800220A31783003
:1037A000FEF70CFB2846FDF7D5FAEDE700100240C6
:1037B000000400480E040020020000202000002029
:1037C00041540D0A000000003C02002041542B43EC
:1037D000474D4D0D0A0000000008004800000000A1
:1037E000000000000102030406070809A08601008A
:1037F000400D0300801A060000350C0040420F0007
:1038000080841E0000093D0000127A000024F400AC
:1038100000366E010048E801006CDC020000000088
:1038200001020304443800080000002020000000CA
:10383000C03500086438000820000020C0080000DF
:10384000D03500080000000000000000000000006B
:103850000000000000000000000000000000000068
:0438600000093D001E
:040000050800018D61
:00000001FF
